{
    "abi": [
        {
            "type": "constructor",
            "inputs": [
                {
                    "name": "_ticketBooth",
                    "type": "address",
                    "internalType": "address"
                },
                {
                    "name": "_defaultBaseURI",
                    "type": "string",
                    "internalType": "string"
                }
            ],
            "stateMutability": "nonpayable"
        },
        {
            "type": "function",
            "name": "approve",
            "inputs": [
                {
                    "name": "to",
                    "type": "address",
                    "internalType": "address"
                },
                {
                    "name": "tokenId",
                    "type": "uint256",
                    "internalType": "uint256"
                }
            ],
            "outputs": [],
            "stateMutability": "nonpayable"
        },
        {
            "type": "function",
            "name": "balanceOf",
            "inputs": [
                {
                    "name": "owner",
                    "type": "address",
                    "internalType": "address"
                }
            ],
            "outputs": [
                {
                    "name": "",
                    "type": "uint256",
                    "internalType": "uint256"
                }
            ],
            "stateMutability": "view"
        },
        {
            "type": "function",
            "name": "baseURI",
            "inputs": [],
            "outputs": [
                {
                    "name": "",
                    "type": "string",
                    "internalType": "string"
                }
            ],
            "stateMutability": "view"
        },
        {
            "type": "function",
            "name": "exists",
            "inputs": [
                {
                    "name": "tokenId",
                    "type": "uint256",
                    "internalType": "uint256"
                }
            ],
            "outputs": [
                {
                    "name": "",
                    "type": "bool",
                    "internalType": "bool"
                }
            ],
            "stateMutability": "view"
        },
        {
            "type": "function",
            "name": "getApproved",
            "inputs": [
                {
                    "name": "tokenId",
                    "type": "uint256",
                    "internalType": "uint256"
                }
            ],
            "outputs": [
                {
                    "name": "",
                    "type": "address",
                    "internalType": "address"
                }
            ],
            "stateMutability": "view"
        },
        {
            "type": "function",
            "name": "isApprovedForAll",
            "inputs": [
                {
                    "name": "owner",
                    "type": "address",
                    "internalType": "address"
                },
                {
                    "name": "operator",
                    "type": "address",
                    "internalType": "address"
                }
            ],
            "outputs": [
                {
                    "name": "",
                    "type": "bool",
                    "internalType": "bool"
                }
            ],
            "stateMutability": "view"
        },
        {
            "type": "function",
            "name": "mint",
            "inputs": [
                {
                    "name": "to",
                    "type": "address",
                    "internalType": "address"
                },
                {
                    "name": "eventName",
                    "type": "string",
                    "internalType": "string"
                }
            ],
            "outputs": [
                {
                    "name": "",
                    "type": "uint256",
                    "internalType": "uint256"
                }
            ],
            "stateMutability": "nonpayable"
        },
        {
            "type": "function",
            "name": "name",
            "inputs": [],
            "outputs": [
                {
                    "name": "",
                    "type": "string",
                    "internalType": "string"
                }
            ],
            "stateMutability": "view"
        },
        {
            "type": "function",
            "name": "owner",
            "inputs": [],
            "outputs": [
                {
                    "name": "",
                    "type": "address",
                    "internalType": "address"
                }
            ],
            "stateMutability": "view"
        },
        {
            "type": "function",
            "name": "ownerOf",
            "inputs": [
                {
                    "name": "tokenId",
                    "type": "uint256",
                    "internalType": "uint256"
                }
            ],
            "outputs": [
                {
                    "name": "",
                    "type": "address",
                    "internalType": "address"
                }
            ],
            "stateMutability": "view"
        },
        {
            "type": "function",
            "name": "renounceOwnership",
            "inputs": [],
            "outputs": [],
            "stateMutability": "nonpayable"
        },
        {
            "type": "function",
            "name": "safeTransferFrom",
            "inputs": [
                {
                    "name": "from",
                    "type": "address",
                    "internalType": "address"
                },
                {
                    "name": "to",
                    "type": "address",
                    "internalType": "address"
                },
                {
                    "name": "tokenId",
                    "type": "uint256",
                    "internalType": "uint256"
                }
            ],
            "outputs": [],
            "stateMutability": "nonpayable"
        },
        {
            "type": "function",
            "name": "safeTransferFrom",
            "inputs": [
                {
                    "name": "from",
                    "type": "address",
                    "internalType": "address"
                },
                {
                    "name": "to",
                    "type": "address",
                    "internalType": "address"
                },
                {
                    "name": "tokenId",
                    "type": "uint256",
                    "internalType": "uint256"
                },
                {
                    "name": "data",
                    "type": "bytes",
                    "internalType": "bytes"
                }
            ],
            "outputs": [],
            "stateMutability": "nonpayable"
        },
        {
            "type": "function",
            "name": "setApprovalForAll",
            "inputs": [
                {
                    "name": "operator",
                    "type": "address",
                    "internalType": "address"
                },
                {
                    "name": "approved",
                    "type": "bool",
                    "internalType": "bool"
                }
            ],
            "outputs": [],
            "stateMutability": "nonpayable"
        },
        {
            "type": "function",
            "name": "setBaseURI",
            "inputs": [
                {
                    "name": "newBaseURI",
                    "type": "string",
                    "internalType": "string"
                }
            ],
            "outputs": [],
            "stateMutability": "nonpayable"
        },
        {
            "type": "function",
            "name": "setTicketBooth",
            "inputs": [
                {
                    "name": "_ticketBooth",
                    "type": "address",
                    "internalType": "address"
                }
            ],
            "outputs": [],
            "stateMutability": "nonpayable"
        },
        {
            "type": "function",
            "name": "supportsInterface",
            "inputs": [
                {
                    "name": "interfaceId",
                    "type": "bytes4",
                    "internalType": "bytes4"
                }
            ],
            "outputs": [
                {
                    "name": "",
                    "type": "bool",
                    "internalType": "bool"
                }
            ],
            "stateMutability": "view"
        },
        {
            "type": "function",
            "name": "symbol",
            "inputs": [],
            "outputs": [
                {
                    "name": "",
                    "type": "string",
                    "internalType": "string"
                }
            ],
            "stateMutability": "view"
        },
        {
            "type": "function",
            "name": "ticketBooth",
            "inputs": [],
            "outputs": [
                {
                    "name": "",
                    "type": "address",
                    "internalType": "address"
                }
            ],
            "stateMutability": "view"
        },
        {
            "type": "function",
            "name": "ticketStubIdToEventName",
            "inputs": [
                {
                    "name": "",
                    "type": "uint256",
                    "internalType": "uint256"
                }
            ],
            "outputs": [
                {
                    "name": "",
                    "type": "string",
                    "internalType": "string"
                }
            ],
            "stateMutability": "view"
        },
        {
            "type": "function",
            "name": "tokenIdCounter",
            "inputs": [],
            "outputs": [
                {
                    "name": "",
                    "type": "uint256",
                    "internalType": "uint256"
                }
            ],
            "stateMutability": "view"
        },
        {
            "type": "function",
            "name": "tokenURI",
            "inputs": [
                {
                    "name": "tokenId",
                    "type": "uint256",
                    "internalType": "uint256"
                }
            ],
            "outputs": [
                {
                    "name": "",
                    "type": "string",
                    "internalType": "string"
                }
            ],
            "stateMutability": "view"
        },
        {
            "type": "function",
            "name": "transferFrom",
            "inputs": [
                {
                    "name": "from",
                    "type": "address",
                    "internalType": "address"
                },
                {
                    "name": "to",
                    "type": "address",
                    "internalType": "address"
                },
                {
                    "name": "tokenId",
                    "type": "uint256",
                    "internalType": "uint256"
                }
            ],
            "outputs": [],
            "stateMutability": "nonpayable"
        },
        {
            "type": "function",
            "name": "transferOwnership",
            "inputs": [
                {
                    "name": "newOwner",
                    "type": "address",
                    "internalType": "address"
                }
            ],
            "outputs": [],
            "stateMutability": "nonpayable"
        },
        {
            "type": "event",
            "name": "Approval",
            "inputs": [
                {
                    "name": "owner",
                    "type": "address",
                    "indexed": true,
                    "internalType": "address"
                },
                {
                    "name": "approved",
                    "type": "address",
                    "indexed": true,
                    "internalType": "address"
                },
                {
                    "name": "tokenId",
                    "type": "uint256",
                    "indexed": true,
                    "internalType": "uint256"
                }
            ],
            "anonymous": false
        },
        {
            "type": "event",
            "name": "ApprovalForAll",
            "inputs": [
                {
                    "name": "owner",
                    "type": "address",
                    "indexed": true,
                    "internalType": "address"
                },
                {
                    "name": "operator",
                    "type": "address",
                    "indexed": true,
                    "internalType": "address"
                },
                {
                    "name": "approved",
                    "type": "bool",
                    "indexed": false,
                    "internalType": "bool"
                }
            ],
            "anonymous": false
        },
        {
            "type": "event",
            "name": "OwnershipTransferred",
            "inputs": [
                {
                    "name": "previousOwner",
                    "type": "address",
                    "indexed": true,
                    "internalType": "address"
                },
                {
                    "name": "newOwner",
                    "type": "address",
                    "indexed": true,
                    "internalType": "address"
                }
            ],
            "anonymous": false
        },
        {
            "type": "event",
            "name": "Transfer",
            "inputs": [
                {
                    "name": "from",
                    "type": "address",
                    "indexed": true,
                    "internalType": "address"
                },
                {
                    "name": "to",
                    "type": "address",
                    "indexed": true,
                    "internalType": "address"
                },
                {
                    "name": "tokenId",
                    "type": "uint256",
                    "indexed": true,
                    "internalType": "uint256"
                }
            ],
            "anonymous": false
        },
        {
            "type": "error",
            "name": "OnlyTicketBooth",
            "inputs": []
        }
    ],
    "bytecode": {
        "object": "0x60806040523480156200001157600080fd5b5060405162001d0338038062001d0383398101604081905262000034916200017b565b6040518060400160405280601481526020017f57696c6463617264205469636b657420537475620000000000000000000000008152506040518060400160405280601481526020017f57494c44434152445f5449434b45545f535455420000000000000000000000008152508160009081620000b1919062000300565b506001620000c0828262000300565b505050620000dd620000d76200010f60201b60201c565b62000113565b600980546001600160a01b0319166001600160a01b038416179055600862000106828262000300565b505050620003cc565b3390565b600680546001600160a01b038381166001600160a01b0319831681179093556040519116919082907f8be0079c531659141344cd1fd0a4f28419497f9722a3daafe3b4186f6b6457e090600090a35050565b634e487b7160e01b600052604160045260246000fd5b600080604083850312156200018f57600080fd5b82516001600160a01b0381168114620001a757600080fd5b602084810151919350906001600160401b0380821115620001c757600080fd5b818601915086601f830112620001dc57600080fd5b815181811115620001f157620001f162000165565b604051601f8201601f19908116603f011681019083821181831017156200021c576200021c62000165565b8160405282815289868487010111156200023557600080fd5b600093505b828410156200025957848401860151818501870152928501926200023a565b60008684830101528096505050505050509250929050565b600181811c908216806200028657607f821691505b602082108103620002a757634e487b7160e01b600052602260045260246000fd5b50919050565b601f821115620002fb57600081815260208120601f850160051c81016020861015620002d65750805b601f850160051c820191505b81811015620002f757828155600101620002e2565b5050505b505050565b81516001600160401b038111156200031c576200031c62000165565b62000334816200032d845462000271565b84620002ad565b602080601f8311600181146200036c5760008415620003535750858301515b600019600386901b1c1916600185901b178555620002f7565b600085815260208120601f198616915b828110156200039d578886015182559484019460019091019084016200037c565b5085821015620003bc5787850151600019600388901b60f8161c191681555b5050505050600190811b01905550565b61192780620003dc6000396000f3fe608060405234801561001057600080fd5b50600436106101585760003560e01c80638da5cb5b116100c3578063c87b56dd1161007c578063c87b56dd146102c5578063d0def521146102d8578063e7ca166f146102eb578063e985e9c5146102fe578063f2fde38b1461033a578063fbabe3d81461034d57600080fd5b80638da5cb5b1461026a57806395d89b411461027b57806398bdf6f5146102835780639b602d601461028c578063a22cb4651461029f578063b88d4fde146102b257600080fd5b80634f558e79116101155780634f558e791461020057806355f804b3146102135780636352211e146102265780636c0360eb1461023957806370a0823114610241578063715018a61461026257600080fd5b806301ffc9a71461015d57806306fdde0314610185578063081812fc1461019a578063095ea7b3146101c557806323b872dd146101da57806342842e0e146101ed575b600080fd5b61017061016b366004611230565b610360565b60405190151581526020015b60405180910390f35b61018d6103b2565b60405161017c91906112a4565b6101ad6101a83660046112b7565b610444565b6040516001600160a01b03909116815260200161017c565b6101d86101d33660046112ec565b61046b565b005b6101d86101e8366004611316565b610585565b6101d86101fb366004611316565b6105b6565b61017061020e3660046112b7565b6105d1565b6101d861022136600461139b565b6105f0565b6101ad6102343660046112b7565b610605565b61018d610665565b61025461024f3660046113dd565b6106f3565b60405190815260200161017c565b6101d8610779565b6006546001600160a01b03166101ad565b61018d61078d565b61025460075481565b6009546101ad906001600160a01b031681565b6101d86102ad3660046113f8565b61079c565b6101d86102c036600461144a565b6107ab565b61018d6102d33660046112b7565b6107e3565b6102546102e6366004611526565b61084a565b61018d6102f93660046112b7565b6108bd565b61017061030c366004611579565b6001600160a01b03918216600090815260056020908152604080832093909416825291909152205460ff1690565b6101d86103483660046113dd565b6108d6565b6101d861035b3660046113dd565b61094f565b60006001600160e01b031982166380ac58cd60e01b148061039157506001600160e01b03198216635b5e139f60e01b145b806103ac57506301ffc9a760e01b6001600160e01b03198316145b92915050565b6060600080546103c1906115ac565b80601f01602080910402602001604051908101604052809291908181526020018280546103ed906115ac565b801561043a5780601f1061040f5761010080835404028352916020019161043a565b820191906000526020600020905b81548152906001019060200180831161041d57829003601f168201915b5050505050905090565b600061044f82610979565b506000908152600460205260409020546001600160a01b031690565b600061047682610605565b9050806001600160a01b0316836001600160a01b0316036104e85760405162461bcd60e51b815260206004820152602160248201527f4552433732313a20617070726f76616c20746f2063757272656e74206f776e656044820152603960f91b60648201526084015b60405180910390fd5b336001600160a01b03821614806105045750610504813361030c565b6105765760405162461bcd60e51b815260206004820152603d60248201527f4552433732313a20617070726f76652063616c6c6572206973206e6f7420746f60448201527f6b656e206f776e6572206f7220617070726f76656420666f7220616c6c00000060648201526084016104df565b61058083836109d8565b505050565b61058f3382610a46565b6105ab5760405162461bcd60e51b81526004016104df906115e6565b610580838383610ac5565b610580838383604051806020016040528060008152506107ab565b6000818152600260205260408120546001600160a01b031615156103ac565b6105f8610c29565b6008610580828483611681565b6000818152600260205260408120546001600160a01b0316806103ac5760405162461bcd60e51b8152602060048201526018602482015277115490cdcc8c4e881a5b9d985b1a59081d1bdad95b88125160421b60448201526064016104df565b60088054610672906115ac565b80601f016020809104026020016040519081016040528092919081815260200182805461069e906115ac565b80156106eb5780601f106106c0576101008083540402835291602001916106eb565b820191906000526020600020905b8154815290600101906020018083116106ce57829003601f168201915b505050505081565b60006001600160a01b03821661075d5760405162461bcd60e51b815260206004820152602960248201527f4552433732313a2061646472657373207a65726f206973206e6f7420612076616044820152683634b21037bbb732b960b91b60648201526084016104df565b506001600160a01b031660009081526003602052604090205490565b610781610c29565b61078b6000610c83565b565b6060600180546103c1906115ac565b6107a7338383610cd5565b5050565b6107b53383610a46565b6107d15760405162461bcd60e51b81526004016104df906115e6565b6107dd84848484610da3565b50505050565b60606107ee82610979565b6000600880546107fd906115ac565b90501161081957604051806020016040528060008152506103ac565b600861082483610dd6565b604051602001610835929190611742565b60405160208183030381529060405292915050565b6009546000906001600160a01b03163314610878576040516383224d4f60e01b815260040160405180910390fd5b6108958460076000815461088b906117d9565b9182905550610e69565b6007546000908152600a602052604090206108b1838583611681565b50506007549392505050565b600a6020526000908152604090208054610672906115ac565b6108de610c29565b6001600160a01b0381166109435760405162461bcd60e51b815260206004820152602660248201527f4f776e61626c653a206e6577206f776e657220697320746865207a65726f206160448201526564647265737360d01b60648201526084016104df565b61094c81610c83565b50565b610957610c29565b600980546001600160a01b0319166001600160a01b0392909216919091179055565b6000818152600260205260409020546001600160a01b031661094c5760405162461bcd60e51b8152602060048201526018602482015277115490cdcc8c4e881a5b9d985b1a59081d1bdad95b88125160421b60448201526064016104df565b600081815260046020526040902080546001600160a01b0319166001600160a01b0384169081179091558190610a0d82610605565b6001600160a01b03167f8c5be1e5ebec7d5bd14f71427d1e84f3dd0314c0f7b2291e5b200ac8c7c3b92560405160405180910390a45050565b600080610a5283610605565b9050806001600160a01b0316846001600160a01b03161480610a9957506001600160a01b0380821660009081526005602090815260408083209388168352929052205460ff165b80610abd5750836001600160a01b0316610ab284610444565b6001600160a01b0316145b949350505050565b826001600160a01b0316610ad882610605565b6001600160a01b031614610afe5760405162461bcd60e51b81526004016104df90611800565b6001600160a01b038216610b605760405162461bcd60e51b8152602060048201526024808201527f4552433732313a207472616e7366657220746f20746865207a65726f206164646044820152637265737360e01b60648201526084016104df565b826001600160a01b0316610b7382610605565b6001600160a01b031614610b995760405162461bcd60e51b81526004016104df90611800565b600081815260046020908152604080832080546001600160a01b03199081169091556001600160a01b0387811680865260038552838620805460001901905590871680865283862080546001019055868652600290945282852080549092168417909155905184937fddf252ad1be2c89b69c2b068fc378daa952ba7f163c4a11628f55a4df523b3ef91a4505050565b6006546001600160a01b0316331461078b5760405162461bcd60e51b815260206004820181905260248201527f4f776e61626c653a2063616c6c6572206973206e6f7420746865206f776e657260448201526064016104df565b600680546001600160a01b038381166001600160a01b0319831681179093556040519116919082907f8be0079c531659141344cd1fd0a4f28419497f9722a3daafe3b4186f6b6457e090600090a35050565b816001600160a01b0316836001600160a01b031603610d365760405162461bcd60e51b815260206004820152601960248201527f4552433732313a20617070726f766520746f2063616c6c65720000000000000060448201526064016104df565b6001600160a01b03838116600081815260056020908152604080832094871680845294825291829020805460ff191686151590811790915591519182527f17307eab39ab6107e8899845ad3d59bd9653f200f220920489ca2b5937696c31910160405180910390a3505050565b610dae848484610ac5565b610dba84848484610e83565b6107dd5760405162461bcd60e51b81526004016104df90611845565b60606000610de383610f84565b600101905060008167ffffffffffffffff811115610e0357610e03611434565b6040519080825280601f01601f191660200182016040528015610e2d576020820181803683370190505b5090508181016020015b600019016f181899199a1a9b1b9c1cb0b131b232b360811b600a86061a8153600a8504945084610e3757509392505050565b6107a782826040518060200160405280600081525061105c565b60006001600160a01b0384163b15610f7957604051630a85bd0160e11b81526001600160a01b0385169063150b7a0290610ec7903390899088908890600401611897565b6020604051808303816000875af1925050508015610f02575060408051601f3d908101601f19168201909252610eff918101906118d4565b60015b610f5f573d808015610f30576040519150601f19603f3d011682016040523d82523d6000602084013e610f35565b606091505b508051600003610f575760405162461bcd60e51b81526004016104df90611845565b805181602001fd5b6001600160e01b031916630a85bd0160e11b149050610abd565b506001949350505050565b60008072184f03e93ff9f4daa797ed6e38ed64bf6a1f0160401b8310610fc35772184f03e93ff9f4daa797ed6e38ed64bf6a1f0160401b830492506040015b6d04ee2d6d415b85acef81000000008310610fef576d04ee2d6d415b85acef8100000000830492506020015b662386f26fc10000831061100d57662386f26fc10000830492506010015b6305f5e1008310611025576305f5e100830492506008015b612710831061103957612710830492506004015b6064831061104b576064830492506002015b600a83106103ac5760010192915050565b611066838361108f565b6110736000848484610e83565b6105805760405162461bcd60e51b81526004016104df90611845565b6001600160a01b0382166110e55760405162461bcd60e51b815260206004820181905260248201527f4552433732313a206d696e7420746f20746865207a65726f206164647265737360448201526064016104df565b6000818152600260205260409020546001600160a01b03161561114a5760405162461bcd60e51b815260206004820152601c60248201527f4552433732313a20746f6b656e20616c7265616479206d696e7465640000000060448201526064016104df565b6000818152600260205260409020546001600160a01b0316156111af5760405162461bcd60e51b815260206004820152601c60248201527f4552433732313a20746f6b656e20616c7265616479206d696e7465640000000060448201526064016104df565b6001600160a01b038216600081815260036020908152604080832080546001019055848352600290915280822080546001600160a01b0319168417905551839291907fddf252ad1be2c89b69c2b068fc378daa952ba7f163c4a11628f55a4df523b3ef908290a45050565b6001600160e01b03198116811461094c57600080fd5b60006020828403121561124257600080fd5b813561124d8161121a565b9392505050565b60005b8381101561126f578181015183820152602001611257565b50506000910152565b60008151808452611290816020860160208601611254565b601f01601f19169290920160200192915050565b60208152600061124d6020830184611278565b6000602082840312156112c957600080fd5b5035919050565b80356001600160a01b03811681146112e757600080fd5b919050565b600080604083850312156112ff57600080fd5b611308836112d0565b946020939093013593505050565b60008060006060848603121561132b57600080fd5b611334846112d0565b9250611342602085016112d0565b9150604084013590509250925092565b60008083601f84011261136457600080fd5b50813567ffffffffffffffff81111561137c57600080fd5b60208301915083602082850101111561139457600080fd5b9250929050565b600080602083850312156113ae57600080fd5b823567ffffffffffffffff8111156113c557600080fd5b6113d185828601611352565b90969095509350505050565b6000602082840312156113ef57600080fd5b61124d826112d0565b6000806040838503121561140b57600080fd5b611414836112d0565b91506020830135801515811461142957600080fd5b809150509250929050565b634e487b7160e01b600052604160045260246000fd5b6000806000806080858703121561146057600080fd5b611469856112d0565b9350611477602086016112d0565b925060408501359150606085013567ffffffffffffffff8082111561149b57600080fd5b818701915087601f8301126114af57600080fd5b8135818111156114c1576114c1611434565b604051601f8201601f19908116603f011681019083821181831017156114e9576114e9611434565b816040528281528a602084870101111561150257600080fd5b82602086016020830137600060208483010152809550505050505092959194509250565b60008060006040848603121561153b57600080fd5b611544846112d0565b9250602084013567ffffffffffffffff81111561156057600080fd5b61156c86828701611352565b9497909650939450505050565b6000806040838503121561158c57600080fd5b611595836112d0565b91506115a3602084016112d0565b90509250929050565b600181811c908216806115c057607f821691505b6020821081036115e057634e487b7160e01b600052602260045260246000fd5b50919050565b6020808252602d908201527f4552433732313a2063616c6c6572206973206e6f7420746f6b656e206f776e6560408201526c1c881bdc88185c1c1c9bdd9959609a1b606082015260800190565b601f82111561058057600081815260208120601f850160051c8101602086101561165a5750805b601f850160051c820191505b8181101561167957828155600101611666565b505050505050565b67ffffffffffffffff83111561169957611699611434565b6116ad836116a783546115ac565b83611633565b6000601f8411600181146116e157600085156116c95750838201355b600019600387901b1c1916600186901b17835561173b565b600083815260209020601f19861690835b8281101561171257868501358255602094850194600190920191016116f2565b508682101561172f5760001960f88860031b161c19848701351681555b505060018560011b0183555b5050505050565b6000808454611750816115ac565b60018281168015611768576001811461177d576117ac565b60ff19841687528215158302870194506117ac565b8860005260208060002060005b858110156117a35781548a82015290840190820161178a565b50505082870194505b5050505083516117c0818360208801611254565b64173539b7b760d91b9101908152600501949350505050565b6000600182016117f957634e487b7160e01b600052601160045260246000fd5b5060010190565b60208082526025908201527f4552433732313a207472616e736665722066726f6d20696e636f72726563742060408201526437bbb732b960d91b606082015260800190565b60208082526032908201527f4552433732313a207472616e7366657220746f206e6f6e20455243373231526560408201527131b2b4bb32b91034b6b83632b6b2b73a32b960711b606082015260800190565b6001600160a01b03858116825284166020820152604081018390526080606082018190526000906118ca90830184611278565b9695505050505050565b6000602082840312156118e657600080fd5b815161124d8161121a56fea2646970667358221220d81e6f9ea337ebcbdec45486228f37a681b972f40848f04e2f9ff9ec2a03576564736f6c63430008130033",
        "linkReferences": {}
    },
    "methodIdentifiers": {
        "approve(address,uint256)": "095ea7b3",
        "balanceOf(address)": "70a08231",
        "baseURI()": "6c0360eb",
        "exists(uint256)": "4f558e79",
        "getApproved(uint256)": "081812fc",
        "isApprovedForAll(address,address)": "e985e9c5",
        "mint(address,string)": "d0def521",
        "name()": "06fdde03",
        "owner()": "8da5cb5b",
        "ownerOf(uint256)": "6352211e",
        "renounceOwnership()": "715018a6",
        "safeTransferFrom(address,address,uint256)": "42842e0e",
        "safeTransferFrom(address,address,uint256,bytes)": "b88d4fde",
        "setApprovalForAll(address,bool)": "a22cb465",
        "setBaseURI(string)": "55f804b3",
        "setTicketBooth(address)": "fbabe3d8",
        "supportsInterface(bytes4)": "01ffc9a7",
        "symbol()": "95d89b41",
        "ticketBooth()": "9b602d60",
        "ticketStubIdToEventName(uint256)": "e7ca166f",
        "tokenIdCounter()": "98bdf6f5",
        "tokenURI(uint256)": "c87b56dd",
        "transferFrom(address,address,uint256)": "23b872dd",
        "transferOwnership(address)": "f2fde38b"
    },
    "id": 52
}