{
    "abi": [
        {
            "type": "constructor",
            "inputs": [
                {
                    "name": "swagContract",
                    "type": "address",
                    "internalType": "address"
                },
                {
                    "name": "wildfileContract",
                    "type": "address",
                    "internalType": "address"
                }
            ],
            "stateMutability": "nonpayable"
        },
        {
            "type": "function",
            "name": "bulkMintWildfiles",
            "inputs": [
                {
                    "name": "recipients",
                    "type": "address[]",
                    "internalType": "address[]"
                }
            ],
            "outputs": [],
            "stateMutability": "nonpayable"
        },
        {
            "type": "function",
            "name": "distributeSwag",
            "inputs": [
                {
                    "name": "recipients",
                    "type": "address[]",
                    "internalType": "address[]"
                },
                {
                    "name": "tokenIds",
                    "type": "uint256[]",
                    "internalType": "uint256[]"
                },
                {
                    "name": "amounts",
                    "type": "uint256[]",
                    "internalType": "uint256[]"
                }
            ],
            "outputs": [],
            "stateMutability": "nonpayable"
        },
        {
            "type": "function",
            "name": "swag",
            "inputs": [],
            "outputs": [
                {
                    "name": "",
                    "type": "address",
                    "internalType": "contract WildcardSwag"
                }
            ],
            "stateMutability": "view"
        },
        {
            "type": "function",
            "name": "wildfile",
            "inputs": [],
            "outputs": [
                {
                    "name": "",
                    "type": "address",
                    "internalType": "contract Wildfile"
                }
            ],
            "stateMutability": "view"
        },
        {
            "type": "error",
            "name": "LengthMismatch",
            "inputs": []
        }
    ],
    "bytecode": {
        "object": "0x608060405234801561001057600080fd5b5060405161053438038061053483398101604081905261002f9161007c565b600080546001600160a01b039384166001600160a01b031991821617909155600180549290931691161790556100af565b80516001600160a01b038116811461007757600080fd5b919050565b6000806040838503121561008f57600080fd5b61009883610060565b91506100a660208401610060565b90509250929050565b610476806100be6000396000f3fe608060405234801561001057600080fd5b506004361061004c5760003560e01c8063ad181a2f14610051578063af3f786314610080578063b44720b914610095578063bcd0366e146100a8575b600080fd5b600054610064906001600160a01b031681565b6040516001600160a01b03909116815260200160405180910390f35b61009361008e3660046102f7565b6100bb565b005b600154610064906001600160a01b031681565b6100936100b6366004610391565b6101f9565b84831415806100ca5750848114155b156100eb576040516001621398b960e31b0319815260040160405180910390fd5b60005b858110156101f0576000546001600160a01b031663f242432a3389898581811061011a5761011a6103d3565b905060200201602081019061012f91906103e9565b888886818110610141576101416103d3565b9050602002013587878781811061015a5761015a6103d3565b6040516001600160e01b031960e089901b1681526001600160a01b03968716600482015295909416602486015250604484019190915260209091020135606482015260a06084820152600060a482015260c401600060405180830381600087803b1580156101c757600080fd5b505af11580156101db573d6000803e3d6000fd5b50505050806101e990610419565b90506100ee565b50505050505050565b60005b818110156102a6576001546001600160a01b03166332a93a3a848484818110610227576102276103d3565b905060200201602081019061023c91906103e9565b6040516001600160e01b031960e084901b1681526001600160a01b039091166004820152602401600060405180830381600087803b15801561027d57600080fd5b505af1158015610291573d6000803e3d6000fd5b505050508061029f90610419565b90506101fc565b505050565b60008083601f8401126102bd57600080fd5b50813567ffffffffffffffff8111156102d557600080fd5b6020830191508360208260051b85010111156102f057600080fd5b9250929050565b6000806000806000806060878903121561031057600080fd5b863567ffffffffffffffff8082111561032857600080fd5b6103348a838b016102ab565b9098509650602089013591508082111561034d57600080fd5b6103598a838b016102ab565b9096509450604089013591508082111561037257600080fd5b5061037f89828a016102ab565b979a9699509497509295939492505050565b600080602083850312156103a457600080fd5b823567ffffffffffffffff8111156103bb57600080fd5b6103c7858286016102ab565b90969095509350505050565b634e487b7160e01b600052603260045260246000fd5b6000602082840312156103fb57600080fd5b81356001600160a01b038116811461041257600080fd5b9392505050565b60006001820161043957634e487b7160e01b600052601160045260246000fd5b506001019056fea2646970667358221220966f373d3fab60bc968a5efded873aa7b51a4d8d316cbd6c1df9af113218162164736f6c63430008130033",
        "linkReferences": {}
    },
    "methodIdentifiers": {
        "bulkMintWildfiles(address[])": "bcd0366e",
        "distributeSwag(address[],uint256[],uint256[])": "af3f7863",
        "swag()": "ad181a2f",
        "wildfile()": "b44720b9"
    },
    "id": 34
}