{
    "abi": [
        {
            "type": "constructor",
            "inputs": [
                {
                    "name": "_ticketContract",
                    "type": "address",
                    "internalType": "address"
                },
                {
                    "name": "_ticketStubContract",
                    "type": "address",
                    "internalType": "address"
                },
                {
                    "name": "_wildfileContract",
                    "type": "address",
                    "internalType": "address"
                }
            ],
            "stateMutability": "nonpayable"
        },
        {
            "type": "function",
            "name": "attendedEvent",
            "inputs": [
                {
                    "name": "eventName",
                    "type": "string",
                    "internalType": "string"
                },
                {
                    "name": "attendee",
                    "type": "address",
                    "internalType": "address"
                }
            ],
            "outputs": [
                {
                    "name": "",
                    "type": "bool",
                    "internalType": "bool"
                }
            ],
            "stateMutability": "view"
        },
        {
            "type": "function",
            "name": "bulkMintTickets",
            "inputs": [
                {
                    "name": "to",
                    "type": "address",
                    "internalType": "address"
                },
                {
                    "name": "amount",
                    "type": "uint256",
                    "internalType": "uint256"
                }
            ],
            "outputs": [],
            "stateMutability": "nonpayable"
        },
        {
            "type": "function",
            "name": "eventToAddressToAttended",
            "inputs": [
                {
                    "name": "",
                    "type": "string",
                    "internalType": "string"
                },
                {
                    "name": "",
                    "type": "address",
                    "internalType": "address"
                }
            ],
            "outputs": [
                {
                    "name": "",
                    "type": "bool",
                    "internalType": "bool"
                }
            ],
            "stateMutability": "view"
        },
        {
            "type": "function",
            "name": "eventToWildfileToAttended",
            "inputs": [
                {
                    "name": "",
                    "type": "string",
                    "internalType": "string"
                },
                {
                    "name": "",
                    "type": "uint256",
                    "internalType": "uint256"
                }
            ],
            "outputs": [
                {
                    "name": "",
                    "type": "bool",
                    "internalType": "bool"
                }
            ],
            "stateMutability": "view"
        },
        {
            "type": "function",
            "name": "mintTicket",
            "inputs": [
                {
                    "name": "to",
                    "type": "address",
                    "internalType": "address"
                }
            ],
            "outputs": [],
            "stateMutability": "nonpayable"
        },
        {
            "type": "function",
            "name": "mintTickets",
            "inputs": [
                {
                    "name": "to",
                    "type": "address[]",
                    "internalType": "address[]"
                }
            ],
            "outputs": [],
            "stateMutability": "nonpayable"
        },
        {
            "type": "function",
            "name": "owner",
            "inputs": [],
            "outputs": [
                {
                    "name": "",
                    "type": "address",
                    "internalType": "address"
                }
            ],
            "stateMutability": "view"
        },
        {
            "type": "function",
            "name": "renounceOwnership",
            "inputs": [],
            "outputs": [],
            "stateMutability": "nonpayable"
        },
        {
            "type": "function",
            "name": "ripTicket",
            "inputs": [
                {
                    "name": "eventName",
                    "type": "string",
                    "internalType": "string"
                },
                {
                    "name": "ticketId",
                    "type": "uint256",
                    "internalType": "uint256"
                }
            ],
            "outputs": [],
            "stateMutability": "nonpayable"
        },
        {
            "type": "function",
            "name": "ripTickets",
            "inputs": [
                {
                    "name": "eventName",
                    "type": "string",
                    "internalType": "string"
                },
                {
                    "name": "ticketIds",
                    "type": "uint256[]",
                    "internalType": "uint256[]"
                }
            ],
            "outputs": [],
            "stateMutability": "nonpayable"
        },
        {
            "type": "function",
            "name": "setTicketContract",
            "inputs": [
                {
                    "name": "_ticketContract",
                    "type": "address",
                    "internalType": "address"
                }
            ],
            "outputs": [],
            "stateMutability": "nonpayable"
        },
        {
            "type": "function",
            "name": "setTicketStubContract",
            "inputs": [
                {
                    "name": "_ticketStubContract",
                    "type": "address",
                    "internalType": "address"
                }
            ],
            "outputs": [],
            "stateMutability": "nonpayable"
        },
        {
            "type": "function",
            "name": "setWildfileContract",
            "inputs": [
                {
                    "name": "_wildfileContract",
                    "type": "address",
                    "internalType": "address"
                }
            ],
            "outputs": [],
            "stateMutability": "nonpayable"
        },
        {
            "type": "function",
            "name": "ticketContract",
            "inputs": [],
            "outputs": [
                {
                    "name": "",
                    "type": "address",
                    "internalType": "contract WildcardEventTicket"
                }
            ],
            "stateMutability": "view"
        },
        {
            "type": "function",
            "name": "ticketStubContract",
            "inputs": [],
            "outputs": [
                {
                    "name": "",
                    "type": "address",
                    "internalType": "contract WildcardTicketStub"
                }
            ],
            "stateMutability": "view"
        },
        {
            "type": "function",
            "name": "transferOwnership",
            "inputs": [
                {
                    "name": "newOwner",
                    "type": "address",
                    "internalType": "address"
                }
            ],
            "outputs": [],
            "stateMutability": "nonpayable"
        },
        {
            "type": "function",
            "name": "wildfile",
            "inputs": [],
            "outputs": [
                {
                    "name": "",
                    "type": "address",
                    "internalType": "contract IWildfile"
                }
            ],
            "stateMutability": "view"
        },
        {
            "type": "event",
            "name": "OwnershipTransferred",
            "inputs": [
                {
                    "name": "previousOwner",
                    "type": "address",
                    "indexed": true,
                    "internalType": "address"
                },
                {
                    "name": "newOwner",
                    "type": "address",
                    "indexed": true,
                    "internalType": "address"
                }
            ],
            "anonymous": false
        },
        {
            "type": "event",
            "name": "TicketRipped",
            "inputs": [
                {
                    "name": "eventName",
                    "type": "string",
                    "indexed": false,
                    "internalType": "string"
                },
                {
                    "name": "ticketId",
                    "type": "uint256",
                    "indexed": false,
                    "internalType": "uint256"
                },
                {
                    "name": "attendee",
                    "type": "address",
                    "indexed": false,
                    "internalType": "address"
                },
                {
                    "name": "wildfileId",
                    "type": "uint256",
                    "indexed": false,
                    "internalType": "uint256"
                },
                {
                    "name": "ticketStubId",
                    "type": "uint256",
                    "indexed": false,
                    "internalType": "uint256"
                }
            ],
            "anonymous": false
        },
        {
            "type": "error",
            "name": "NoReentry",
            "inputs": []
        }
    ],
    "bytecode": {
        "object": "0x608060405234801561001057600080fd5b50604051610ffb380380610ffb83398101604081905261002f916100e6565b6100383361007a565b600180546001600160a01b039485166001600160a01b031991821617909155600280549385169382169390931790925560038054919093169116179055610129565b600080546001600160a01b038381166001600160a01b0319831681178455604051919092169283917f8be0079c531659141344cd1fd0a4f28419497f9722a3daafe3b4186f6b6457e09190a35050565b80516001600160a01b03811681146100e157600080fd5b919050565b6000806000606084860312156100fb57600080fd5b610104846100ca565b9250610112602085016100ca565b9150610120604085016100ca565b90509250925092565b610ec3806101386000396000f3fe608060405234801561001057600080fd5b506004361061010b5760003560e01c806394f9f9c2116100a2578063c7c6868611610071578063c7c6868614610241578063e36f1d4814610254578063ef90809e14610267578063f2fde38b1461027a578063f746db4b1461028d57600080fd5b806394f9f9c2146101f55780639cd6a1b614610208578063b44720b91461021b578063c0caa7721461022e57600080fd5b8063674f0055116100de578063674f0055146101b6578063715018a6146101c95780638aa36296146101d15780638da5cb5b146101e457600080fd5b806308e9bd261461011057806317156a001461012557806340750f4d1461017857806358a86e1d1461018b575b600080fd5b61012361011e366004610a08565b6102cb565b005b610163610133366004610acf565b81516020818401810180516005825292820194820194909420919093529091526000908152604090205460ff1681565b60405190151581526020015b60405180910390f35b610123610186366004610b14565b610335565b60015461019e906001600160a01b031681565b6040516001600160a01b03909116815260200161016f565b60025461019e906001600160a01b031681565b610123610366565b6101236101df366004610a08565b61037a565b6000546001600160a01b031661019e565b610123610203366004610b89565b6103a4565b610123610216366004610c1a565b6106e2565b60035461019e906001600160a01b031681565b61012361023c366004610a08565b610728565b61016361024f366004610c86565b610752565b610123610262366004610a08565b610854565b610123610275366004610cdd565b61087e565b610123610288366004610a08565b6108cb565b61016361029b366004610d1f565b81516020818401810180516004825292820194820194909420919093529091526000908152604090205460ff1681565b6102d3610949565b6001546040516335313c2160e11b81526001600160a01b03838116600483015290911690636a62784290602401600060405180830381600087803b15801561031a57600080fd5b505af115801561032e573d6000803e3d6000fd5b5050505050565b61033d610949565b60005b8181101561036157610351836102cb565b61035a81610d71565b9050610340565b505050565b61036e610949565b61037860006109a3565b565b610382610949565b600380546001600160a01b0319166001600160a01b0392909216919091179055565b6103ac610949565b6001546040516331a9108f60e11b8152600481018390526000916001600160a01b031690636352211e90602401602060405180830381865afa1580156103f6573d6000803e3d6000fd5b505050506040513d601f19601f8201168201806040525081019061041a9190610d98565b9050600060048585604051610430929190610db5565b90815260408051602092819003830190206001600160a01b0385166000908152925290205460ff16905080156104795760405163f464177760e01b815260040160405180910390fd5b60016004868660405161048d929190610db5565b90815260408051602092819003830181206001600160a01b03878116600081815292909552928120805460ff19169515159590951790945560035463a68d648160e01b8252600482019390935291169063a68d648190602401602060405180830381865afa158015610503573d6000803e3d6000fd5b505050506040513d601f19601f820116820180604052508101906105279190610dc5565b905080156105be5760058686604051610541929190610db5565b90815260408051602092819003830190206000848152925290205460ff16915081156105805760405163f464177760e01b815260040160405180910390fd5b600160058787604051610594929190610db5565b9081526040805160209281900383019020600085815292529020805460ff19169115159190911790555b600154604051630852cd8d60e31b8152600481018690526001600160a01b03909116906342966c6890602401600060405180830381600087803b15801561060457600080fd5b505af1158015610618573d6000803e3d6000fd5b505060025460405163d0def52160e01b8152600093506001600160a01b03909116915063d0def521906106539087908b908b90600401610e07565b6020604051808303816000875af1158015610672573d6000803e3d6000fd5b505050506040513d601f19601f820116820180604052508101906106969190610dc5565b90507fa19b5edc4fd5e709e2660e0d008fb187e1a4f2115d795ff83adc35446f0171ed8787878786866040516106d196959493929190610e35565b60405180910390a150505050505050565b6106ea610949565b60005b8181101561032e57610718858585858581811061070c5761070c610e77565b905060200201356103a4565b61072181610d71565b90506106ed565b610730610949565b600180546001600160a01b0319166001600160a01b0392909216919091179055565b60035460405163a68d648160e01b81526001600160a01b038381166004830152600092839283929091169063a68d648190602401602060405180830381865afa1580156107a3573d6000803e3d6000fd5b505050506040513d601f19601f820116820180604052508101906107c79190610dc5565b9050801561080257600586866040516107e1929190610db5565b90815260408051602092819003830190206000848152925290205460ff1691505b600060048787604051610816929190610db5565b90815260408051602092819003830190206001600160a01b0388166000908152925290205460ff16905082806108495750805b979650505050505050565b61085c610949565b600280546001600160a01b0319166001600160a01b0392909216919091179055565b610886610949565b60005b81811015610361576108bb8383838181106108a6576108a6610e77565b905060200201602081019061011e9190610a08565b6108c481610d71565b9050610889565b6108d3610949565b6001600160a01b03811661093d5760405162461bcd60e51b815260206004820152602660248201527f4f776e61626c653a206e6577206f776e657220697320746865207a65726f206160448201526564647265737360d01b60648201526084015b60405180910390fd5b610946816109a3565b50565b6000546001600160a01b031633146103785760405162461bcd60e51b815260206004820181905260248201527f4f776e61626c653a2063616c6c6572206973206e6f7420746865206f776e65726044820152606401610934565b600080546001600160a01b038381166001600160a01b0319831681178455604051919092169283917f8be0079c531659141344cd1fd0a4f28419497f9722a3daafe3b4186f6b6457e09190a35050565b6001600160a01b038116811461094657600080fd5b600060208284031215610a1a57600080fd5b8135610a25816109f3565b9392505050565b634e487b7160e01b600052604160045260246000fd5b600082601f830112610a5357600080fd5b813567ffffffffffffffff80821115610a6e57610a6e610a2c565b604051601f8301601f19908116603f01168101908282118183101715610a9657610a96610a2c565b81604052838152866020858801011115610aaf57600080fd5b836020870160208301376000602085830101528094505050505092915050565b60008060408385031215610ae257600080fd5b823567ffffffffffffffff811115610af957600080fd5b610b0585828601610a42565b95602094909401359450505050565b60008060408385031215610b2757600080fd5b8235610b32816109f3565b946020939093013593505050565b60008083601f840112610b5257600080fd5b50813567ffffffffffffffff811115610b6a57600080fd5b602083019150836020828501011115610b8257600080fd5b9250929050565b600080600060408486031215610b9e57600080fd5b833567ffffffffffffffff811115610bb557600080fd5b610bc186828701610b40565b909790965060209590950135949350505050565b60008083601f840112610be757600080fd5b50813567ffffffffffffffff811115610bff57600080fd5b6020830191508360208260051b8501011115610b8257600080fd5b60008060008060408587031215610c3057600080fd5b843567ffffffffffffffff80821115610c4857600080fd5b610c5488838901610b40565b90965094506020870135915080821115610c6d57600080fd5b50610c7a87828801610bd5565b95989497509550505050565b600080600060408486031215610c9b57600080fd5b833567ffffffffffffffff811115610cb257600080fd5b610cbe86828701610b40565b9094509250506020840135610cd2816109f3565b809150509250925092565b60008060208385031215610cf057600080fd5b823567ffffffffffffffff811115610d0757600080fd5b610d1385828601610bd5565b90969095509350505050565b60008060408385031215610d3257600080fd5b823567ffffffffffffffff811115610d4957600080fd5b610d5585828601610a42565b9250506020830135610d66816109f3565b809150509250929050565b600060018201610d9157634e487b7160e01b600052601160045260246000fd5b5060010190565b600060208284031215610daa57600080fd5b8151610a25816109f3565b8183823760009101908152919050565b600060208284031215610dd757600080fd5b5051919050565b81835281816020850137506000828201602090810191909152601f909101601f19169091010190565b6001600160a01b0384168152604060208201819052600090610e2c9083018486610dde565b95945050505050565b60a081526000610e4960a08301888a610dde565b6020830196909652506001600160a01b03939093166040840152606083019190915260809091015292915050565b634e487b7160e01b600052603260045260246000fdfea264697066735822122042a24a744b01a2e9d4df2eb91072fa964b58137c4a7b718c4d7bef6efd3812f564736f6c63430008130033",
        "linkReferences": {}
    },
    "methodIdentifiers": {
        "attendedEvent(string,address)": "c7c68686",
        "bulkMintTickets(address,uint256)": "40750f4d",
        "eventToAddressToAttended(string,address)": "f746db4b",
        "eventToWildfileToAttended(string,uint256)": "17156a00",
        "mintTicket(address)": "08e9bd26",
        "mintTickets(address[])": "ef90809e",
        "owner()": "8da5cb5b",
        "renounceOwnership()": "715018a6",
        "ripTicket(string,uint256)": "94f9f9c2",
        "ripTickets(string,uint256[])": "9cd6a1b6",
        "setTicketContract(address)": "c0caa772",
        "setTicketStubContract(address)": "e36f1d48",
        "setWildfileContract(address)": "8aa36296",
        "ticketContract()": "58a86e1d",
        "ticketStubContract()": "674f0055",
        "transferOwnership(address)": "f2fde38b",
        "wildfile()": "b44720b9"
    },
    "id": 51
}