{
    "abi": [
        {
            "inputs": [
                {
                    "internalType": "string",
                    "name": "defaultBaseURI",
                    "type": "string"
                },
                {
                    "internalType": "address",
                    "name": "transferHookAddress",
                    "type": "address"
                }
            ],
            "stateMutability": "nonpayable",
            "type": "constructor"
        },
        {
            "inputs": [],
            "name": "AlreadyOwnsWildfile",
            "type": "error"
        },
        {
            "inputs": [],
            "name": "TransferHookPermanentlySet",
            "type": "error"
        },
        {
            "anonymous": false,
            "inputs": [
                {
                    "indexed": true,
                    "internalType": "address",
                    "name": "owner",
                    "type": "address"
                },
                {
                    "indexed": true,
                    "internalType": "address",
                    "name": "approved",
                    "type": "address"
                },
                {
                    "indexed": true,
                    "internalType": "uint256",
                    "name": "tokenId",
                    "type": "uint256"
                }
            ],
            "name": "Approval",
            "type": "event"
        },
        {
            "anonymous": false,
            "inputs": [
                {
                    "indexed": true,
                    "internalType": "address",
                    "name": "owner",
                    "type": "address"
                },
                {
                    "indexed": true,
                    "internalType": "address",
                    "name": "operator",
                    "type": "address"
                },
                {
                    "indexed": false,
                    "internalType": "bool",
                    "name": "approved",
                    "type": "bool"
                }
            ],
            "name": "ApprovalForAll",
            "type": "event"
        },
        {
            "anonymous": false,
            "inputs": [
                {
                    "indexed": true,
                    "internalType": "string",
                    "name": "newBaseURI",
                    "type": "string"
                }
            ],
            "name": "BaseURISet",
            "type": "event"
        },
        {
            "anonymous": false,
            "inputs": [
                {
                    "indexed": true,
                    "internalType": "address",
                    "name": "previousOwner",
                    "type": "address"
                },
                {
                    "indexed": true,
                    "internalType": "address",
                    "name": "newOwner",
                    "type": "address"
                }
            ],
            "name": "OwnershipTransferred",
            "type": "event"
        },
        {
            "anonymous": false,
            "inputs": [
                {
                    "indexed": true,
                    "internalType": "address",
                    "name": "from",
                    "type": "address"
                },
                {
                    "indexed": true,
                    "internalType": "address",
                    "name": "to",
                    "type": "address"
                },
                {
                    "indexed": true,
                    "internalType": "uint256",
                    "name": "tokenId",
                    "type": "uint256"
                }
            ],
            "name": "Transfer",
            "type": "event"
        },
        {
            "anonymous": false,
            "inputs": [],
            "name": "WildfileTransferHookPermanentlySet",
            "type": "event"
        },
        {
            "anonymous": false,
            "inputs": [
                {
                    "indexed": true,
                    "internalType": "address",
                    "name": "transferHookAddress",
                    "type": "address"
                }
            ],
            "name": "WildfileTransferHookUpdated",
            "type": "event"
        },
        {
            "inputs": [
                {
                    "internalType": "address",
                    "name": "",
                    "type": "address"
                }
            ],
            "name": "addressToWildfileId",
            "outputs": [
                {
                    "internalType": "uint256",
                    "name": "",
                    "type": "uint256"
                }
            ],
            "stateMutability": "view",
            "type": "function"
        },
        {
            "inputs": [
                {
                    "internalType": "address",
                    "name": "to",
                    "type": "address"
                },
                {
                    "internalType": "uint256",
                    "name": "tokenId",
                    "type": "uint256"
                }
            ],
            "name": "approve",
            "outputs": [],
            "stateMutability": "nonpayable",
            "type": "function"
        },
        {
            "inputs": [
                {
                    "internalType": "address",
                    "name": "owner",
                    "type": "address"
                }
            ],
            "name": "balanceOf",
            "outputs": [
                {
                    "internalType": "uint256",
                    "name": "",
                    "type": "uint256"
                }
            ],
            "stateMutability": "view",
            "type": "function"
        },
        {
            "inputs": [],
            "name": "baseURI",
            "outputs": [
                {
                    "internalType": "string",
                    "name": "",
                    "type": "string"
                }
            ],
            "stateMutability": "view",
            "type": "function"
        },
        {
            "inputs": [
                {
                    "internalType": "uint256",
                    "name": "tokenId",
                    "type": "uint256"
                }
            ],
            "name": "getApproved",
            "outputs": [
                {
                    "internalType": "address",
                    "name": "",
                    "type": "address"
                }
            ],
            "stateMutability": "view",
            "type": "function"
        },
        {
            "inputs": [
                {
                    "internalType": "address",
                    "name": "account",
                    "type": "address"
                }
            ],
            "name": "getWildfileId",
            "outputs": [
                {
                    "internalType": "uint256",
                    "name": "",
                    "type": "uint256"
                }
            ],
            "stateMutability": "view",
            "type": "function"
        },
        {
            "inputs": [
                {
                    "internalType": "address",
                    "name": "owner",
                    "type": "address"
                },
                {
                    "internalType": "address",
                    "name": "operator",
                    "type": "address"
                }
            ],
            "name": "isApprovedForAll",
            "outputs": [
                {
                    "internalType": "bool",
                    "name": "",
                    "type": "bool"
                }
            ],
            "stateMutability": "view",
            "type": "function"
        },
        {
            "inputs": [],
            "name": "isTransferHookPermanentlySet",
            "outputs": [
                {
                    "internalType": "bool",
                    "name": "",
                    "type": "bool"
                }
            ],
            "stateMutability": "view",
            "type": "function"
        },
        {
            "inputs": [],
            "name": "isTransferHookSet",
            "outputs": [
                {
                    "internalType": "bool",
                    "name": "",
                    "type": "bool"
                }
            ],
            "stateMutability": "view",
            "type": "function"
        },
        {
            "inputs": [],
            "name": "name",
            "outputs": [
                {
                    "internalType": "string",
                    "name": "",
                    "type": "string"
                }
            ],
            "stateMutability": "view",
            "type": "function"
        },
        {
            "inputs": [],
            "name": "owner",
            "outputs": [
                {
                    "internalType": "address",
                    "name": "",
                    "type": "address"
                }
            ],
            "stateMutability": "view",
            "type": "function"
        },
        {
            "inputs": [
                {
                    "internalType": "uint256",
                    "name": "tokenId",
                    "type": "uint256"
                }
            ],
            "name": "ownerOf",
            "outputs": [
                {
                    "internalType": "address",
                    "name": "",
                    "type": "address"
                }
            ],
            "stateMutability": "view",
            "type": "function"
        },
        {
            "inputs": [],
            "name": "permanentlySetTransferHook",
            "outputs": [],
            "stateMutability": "nonpayable",
            "type": "function"
        },
        {
            "inputs": [],
            "name": "renounceOwnership",
            "outputs": [],
            "stateMutability": "nonpayable",
            "type": "function"
        },
        {
            "inputs": [
                {
                    "internalType": "address",
                    "name": "to",
                    "type": "address"
                }
            ],
            "name": "safeMint",
            "outputs": [],
            "stateMutability": "nonpayable",
            "type": "function"
        },
        {
            "inputs": [
                {
                    "internalType": "address",
                    "name": "from",
                    "type": "address"
                },
                {
                    "internalType": "address",
                    "name": "to",
                    "type": "address"
                },
                {
                    "internalType": "uint256",
                    "name": "tokenId",
                    "type": "uint256"
                }
            ],
            "name": "safeTransferFrom",
            "outputs": [],
            "stateMutability": "nonpayable",
            "type": "function"
        },
        {
            "inputs": [
                {
                    "internalType": "address",
                    "name": "from",
                    "type": "address"
                },
                {
                    "internalType": "address",
                    "name": "to",
                    "type": "address"
                },
                {
                    "internalType": "uint256",
                    "name": "tokenId",
                    "type": "uint256"
                },
                {
                    "internalType": "bytes",
                    "name": "data",
                    "type": "bytes"
                }
            ],
            "name": "safeTransferFrom",
            "outputs": [],
            "stateMutability": "nonpayable",
            "type": "function"
        },
        {
            "inputs": [
                {
                    "internalType": "address",
                    "name": "operator",
                    "type": "address"
                },
                {
                    "internalType": "bool",
                    "name": "approved",
                    "type": "bool"
                }
            ],
            "name": "setApprovalForAll",
            "outputs": [],
            "stateMutability": "nonpayable",
            "type": "function"
        },
        {
            "inputs": [
                {
                    "internalType": "string",
                    "name": "newBaseURI",
                    "type": "string"
                }
            ],
            "name": "setBaseURI",
            "outputs": [],
            "stateMutability": "nonpayable",
            "type": "function"
        },
        {
            "inputs": [
                {
                    "internalType": "address",
                    "name": "transferHookAddress",
                    "type": "address"
                }
            ],
            "name": "setTransferHook",
            "outputs": [],
            "stateMutability": "nonpayable",
            "type": "function"
        },
        {
            "inputs": [
                {
                    "internalType": "bytes4",
                    "name": "interfaceId",
                    "type": "bytes4"
                }
            ],
            "name": "supportsInterface",
            "outputs": [
                {
                    "internalType": "bool",
                    "name": "",
                    "type": "bool"
                }
            ],
            "stateMutability": "view",
            "type": "function"
        },
        {
            "inputs": [],
            "name": "symbol",
            "outputs": [
                {
                    "internalType": "string",
                    "name": "",
                    "type": "string"
                }
            ],
            "stateMutability": "view",
            "type": "function"
        },
        {
            "inputs": [],
            "name": "tokenIdCounter",
            "outputs": [
                {
                    "internalType": "uint256",
                    "name": "",
                    "type": "uint256"
                }
            ],
            "stateMutability": "view",
            "type": "function"
        },
        {
            "inputs": [
                {
                    "internalType": "uint256",
                    "name": "tokenId",
                    "type": "uint256"
                }
            ],
            "name": "tokenURI",
            "outputs": [
                {
                    "internalType": "string",
                    "name": "",
                    "type": "string"
                }
            ],
            "stateMutability": "view",
            "type": "function"
        },
        {
            "inputs": [
                {
                    "internalType": "address",
                    "name": "from",
                    "type": "address"
                },
                {
                    "internalType": "address",
                    "name": "to",
                    "type": "address"
                },
                {
                    "internalType": "uint256",
                    "name": "tokenId",
                    "type": "uint256"
                }
            ],
            "name": "transferFrom",
            "outputs": [],
            "stateMutability": "nonpayable",
            "type": "function"
        },
        {
            "inputs": [],
            "name": "transferHook",
            "outputs": [
                {
                    "internalType": "contract IWildfileTransferHook",
                    "name": "",
                    "type": "address"
                }
            ],
            "stateMutability": "view",
            "type": "function"
        },
        {
            "inputs": [
                {
                    "internalType": "address",
                    "name": "newOwner",
                    "type": "address"
                }
            ],
            "name": "transferOwnership",
            "outputs": [],
            "stateMutability": "nonpayable",
            "type": "function"
        }
    ],
    "bytecode": {
        "object": "0x60806040523480156200001157600080fd5b506040516200200b3803806200200b83398101604081905262000034916200017a565b6040518060400160405280601081526020016f57696c64636172642050726f66696c6560801b8152506040518060400160405280600881526020016757494c4446494c4560c01b81525081600090816200008f9190620002f1565b5060016200009e8282620002f1565b505050620000bb620000b5620000f160201b60201c565b620000f5565b600a620000c98382620002f1565b50600880546001600160a01b0319166001600160a01b039290921691909117905550620003bd565b3390565b600680546001600160a01b038381166001600160a01b0319831681179093556040519116919082907f8be0079c531659141344cd1fd0a4f28419497f9722a3daafe3b4186f6b6457e090600090a35050565b634e487b7160e01b600052604160045260246000fd5b80516001600160a01b03811681146200017557600080fd5b919050565b600080604083850312156200018e57600080fd5b82516001600160401b0380821115620001a657600080fd5b818501915085601f830112620001bb57600080fd5b815181811115620001d057620001d062000147565b604051601f8201601f19908116603f01168101908382118183101715620001fb57620001fb62000147565b816040528281526020935088848487010111156200021857600080fd5b600091505b828210156200023c57848201840151818301850152908301906200021d565b6000848483010152809650505050620002578186016200015d565b925050509250929050565b600181811c908216806200027757607f821691505b6020821081036200029857634e487b7160e01b600052602260045260246000fd5b50919050565b601f821115620002ec57600081815260208120601f850160051c81016020861015620002c75750805b601f850160051c820191505b81811015620002e857828155600101620002d3565b5050505b505050565b81516001600160401b038111156200030d576200030d62000147565b62000325816200031e845462000262565b846200029e565b602080601f8311600181146200035d5760008415620003445750858301515b600019600386901b1c1916600185901b178555620002e8565b600085815260208120601f198616915b828110156200038e578886015182559484019460019091019084016200036d565b5085821015620003ad5787850151600019600388901b60f8161c191681555b5050505050600190811b01905550565b611c3e80620003cd6000396000f3fe608060405234801561001057600080fd5b50600436106101a95760003560e01c80637f2dc61c116100f9578063a22cb46511610097578063c87b56dd11610071578063c87b56dd1461037a578063e985e9c51461038d578063f03f7415146103a0578063f2fde38b146103c057600080fd5b8063a22cb4651461032b578063a68d64811461033e578063b88d4fde1461036757600080fd5b806393518e9c116100d357806393518e9c146102fa57806395d89b411461030d57806396b53ae71461031557806398bdf6f51461032257600080fd5b80637f2dc61c146102c357806382bc7bc9146102d65780638da5cb5b146102e957600080fd5b806342842e0e116101665780636352211e116101405780636352211e1461027f5780636c0360eb1461029257806370a082311461029a578063715018a6146102bb57600080fd5b806342842e0e146102515780634ef7bc271461026457806355f804b31461026c57600080fd5b806301ffc9a7146101ae57806306fdde03146101d6578063081812fc146101eb578063095ea7b31461021657806323b872dd1461022b57806340d097c31461023e575b600080fd5b6101c16101bc366004611584565b6103d3565b60405190151581526020015b60405180910390f35b6101de610425565b6040516101cd91906115f1565b6101fe6101f9366004611604565b6104b7565b6040516001600160a01b0390911681526020016101cd565b610229610224366004611639565b6104de565b005b610229610239366004611663565b6105f8565b61022961024c36600461169f565b610629565b61022961025f366004611663565b61068e565b6102296106a9565b61022961027a3660046116ba565b6106e9565b6101fe61028d366004611604565b610743565b6101de6107a3565b6102ad6102a836600461169f565b610831565b6040519081526020016101cd565b6102296108b7565b6102296102d136600461169f565b6108cb565b6008546101fe906001600160a01b031681565b6006546001600160a01b03166101fe565b6008546001600160a01b031615156101c1565b6101de610941565b600b546101c19060ff1681565b6102ad60075481565b61022961033936600461173a565b610950565b6102ad61034c36600461169f565b6001600160a01b031660009081526009602052604090205490565b610229610375366004611787565b61095f565b6101de610388366004611604565b610997565b6101c161039b366004611863565b6109fe565b6102ad6103ae36600461169f565b60096020526000908152604090205481565b6102296103ce36600461169f565b610ac7565b60006001600160e01b031982166380ac58cd60e01b148061040457506001600160e01b03198216635b5e139f60e01b145b8061041f57506301ffc9a760e01b6001600160e01b03198316145b92915050565b60606000805461043490611896565b80601f016020809104026020016040519081016040528092919081815260200182805461046090611896565b80156104ad5780601f10610482576101008083540402835291602001916104ad565b820191906000526020600020905b81548152906001019060200180831161049057829003601f168201915b5050505050905090565b60006104c282610b40565b506000908152600460205260409020546001600160a01b031690565b60006104e982610743565b9050806001600160a01b0316836001600160a01b03160361055b5760405162461bcd60e51b815260206004820152602160248201527f4552433732313a20617070726f76616c20746f2063757272656e74206f776e656044820152603960f91b60648201526084015b60405180910390fd5b336001600160a01b0382161480610577575061057781336109fe565b6105e95760405162461bcd60e51b815260206004820152603d60248201527f4552433732313a20617070726f76652063616c6c6572206973206e6f7420746f60448201527f6b656e206f776e6572206f7220617070726f76656420666f7220616c6c0000006064820152608401610552565b6105f38383610b9f565b505050565b6106023382610c0d565b61061e5760405162461bcd60e51b8152600401610552906118d0565b6105f3838383610c6c565b61063281610831565b1561065057604051636cfcd8f760e01b815260040160405180910390fd5b60006007600081546106619061191d565b918290555090506106728282610de5565b6001600160a01b03909116600090815260096020526040902055565b6105f38383836040518060200160405280600081525061095f565b6106b1610dff565b600b805460ff191660011790556040517f1562d1ca0dcaafe950b8493a4c2f86c63eb79d58bf6d43d34cb44f0f0b88818b90600090a1565b6106f1610dff565b600a6106fe828483611992565b50818160405161070f929190611a53565b604051908190038120907ff9c7803e94e0d3c02900d8a90893a6d5e90dd04d32a4cfe825520f82bf9f32f690600090a25050565b6000818152600260205260408120546001600160a01b03168061041f5760405162461bcd60e51b8152602060048201526018602482015277115490cdcc8c4e881a5b9d985b1a59081d1bdad95b88125160421b6044820152606401610552565b600a80546107b090611896565b80601f01602080910402602001604051908101604052809291908181526020018280546107dc90611896565b80156108295780601f106107fe57610100808354040283529160200191610829565b820191906000526020600020905b81548152906001019060200180831161080c57829003601f168201915b505050505081565b60006001600160a01b03821661089b5760405162461bcd60e51b815260206004820152602960248201527f4552433732313a2061646472657373207a65726f206973206e6f7420612076616044820152683634b21037bbb732b960b91b6064820152608401610552565b506001600160a01b031660009081526003602052604090205490565b6108bf610dff565b6108c96000610e59565b565b6108d3610dff565b600b5460ff16156108f757604051633e88f54560e01b815260040160405180910390fd5b600880546001600160a01b0319166001600160a01b0383169081179091556040517f5c2df4644c7cb8904daeaaaa8d3aa62bab43edfe3dbd0cb32d670aaa99a0bc0f90600090a250565b60606001805461043490611896565b61095b338383610eab565b5050565b6109693383610c0d565b6109855760405162461bcd60e51b8152600401610552906118d0565b61099184848484610f79565b50505050565b60606109a282610b40565b6000600a80546109b190611896565b9050116109cd576040518060200160405280600081525061041f565b600a6109d883610fac565b6040516020016109e9929190611a63565b60405160208183030381529060405292915050565b6000610a146008546001600160a01b0316151590565b15610a965760085460405163e985e9c560e01b81526001600160a01b03858116600483015284811660248301529091169063e985e9c590604401602060405180830381865afa158015610a6b573d6000803e3d6000fd5b505050506040513d601f19601f82011682018060405250810190610a8f9190611afa565b905061041f565b6001600160a01b0380841660009081526005602090815260408083209386168352929052205460ff165b9392505050565b610acf610dff565b6001600160a01b038116610b345760405162461bcd60e51b815260206004820152602660248201527f4f776e61626c653a206e6577206f776e657220697320746865207a65726f206160448201526564647265737360d01b6064820152608401610552565b610b3d81610e59565b50565b6000818152600260205260409020546001600160a01b0316610b3d5760405162461bcd60e51b8152602060048201526018602482015277115490cdcc8c4e881a5b9d985b1a59081d1bdad95b88125160421b6044820152606401610552565b600081815260046020526040902080546001600160a01b0319166001600160a01b0384169081179091558190610bd482610743565b6001600160a01b03167f8c5be1e5ebec7d5bd14f71427d1e84f3dd0314c0f7b2291e5b200ac8c7c3b92560405160405180910390a45050565b600080610c1983610743565b9050806001600160a01b0316846001600160a01b03161480610c405750610c4081856109fe565b80610c645750836001600160a01b0316610c59846104b7565b6001600160a01b0316145b949350505050565b826001600160a01b0316610c7f82610743565b6001600160a01b031614610ca55760405162461bcd60e51b815260040161055290611b17565b6001600160a01b038216610d075760405162461bcd60e51b8152602060048201526024808201527f4552433732313a207472616e7366657220746f20746865207a65726f206164646044820152637265737360e01b6064820152608401610552565b610d14838383600161103f565b826001600160a01b0316610d2782610743565b6001600160a01b031614610d4d5760405162461bcd60e51b815260040161055290611b17565b600081815260046020908152604080832080546001600160a01b03199081169091556001600160a01b0387811680865260038552838620805460001901905590871680865283862080546001019055868652600290945282852080549092168417909155905184937fddf252ad1be2c89b69c2b068fc378daa952ba7f163c4a11628f55a4df523b3ef91a46105f38383836001611134565b61095b8282604051806020016040528060008152506111bf565b6006546001600160a01b031633146108c95760405162461bcd60e51b815260206004820181905260248201527f4f776e61626c653a2063616c6c6572206973206e6f7420746865206f776e65726044820152606401610552565b600680546001600160a01b038381166001600160a01b0319831681179093556040519116919082907f8be0079c531659141344cd1fd0a4f28419497f9722a3daafe3b4186f6b6457e090600090a35050565b816001600160a01b0316836001600160a01b031603610f0c5760405162461bcd60e51b815260206004820152601960248201527f4552433732313a20617070726f766520746f2063616c6c6572000000000000006044820152606401610552565b6001600160a01b03838116600081815260056020908152604080832094871680845294825291829020805460ff191686151590811790915591519182527f17307eab39ab6107e8899845ad3d59bd9653f200f220920489ca2b5937696c31910160405180910390a3505050565b610f84848484610c6c565b610f90848484846111f2565b6109915760405162461bcd60e51b815260040161055290611b5c565b60606000610fb9836112f3565b600101905060008167ffffffffffffffff811115610fd957610fd9611771565b6040519080825280601f01601f191660200182016040528015611003576020820181803683370190505b5090508181016020015b600019016f181899199a1a9b1b9c1cb0b131b232b360811b600a86061a8153600a850494508461100d57509392505050565b6001600160a01b03841615610991576008546001600160a01b0316156110d4576008546040516301bdf3ad60e51b81523360048201526001600160a01b038681166024830152858116604483015260648201859052909116906337be75a090608401600060405180830381600087803b1580156110bb57600080fd5b505af11580156110cf573d6000803e3d6000fd5b505050505b6001600160a01b0383166000908152600960205260409020541561110b57604051636cfcd8f760e01b815260040160405180910390fd5b506001600160a01b03928316600090815260096020526040808220829055929093168352912055565b6008546001600160a01b0316156109915760085460405163be6ba1f160e01b81523360048201526001600160a01b0386811660248301528581166044830152606482018590529091169063be6ba1f190608401600060405180830381600087803b1580156111a157600080fd5b505af11580156111b5573d6000803e3d6000fd5b5050505050505050565b6111c983836113cb565b6111d660008484846111f2565b6105f35760405162461bcd60e51b815260040161055290611b5c565b60006001600160a01b0384163b156112e857604051630a85bd0160e11b81526001600160a01b0385169063150b7a0290611236903390899088908890600401611bae565b6020604051808303816000875af1925050508015611271575060408051601f3d908101601f1916820190925261126e91810190611beb565b60015b6112ce573d80801561129f576040519150601f19603f3d011682016040523d82523d6000602084013e6112a4565b606091505b5080516000036112c65760405162461bcd60e51b815260040161055290611b5c565b805181602001fd5b6001600160e01b031916630a85bd0160e11b149050610c64565b506001949350505050565b60008072184f03e93ff9f4daa797ed6e38ed64bf6a1f0160401b83106113325772184f03e93ff9f4daa797ed6e38ed64bf6a1f0160401b830492506040015b6d04ee2d6d415b85acef8100000000831061135e576d04ee2d6d415b85acef8100000000830492506020015b662386f26fc10000831061137c57662386f26fc10000830492506010015b6305f5e1008310611394576305f5e100830492506008015b61271083106113a857612710830492506004015b606483106113ba576064830492506002015b600a831061041f5760010192915050565b6001600160a01b0382166114215760405162461bcd60e51b815260206004820181905260248201527f4552433732313a206d696e7420746f20746865207a65726f20616464726573736044820152606401610552565b6000818152600260205260409020546001600160a01b0316156114865760405162461bcd60e51b815260206004820152601c60248201527f4552433732313a20746f6b656e20616c7265616479206d696e746564000000006044820152606401610552565b61149460008383600161103f565b6000818152600260205260409020546001600160a01b0316156114f95760405162461bcd60e51b815260206004820152601c60248201527f4552433732313a20746f6b656e20616c7265616479206d696e746564000000006044820152606401610552565b6001600160a01b038216600081815260036020908152604080832080546001019055848352600290915280822080546001600160a01b0319168417905551839291907fddf252ad1be2c89b69c2b068fc378daa952ba7f163c4a11628f55a4df523b3ef908290a461095b600083836001611134565b6001600160e01b031981168114610b3d57600080fd5b60006020828403121561159657600080fd5b8135610ac08161156e565b60005b838110156115bc5781810151838201526020016115a4565b50506000910152565b600081518084526115dd8160208601602086016115a1565b601f01601f19169290920160200192915050565b602081526000610ac060208301846115c5565b60006020828403121561161657600080fd5b5035919050565b80356001600160a01b038116811461163457600080fd5b919050565b6000806040838503121561164c57600080fd5b6116558361161d565b946020939093013593505050565b60008060006060848603121561167857600080fd5b6116818461161d565b925061168f6020850161161d565b9150604084013590509250925092565b6000602082840312156116b157600080fd5b610ac08261161d565b600080602083850312156116cd57600080fd5b823567ffffffffffffffff808211156116e557600080fd5b818501915085601f8301126116f957600080fd5b81358181111561170857600080fd5b86602082850101111561171a57600080fd5b60209290920196919550909350505050565b8015158114610b3d57600080fd5b6000806040838503121561174d57600080fd5b6117568361161d565b915060208301356117668161172c565b809150509250929050565b634e487b7160e01b600052604160045260246000fd5b6000806000806080858703121561179d57600080fd5b6117a68561161d565b93506117b46020860161161d565b925060408501359150606085013567ffffffffffffffff808211156117d857600080fd5b818701915087601f8301126117ec57600080fd5b8135818111156117fe576117fe611771565b604051601f8201601f19908116603f0116810190838211818310171561182657611826611771565b816040528281528a602084870101111561183f57600080fd5b82602086016020830137600060208483010152809550505050505092959194509250565b6000806040838503121561187657600080fd5b61187f8361161d565b915061188d6020840161161d565b90509250929050565b600181811c908216806118aa57607f821691505b6020821081036118ca57634e487b7160e01b600052602260045260246000fd5b50919050565b6020808252602d908201527f4552433732313a2063616c6c6572206973206e6f7420746f6b656e206f776e6560408201526c1c881bdc88185c1c1c9bdd9959609a1b606082015260800190565b60006001820161193d57634e487b7160e01b600052601160045260246000fd5b5060010190565b601f8211156105f357600081815260208120601f850160051c8101602086101561196b5750805b601f850160051c820191505b8181101561198a57828155600101611977565b505050505050565b67ffffffffffffffff8311156119aa576119aa611771565b6119be836119b88354611896565b83611944565b6000601f8411600181146119f257600085156119da5750838201355b600019600387901b1c1916600186901b178355611a4c565b600083815260209020601f19861690835b82811015611a235786850135825560209485019460019092019101611a03565b5086821015611a405760001960f88860031b161c19848701351681555b505060018560011b0183555b5050505050565b8183823760009101908152919050565b6000808454611a7181611896565b60018281168015611a895760018114611a9e57611acd565b60ff1984168752821515830287019450611acd565b8860005260208060002060005b85811015611ac45781548a820152908401908201611aab565b50505082870194505b505050508351611ae18183602088016115a1565b64173539b7b760d91b9101908152600501949350505050565b600060208284031215611b0c57600080fd5b8151610ac08161172c565b60208082526025908201527f4552433732313a207472616e736665722066726f6d20696e636f72726563742060408201526437bbb732b960d91b606082015260800190565b60208082526032908201527f4552433732313a207472616e7366657220746f206e6f6e20455243373231526560408201527131b2b4bb32b91034b6b83632b6b2b73a32b960711b606082015260800190565b6001600160a01b0385811682528416602082015260408101839052608060608201819052600090611be1908301846115c5565b9695505050505050565b600060208284031215611bfd57600080fd5b8151610ac08161156e56fea26469706673582212207d18fbe63b9e33136f71eb1722eeb74c1e5dd63a1e4940a179ba7ed70a94976364736f6c63430008130033",
        "linkReferences": {}
    },
    "methodIdentifiers": {
        "addressToWildfileId(address)": "f03f7415",
        "approve(address,uint256)": "095ea7b3",
        "balanceOf(address)": "70a08231",
        "baseURI()": "6c0360eb",
        "getApproved(uint256)": "081812fc",
        "getWildfileId(address)": "a68d6481",
        "isApprovedForAll(address,address)": "e985e9c5",
        "isTransferHookPermanentlySet()": "96b53ae7",
        "isTransferHookSet()": "93518e9c",
        "name()": "06fdde03",
        "owner()": "8da5cb5b",
        "ownerOf(uint256)": "6352211e",
        "permanentlySetTransferHook()": "4ef7bc27",
        "renounceOwnership()": "715018a6",
        "safeMint(address)": "40d097c3",
        "safeTransferFrom(address,address,uint256)": "42842e0e",
        "safeTransferFrom(address,address,uint256,bytes)": "b88d4fde",
        "setApprovalForAll(address,bool)": "a22cb465",
        "setBaseURI(string)": "55f804b3",
        "setTransferHook(address)": "7f2dc61c",
        "supportsInterface(bytes4)": "01ffc9a7",
        "symbol()": "95d89b41",
        "tokenIdCounter()": "98bdf6f5",
        "tokenURI(uint256)": "c87b56dd",
        "transferFrom(address,address,uint256)": "23b872dd",
        "transferHook()": "82bc7bc9",
        "transferOwnership(address)": "f2fde38b"
    },
    "id": 55
}