{
    "abi": [
        {
            "type": "constructor",
            "inputs": [
                {
                    "name": "_ticketBooth",
                    "type": "address",
                    "internalType": "address"
                },
                {
                    "name": "_defaultBaseURI",
                    "type": "string",
                    "internalType": "string"
                }
            ],
            "stateMutability": "nonpayable"
        },
        {
            "type": "function",
            "name": "approve",
            "inputs": [
                {
                    "name": "to",
                    "type": "address",
                    "internalType": "address"
                },
                {
                    "name": "tokenId",
                    "type": "uint256",
                    "internalType": "uint256"
                }
            ],
            "outputs": [],
            "stateMutability": "nonpayable"
        },
        {
            "type": "function",
            "name": "balanceOf",
            "inputs": [
                {
                    "name": "owner",
                    "type": "address",
                    "internalType": "address"
                }
            ],
            "outputs": [
                {
                    "name": "",
                    "type": "uint256",
                    "internalType": "uint256"
                }
            ],
            "stateMutability": "view"
        },
        {
            "type": "function",
            "name": "baseURI",
            "inputs": [],
            "outputs": [
                {
                    "name": "",
                    "type": "string",
                    "internalType": "string"
                }
            ],
            "stateMutability": "view"
        },
        {
            "type": "function",
            "name": "burn",
            "inputs": [
                {
                    "name": "ticketId",
                    "type": "uint256",
                    "internalType": "uint256"
                }
            ],
            "outputs": [],
            "stateMutability": "nonpayable"
        },
        {
            "type": "function",
            "name": "exists",
            "inputs": [
                {
                    "name": "tokenId",
                    "type": "uint256",
                    "internalType": "uint256"
                }
            ],
            "outputs": [
                {
                    "name": "",
                    "type": "bool",
                    "internalType": "bool"
                }
            ],
            "stateMutability": "view"
        },
        {
            "type": "function",
            "name": "getApproved",
            "inputs": [
                {
                    "name": "tokenId",
                    "type": "uint256",
                    "internalType": "uint256"
                }
            ],
            "outputs": [
                {
                    "name": "",
                    "type": "address",
                    "internalType": "address"
                }
            ],
            "stateMutability": "view"
        },
        {
            "type": "function",
            "name": "isApprovedForAll",
            "inputs": [
                {
                    "name": "owner",
                    "type": "address",
                    "internalType": "address"
                },
                {
                    "name": "operator",
                    "type": "address",
                    "internalType": "address"
                }
            ],
            "outputs": [
                {
                    "name": "",
                    "type": "bool",
                    "internalType": "bool"
                }
            ],
            "stateMutability": "view"
        },
        {
            "type": "function",
            "name": "mint",
            "inputs": [
                {
                    "name": "to",
                    "type": "address",
                    "internalType": "address"
                }
            ],
            "outputs": [],
            "stateMutability": "nonpayable"
        },
        {
            "type": "function",
            "name": "name",
            "inputs": [],
            "outputs": [
                {
                    "name": "",
                    "type": "string",
                    "internalType": "string"
                }
            ],
            "stateMutability": "view"
        },
        {
            "type": "function",
            "name": "owner",
            "inputs": [],
            "outputs": [
                {
                    "name": "",
                    "type": "address",
                    "internalType": "address"
                }
            ],
            "stateMutability": "view"
        },
        {
            "type": "function",
            "name": "ownerOf",
            "inputs": [
                {
                    "name": "tokenId",
                    "type": "uint256",
                    "internalType": "uint256"
                }
            ],
            "outputs": [
                {
                    "name": "",
                    "type": "address",
                    "internalType": "address"
                }
            ],
            "stateMutability": "view"
        },
        {
            "type": "function",
            "name": "renounceOwnership",
            "inputs": [],
            "outputs": [],
            "stateMutability": "nonpayable"
        },
        {
            "type": "function",
            "name": "safeTransferFrom",
            "inputs": [
                {
                    "name": "from",
                    "type": "address",
                    "internalType": "address"
                },
                {
                    "name": "to",
                    "type": "address",
                    "internalType": "address"
                },
                {
                    "name": "tokenId",
                    "type": "uint256",
                    "internalType": "uint256"
                }
            ],
            "outputs": [],
            "stateMutability": "nonpayable"
        },
        {
            "type": "function",
            "name": "safeTransferFrom",
            "inputs": [
                {
                    "name": "from",
                    "type": "address",
                    "internalType": "address"
                },
                {
                    "name": "to",
                    "type": "address",
                    "internalType": "address"
                },
                {
                    "name": "tokenId",
                    "type": "uint256",
                    "internalType": "uint256"
                },
                {
                    "name": "data",
                    "type": "bytes",
                    "internalType": "bytes"
                }
            ],
            "outputs": [],
            "stateMutability": "nonpayable"
        },
        {
            "type": "function",
            "name": "setApprovalForAll",
            "inputs": [
                {
                    "name": "operator",
                    "type": "address",
                    "internalType": "address"
                },
                {
                    "name": "approved",
                    "type": "bool",
                    "internalType": "bool"
                }
            ],
            "outputs": [],
            "stateMutability": "nonpayable"
        },
        {
            "type": "function",
            "name": "setBaseURI",
            "inputs": [
                {
                    "name": "newBaseURI",
                    "type": "string",
                    "internalType": "string"
                }
            ],
            "outputs": [],
            "stateMutability": "nonpayable"
        },
        {
            "type": "function",
            "name": "setTicketBooth",
            "inputs": [
                {
                    "name": "_ticketBooth",
                    "type": "address",
                    "internalType": "address"
                }
            ],
            "outputs": [],
            "stateMutability": "nonpayable"
        },
        {
            "type": "function",
            "name": "supportsInterface",
            "inputs": [
                {
                    "name": "interfaceId",
                    "type": "bytes4",
                    "internalType": "bytes4"
                }
            ],
            "outputs": [
                {
                    "name": "",
                    "type": "bool",
                    "internalType": "bool"
                }
            ],
            "stateMutability": "view"
        },
        {
            "type": "function",
            "name": "symbol",
            "inputs": [],
            "outputs": [
                {
                    "name": "",
                    "type": "string",
                    "internalType": "string"
                }
            ],
            "stateMutability": "view"
        },
        {
            "type": "function",
            "name": "ticketBooth",
            "inputs": [],
            "outputs": [
                {
                    "name": "",
                    "type": "address",
                    "internalType": "address"
                }
            ],
            "stateMutability": "view"
        },
        {
            "type": "function",
            "name": "tokenIdCounter",
            "inputs": [],
            "outputs": [
                {
                    "name": "",
                    "type": "uint256",
                    "internalType": "uint256"
                }
            ],
            "stateMutability": "view"
        },
        {
            "type": "function",
            "name": "tokenURI",
            "inputs": [
                {
                    "name": "tokenId",
                    "type": "uint256",
                    "internalType": "uint256"
                }
            ],
            "outputs": [
                {
                    "name": "",
                    "type": "string",
                    "internalType": "string"
                }
            ],
            "stateMutability": "view"
        },
        {
            "type": "function",
            "name": "transferFrom",
            "inputs": [
                {
                    "name": "from",
                    "type": "address",
                    "internalType": "address"
                },
                {
                    "name": "to",
                    "type": "address",
                    "internalType": "address"
                },
                {
                    "name": "tokenId",
                    "type": "uint256",
                    "internalType": "uint256"
                }
            ],
            "outputs": [],
            "stateMutability": "nonpayable"
        },
        {
            "type": "function",
            "name": "transferOwnership",
            "inputs": [
                {
                    "name": "newOwner",
                    "type": "address",
                    "internalType": "address"
                }
            ],
            "outputs": [],
            "stateMutability": "nonpayable"
        },
        {
            "type": "event",
            "name": "Approval",
            "inputs": [
                {
                    "name": "owner",
                    "type": "address",
                    "indexed": true,
                    "internalType": "address"
                },
                {
                    "name": "approved",
                    "type": "address",
                    "indexed": true,
                    "internalType": "address"
                },
                {
                    "name": "tokenId",
                    "type": "uint256",
                    "indexed": true,
                    "internalType": "uint256"
                }
            ],
            "anonymous": false
        },
        {
            "type": "event",
            "name": "ApprovalForAll",
            "inputs": [
                {
                    "name": "owner",
                    "type": "address",
                    "indexed": true,
                    "internalType": "address"
                },
                {
                    "name": "operator",
                    "type": "address",
                    "indexed": true,
                    "internalType": "address"
                },
                {
                    "name": "approved",
                    "type": "bool",
                    "indexed": false,
                    "internalType": "bool"
                }
            ],
            "anonymous": false
        },
        {
            "type": "event",
            "name": "OwnershipTransferred",
            "inputs": [
                {
                    "name": "previousOwner",
                    "type": "address",
                    "indexed": true,
                    "internalType": "address"
                },
                {
                    "name": "newOwner",
                    "type": "address",
                    "indexed": true,
                    "internalType": "address"
                }
            ],
            "anonymous": false
        },
        {
            "type": "event",
            "name": "Transfer",
            "inputs": [
                {
                    "name": "from",
                    "type": "address",
                    "indexed": true,
                    "internalType": "address"
                },
                {
                    "name": "to",
                    "type": "address",
                    "indexed": true,
                    "internalType": "address"
                },
                {
                    "name": "tokenId",
                    "type": "uint256",
                    "indexed": true,
                    "internalType": "uint256"
                }
            ],
            "anonymous": false
        },
        {
            "type": "error",
            "name": "OnlyTicketBooth",
            "inputs": []
        }
    ],
    "bytecode": {
        "object": "0x60806040523480156200001157600080fd5b5060405162001d1c38038062001d1c83398101604081905262000034916200017b565b6040518060400160405280601581526020017f57696c6463617264204576656e74205469636b657400000000000000000000008152506040518060400160405280601581526020017f57494c44434152445f4556454e545f5449434b455400000000000000000000008152508160009081620000b1919062000300565b506001620000c0828262000300565b505050620000dd620000d76200010f60201b60201c565b62000113565b600980546001600160a01b0319166001600160a01b038416179055600862000106828262000300565b505050620003cc565b3390565b600680546001600160a01b038381166001600160a01b0319831681179093556040519116919082907f8be0079c531659141344cd1fd0a4f28419497f9722a3daafe3b4186f6b6457e090600090a35050565b634e487b7160e01b600052604160045260246000fd5b600080604083850312156200018f57600080fd5b82516001600160a01b0381168114620001a757600080fd5b602084810151919350906001600160401b0380821115620001c757600080fd5b818601915086601f830112620001dc57600080fd5b815181811115620001f157620001f162000165565b604051601f8201601f19908116603f011681019083821181831017156200021c576200021c62000165565b8160405282815289868487010111156200023557600080fd5b600093505b828410156200025957848401860151818501870152928501926200023a565b60008684830101528096505050505050509250929050565b600181811c908216806200028657607f821691505b602082108103620002a757634e487b7160e01b600052602260045260246000fd5b50919050565b601f821115620002fb57600081815260208120601f850160051c81016020861015620002d65750805b601f850160051c820191505b81811015620002f757828155600101620002e2565b5050505b505050565b81516001600160401b038111156200031c576200031c62000165565b62000334816200032d845462000271565b84620002ad565b602080601f8311600181146200036c5760008415620003535750858301515b600019600386901b1c1916600185901b178555620002f7565b600085815260208120601f198616915b828110156200039d578886015182559484019460019091019084016200037c565b5085821015620003bc5787850151600019600388901b60f8161c191681555b5050505050600190811b01905550565b61194080620003dc6000396000f3fe608060405234801561001057600080fd5b50600436106101585760003560e01c806370a08231116100c3578063a22cb4651161007c578063a22cb465146102c5578063b88d4fde146102d8578063c87b56dd146102eb578063e985e9c5146102fe578063f2fde38b1461033a578063fbabe3d81461034d57600080fd5b806370a0823114610267578063715018a6146102885780638da5cb5b1461029057806395d89b41146102a157806398bdf6f5146102a95780639b602d60146102b257600080fd5b806342966c681161011557806342966c68146102005780634f558e791461021357806355f804b3146102265780636352211e146102395780636a6278421461024c5780636c0360eb1461025f57600080fd5b806301ffc9a71461015d57806306fdde0314610185578063081812fc1461019a578063095ea7b3146101c557806323b872dd146101da57806342842e0e146101ed575b600080fd5b61017061016b3660046112b5565b610360565b60405190151581526020015b60405180910390f35b61018d6103b2565b60405161017c9190611329565b6101ad6101a836600461133c565b610444565b6040516001600160a01b03909116815260200161017c565b6101d86101d3366004611371565b61046b565b005b6101d86101e836600461139b565b610585565b6101d86101fb36600461139b565b6105b6565b6101d861020e36600461133c565b6105d1565b61017061022136600461133c565b610608565b6101d86102343660046113d7565b610627565b6101ad61024736600461133c565b61063c565b6101d861025a366004611449565b61069c565b61018d6106e4565b61027a610275366004611449565b610772565b60405190815260200161017c565b6101d86107f8565b6006546001600160a01b03166101ad565b61018d61080c565b61027a60075481565b6009546101ad906001600160a01b031681565b6101d86102d3366004611464565b61081b565b6101d86102e63660046114b6565b61082a565b61018d6102f936600461133c565b610862565b61017061030c366004611592565b6001600160a01b03918216600090815260056020908152604080832093909416825291909152205460ff1690565b6101d8610348366004611449565b6108c9565b6101d861035b366004611449565b61093f565b60006001600160e01b031982166380ac58cd60e01b148061039157506001600160e01b03198216635b5e139f60e01b145b806103ac57506301ffc9a760e01b6001600160e01b03198316145b92915050565b6060600080546103c1906115c5565b80601f01602080910402602001604051908101604052809291908181526020018280546103ed906115c5565b801561043a5780601f1061040f5761010080835404028352916020019161043a565b820191906000526020600020905b81548152906001019060200180831161041d57829003601f168201915b5050505050905090565b600061044f82610969565b506000908152600460205260409020546001600160a01b031690565b60006104768261063c565b9050806001600160a01b0316836001600160a01b0316036104e85760405162461bcd60e51b815260206004820152602160248201527f4552433732313a20617070726f76616c20746f2063757272656e74206f776e656044820152603960f91b60648201526084015b60405180910390fd5b336001600160a01b03821614806105045750610504813361030c565b6105765760405162461bcd60e51b815260206004820152603d60248201527f4552433732313a20617070726f76652063616c6c6572206973206e6f7420746f60448201527f6b656e206f776e6572206f7220617070726f76656420666f7220616c6c00000060648201526084016104df565b61058083836109c8565b505050565b61058f3382610a36565b6105ab5760405162461bcd60e51b81526004016104df906115ff565b610580838383610ab5565b6105808383836040518060200160405280600081525061082a565b6009546001600160a01b031633146105fc576040516383224d4f60e01b815260040160405180910390fd5b61060581610c19565b50565b6000818152600260205260408120546001600160a01b031615156103ac565b61062f610cae565b600861058082848361169a565b6000818152600260205260408120546001600160a01b0316806103ac5760405162461bcd60e51b8152602060048201526018602482015277115490cdcc8c4e881a5b9d985b1a59081d1bdad95b88125160421b60448201526064016104df565b6009546001600160a01b031633146106c7576040516383224d4f60e01b815260040160405180910390fd5b610605816007600081546106da9061175b565b9182905550610d08565b600880546106f1906115c5565b80601f016020809104026020016040519081016040528092919081815260200182805461071d906115c5565b801561076a5780601f1061073f5761010080835404028352916020019161076a565b820191906000526020600020905b81548152906001019060200180831161074d57829003601f168201915b505050505081565b60006001600160a01b0382166107dc5760405162461bcd60e51b815260206004820152602960248201527f4552433732313a2061646472657373207a65726f206973206e6f7420612076616044820152683634b21037bbb732b960b91b60648201526084016104df565b506001600160a01b031660009081526003602052604090205490565b610800610cae565b61080a6000610d22565b565b6060600180546103c1906115c5565b610826338383610d74565b5050565b6108343383610a36565b6108505760405162461bcd60e51b81526004016104df906115ff565b61085c84848484610e42565b50505050565b606061086d82610969565b60006008805461087c906115c5565b90501161089857604051806020016040528060008152506103ac565b60086108a383610e75565b6040516020016108b4929190611782565b60405160208183030381529060405292915050565b6108d1610cae565b6001600160a01b0381166109365760405162461bcd60e51b815260206004820152602660248201527f4f776e61626c653a206e6577206f776e657220697320746865207a65726f206160448201526564647265737360d01b60648201526084016104df565b61060581610d22565b610947610cae565b600980546001600160a01b0319166001600160a01b0392909216919091179055565b6000818152600260205260409020546001600160a01b03166106055760405162461bcd60e51b8152602060048201526018602482015277115490cdcc8c4e881a5b9d985b1a59081d1bdad95b88125160421b60448201526064016104df565b600081815260046020526040902080546001600160a01b0319166001600160a01b03841690811790915581906109fd8261063c565b6001600160a01b03167f8c5be1e5ebec7d5bd14f71427d1e84f3dd0314c0f7b2291e5b200ac8c7c3b92560405160405180910390a45050565b600080610a428361063c565b9050806001600160a01b0316846001600160a01b03161480610a8957506001600160a01b0380821660009081526005602090815260408083209388168352929052205460ff165b80610aad5750836001600160a01b0316610aa284610444565b6001600160a01b0316145b949350505050565b826001600160a01b0316610ac88261063c565b6001600160a01b031614610aee5760405162461bcd60e51b81526004016104df90611819565b6001600160a01b038216610b505760405162461bcd60e51b8152602060048201526024808201527f4552433732313a207472616e7366657220746f20746865207a65726f206164646044820152637265737360e01b60648201526084016104df565b826001600160a01b0316610b638261063c565b6001600160a01b031614610b895760405162461bcd60e51b81526004016104df90611819565b600081815260046020908152604080832080546001600160a01b03199081169091556001600160a01b0387811680865260038552838620805460001901905590871680865283862080546001019055868652600290945282852080549092168417909155905184937fddf252ad1be2c89b69c2b068fc378daa952ba7f163c4a11628f55a4df523b3ef91a4505050565b6000610c248261063c565b9050610c2f8261063c565b600083815260046020908152604080832080546001600160a01b03199081169091556001600160a01b0385168085526003845282852080546000190190558785526002909352818420805490911690555192935084927fddf252ad1be2c89b69c2b068fc378daa952ba7f163c4a11628f55a4df523b3ef908390a45050565b6006546001600160a01b0316331461080a5760405162461bcd60e51b815260206004820181905260248201527f4f776e61626c653a2063616c6c6572206973206e6f7420746865206f776e657260448201526064016104df565b610826828260405180602001604052806000815250610f08565b600680546001600160a01b038381166001600160a01b0319831681179093556040519116919082907f8be0079c531659141344cd1fd0a4f28419497f9722a3daafe3b4186f6b6457e090600090a35050565b816001600160a01b0316836001600160a01b031603610dd55760405162461bcd60e51b815260206004820152601960248201527f4552433732313a20617070726f766520746f2063616c6c65720000000000000060448201526064016104df565b6001600160a01b03838116600081815260056020908152604080832094871680845294825291829020805460ff191686151590811790915591519182527f17307eab39ab6107e8899845ad3d59bd9653f200f220920489ca2b5937696c31910160405180910390a3505050565b610e4d848484610ab5565b610e5984848484610f3b565b61085c5760405162461bcd60e51b81526004016104df9061185e565b60606000610e828361103c565b600101905060008167ffffffffffffffff811115610ea257610ea26114a0565b6040519080825280601f01601f191660200182016040528015610ecc576020820181803683370190505b5090508181016020015b600019016f181899199a1a9b1b9c1cb0b131b232b360811b600a86061a8153600a8504945084610ed657509392505050565b610f128383611114565b610f1f6000848484610f3b565b6105805760405162461bcd60e51b81526004016104df9061185e565b60006001600160a01b0384163b1561103157604051630a85bd0160e11b81526001600160a01b0385169063150b7a0290610f7f9033908990889088906004016118b0565b6020604051808303816000875af1925050508015610fba575060408051601f3d908101601f19168201909252610fb7918101906118ed565b60015b611017573d808015610fe8576040519150601f19603f3d011682016040523d82523d6000602084013e610fed565b606091505b50805160000361100f5760405162461bcd60e51b81526004016104df9061185e565b805181602001fd5b6001600160e01b031916630a85bd0160e11b149050610aad565b506001949350505050565b60008072184f03e93ff9f4daa797ed6e38ed64bf6a1f0160401b831061107b5772184f03e93ff9f4daa797ed6e38ed64bf6a1f0160401b830492506040015b6d04ee2d6d415b85acef810000000083106110a7576d04ee2d6d415b85acef8100000000830492506020015b662386f26fc1000083106110c557662386f26fc10000830492506010015b6305f5e10083106110dd576305f5e100830492506008015b61271083106110f157612710830492506004015b60648310611103576064830492506002015b600a83106103ac5760010192915050565b6001600160a01b03821661116a5760405162461bcd60e51b815260206004820181905260248201527f4552433732313a206d696e7420746f20746865207a65726f206164647265737360448201526064016104df565b6000818152600260205260409020546001600160a01b0316156111cf5760405162461bcd60e51b815260206004820152601c60248201527f4552433732313a20746f6b656e20616c7265616479206d696e7465640000000060448201526064016104df565b6000818152600260205260409020546001600160a01b0316156112345760405162461bcd60e51b815260206004820152601c60248201527f4552433732313a20746f6b656e20616c7265616479206d696e7465640000000060448201526064016104df565b6001600160a01b038216600081815260036020908152604080832080546001019055848352600290915280822080546001600160a01b0319168417905551839291907fddf252ad1be2c89b69c2b068fc378daa952ba7f163c4a11628f55a4df523b3ef908290a45050565b6001600160e01b03198116811461060557600080fd5b6000602082840312156112c757600080fd5b81356112d28161129f565b9392505050565b60005b838110156112f45781810151838201526020016112dc565b50506000910152565b600081518084526113158160208601602086016112d9565b601f01601f19169290920160200192915050565b6020815260006112d260208301846112fd565b60006020828403121561134e57600080fd5b5035919050565b80356001600160a01b038116811461136c57600080fd5b919050565b6000806040838503121561138457600080fd5b61138d83611355565b946020939093013593505050565b6000806000606084860312156113b057600080fd5b6113b984611355565b92506113c760208501611355565b9150604084013590509250925092565b600080602083850312156113ea57600080fd5b823567ffffffffffffffff8082111561140257600080fd5b818501915085601f83011261141657600080fd5b81358181111561142557600080fd5b86602082850101111561143757600080fd5b60209290920196919550909350505050565b60006020828403121561145b57600080fd5b6112d282611355565b6000806040838503121561147757600080fd5b61148083611355565b91506020830135801515811461149557600080fd5b809150509250929050565b634e487b7160e01b600052604160045260246000fd5b600080600080608085870312156114cc57600080fd5b6114d585611355565b93506114e360208601611355565b925060408501359150606085013567ffffffffffffffff8082111561150757600080fd5b818701915087601f83011261151b57600080fd5b81358181111561152d5761152d6114a0565b604051601f8201601f19908116603f01168101908382118183101715611555576115556114a0565b816040528281528a602084870101111561156e57600080fd5b82602086016020830137600060208483010152809550505050505092959194509250565b600080604083850312156115a557600080fd5b6115ae83611355565b91506115bc60208401611355565b90509250929050565b600181811c908216806115d957607f821691505b6020821081036115f957634e487b7160e01b600052602260045260246000fd5b50919050565b6020808252602d908201527f4552433732313a2063616c6c6572206973206e6f7420746f6b656e206f776e6560408201526c1c881bdc88185c1c1c9bdd9959609a1b606082015260800190565b601f82111561058057600081815260208120601f850160051c810160208610156116735750805b601f850160051c820191505b818110156116925782815560010161167f565b505050505050565b67ffffffffffffffff8311156116b2576116b26114a0565b6116c6836116c083546115c5565b8361164c565b6000601f8411600181146116fa57600085156116e25750838201355b600019600387901b1c1916600186901b178355611754565b600083815260209020601f19861690835b8281101561172b578685013582556020948501946001909201910161170b565b50868210156117485760001960f88860031b161c19848701351681555b505060018560011b0183555b5050505050565b60006001820161177b57634e487b7160e01b600052601160045260246000fd5b5060010190565b6000808454611790816115c5565b600182811680156117a857600181146117bd576117ec565b60ff19841687528215158302870194506117ec565b8860005260208060002060005b858110156117e35781548a8201529084019082016117ca565b50505082870194505b5050505083516118008183602088016112d9565b64173539b7b760d91b9101908152600501949350505050565b60208082526025908201527f4552433732313a207472616e736665722066726f6d20696e636f72726563742060408201526437bbb732b960d91b606082015260800190565b60208082526032908201527f4552433732313a207472616e7366657220746f206e6f6e20455243373231526560408201527131b2b4bb32b91034b6b83632b6b2b73a32b960711b606082015260800190565b6001600160a01b03858116825284166020820152604081018390526080606082018190526000906118e3908301846112fd565b9695505050505050565b6000602082840312156118ff57600080fd5b81516112d28161129f56fea2646970667358221220b3ba5f186a6cd384538aeaa341de1e4fe398d43de73c8afb469519464715a8a164736f6c63430008130033",
        "linkReferences": {}
    },
    "methodIdentifiers": {
        "approve(address,uint256)": "095ea7b3",
        "balanceOf(address)": "70a08231",
        "baseURI()": "6c0360eb",
        "burn(uint256)": "42966c68",
        "exists(uint256)": "4f558e79",
        "getApproved(uint256)": "081812fc",
        "isApprovedForAll(address,address)": "e985e9c5",
        "mint(address)": "6a627842",
        "name()": "06fdde03",
        "owner()": "8da5cb5b",
        "ownerOf(uint256)": "6352211e",
        "renounceOwnership()": "715018a6",
        "safeTransferFrom(address,address,uint256)": "42842e0e",
        "safeTransferFrom(address,address,uint256,bytes)": "b88d4fde",
        "setApprovalForAll(address,bool)": "a22cb465",
        "setBaseURI(string)": "55f804b3",
        "setTicketBooth(address)": "fbabe3d8",
        "supportsInterface(bytes4)": "01ffc9a7",
        "symbol()": "95d89b41",
        "ticketBooth()": "9b602d60",
        "tokenIdCounter()": "98bdf6f5",
        "tokenURI(uint256)": "c87b56dd",
        "transferFrom(address,address,uint256)": "23b872dd",
        "transferOwnership(address)": "f2fde38b"
    },
    "id": 54
}