{
    "abi": [
        {
            "inputs": [
                {
                    "internalType": "address",
                    "name": "_wildeventRegistryContract",
                    "type": "address"
                }
            ],
            "stateMutability": "nonpayable",
            "type": "constructor"
        },
        {
            "inputs": [],
            "name": "NoWildfileIds",
            "type": "error"
        },
        {
            "inputs": [],
            "name": "OnlyWildeventRegistryContract",
            "type": "error"
        },
        {
            "inputs": [],
            "name": "ZeroAddressNotAllowed",
            "type": "error"
        },
        {
            "anonymous": false,
            "inputs": [
                {
                    "indexed": false,
                    "internalType": "uint32[]",
                    "name": "wildfileIds",
                    "type": "uint32[]"
                },
                {
                    "indexed": false,
                    "internalType": "uint256",
                    "name": "tokenId",
                    "type": "uint256"
                },
                {
                    "indexed": false,
                    "internalType": "address",
                    "name": "contractAddress",
                    "type": "address"
                },
                {
                    "indexed": false,
                    "internalType": "uint32",
                    "name": "chainId",
                    "type": "uint32"
                },
                {
                    "indexed": false,
                    "internalType": "string",
                    "name": "reason",
                    "type": "string"
                },
                {
                    "indexed": false,
                    "internalType": "uint64",
                    "name": "wildeventId",
                    "type": "uint64"
                }
            ],
            "name": "AirdropAwarded",
            "type": "event"
        },
        {
            "inputs": [],
            "name": "SCHEMA",
            "outputs": [
                {
                    "internalType": "string",
                    "name": "",
                    "type": "string"
                }
            ],
            "stateMutability": "view",
            "type": "function"
        },
        {
            "inputs": [],
            "name": "TYPE",
            "outputs": [
                {
                    "internalType": "string",
                    "name": "",
                    "type": "string"
                }
            ],
            "stateMutability": "view",
            "type": "function"
        },
        {
            "inputs": [
                {
                    "internalType": "bytes",
                    "name": "data",
                    "type": "bytes"
                }
            ],
            "name": "decode",
            "outputs": [
                {
                    "internalType": "uint256",
                    "name": "",
                    "type": "uint256"
                },
                {
                    "internalType": "address",
                    "name": "",
                    "type": "address"
                },
                {
                    "internalType": "uint32",
                    "name": "",
                    "type": "uint32"
                },
                {
                    "internalType": "string",
                    "name": "",
                    "type": "string"
                },
                {
                    "internalType": "uint64",
                    "name": "",
                    "type": "uint64"
                }
            ],
            "stateMutability": "pure",
            "type": "function"
        },
        {
            "inputs": [
                {
                    "internalType": "uint256",
                    "name": "tokenId",
                    "type": "uint256"
                },
                {
                    "internalType": "address",
                    "name": "contractAddress",
                    "type": "address"
                },
                {
                    "internalType": "uint32",
                    "name": "chainId",
                    "type": "uint32"
                },
                {
                    "internalType": "string",
                    "name": "reason",
                    "type": "string"
                },
                {
                    "internalType": "uint64",
                    "name": "wildeventId",
                    "type": "uint64"
                }
            ],
            "name": "encode",
            "outputs": [
                {
                    "internalType": "bytes",
                    "name": "data",
                    "type": "bytes"
                }
            ],
            "stateMutability": "pure",
            "type": "function"
        },
        {
            "inputs": [],
            "name": "getSchema",
            "outputs": [
                {
                    "internalType": "string",
                    "name": "",
                    "type": "string"
                }
            ],
            "stateMutability": "pure",
            "type": "function"
        },
        {
            "inputs": [],
            "name": "getType",
            "outputs": [
                {
                    "internalType": "string",
                    "name": "",
                    "type": "string"
                }
            ],
            "stateMutability": "pure",
            "type": "function"
        },
        {
            "inputs": [
                {
                    "internalType": "uint32[]",
                    "name": "wildfileIds",
                    "type": "uint32[]"
                },
                {
                    "internalType": "bytes",
                    "name": "data",
                    "type": "bytes"
                }
            ],
            "name": "onWildevent",
            "outputs": [],
            "stateMutability": "nonpayable",
            "type": "function"
        },
        {
            "inputs": [
                {
                    "internalType": "address",
                    "name": "msgSender",
                    "type": "address"
                }
            ],
            "name": "onlyWildeventRegistryContract",
            "outputs": [],
            "stateMutability": "view",
            "type": "function"
        },
        {
            "inputs": [],
            "name": "wildeventRegistryContract",
            "outputs": [
                {
                    "internalType": "address",
                    "name": "",
                    "type": "address"
                }
            ],
            "stateMutability": "view",
            "type": "function"
        }
    ],
    "bytecode": {
        "object": "0x60a060405234801561001057600080fd5b50604051610e74380380610e7483398101604081905261002f91610067565b6001600160a01b038116610056576040516342bcdf7f60e11b815260040160405180910390fd5b6001600160a01b0316608052610097565b60006020828403121561007957600080fd5b81516001600160a01b038116811461009057600080fd5b9392505050565b608051610dbc6100b86000396000818160d201526103740152610dbc6000f3fe608060405234801561001057600080fd5b50600436106100935760003560e01c806394a98dcc1161006657806394a98dcc14610129578063ad71b2d81461013c578063b4a8b1b81461014f578063bb24fe8a14610157578063e5c5e9a31461017d57600080fd5b806315dae03e14610098578063437e2e51146100cd5780636b122fe01461010c578063827de40314610114575b600080fd5b604080518082019091526007815266041697264726f760cc1b60208201525b6040516100c49190610806565b60405180910390f35b6100f47f000000000000000000000000000000000000000000000000000000000000000081565b6040516001600160a01b0390911681526020016100c4565b6100b76101a1565b610127610122366004610820565b6101c1565b005b6100b76101373660046109a1565b61028b565b61012761014a366004610a3d565b610372565b6100b76103c7565b6100b760405180604001604052806007815260200166041697264726f760cc1b81525081565b61019061018b366004610a58565b6103e3565b6040516100c4959493929190610aa9565b60606040518060800160405280605b8152602001610d2c605b9139905090565b6101ca33610372565b60018310156101ec5760405163133481bd60e11b815260040160405180910390fd5b600080600080600061023387878080601f0160208091040260200160405190810160405280939291908181526020018383808284376000920191909152506103e392505050565b945094509450945094507fa838f8cdb8b363157d745d10c7c583071da3b0205dee989d5632282cd00cbcb2898987878787876040516102789796959493929190610afb565b60405180910390a1505050505050505050565b60608061029787610447565b6040516020016102a8929190610b94565b6040516020818303038152906040529050806102c386610472565b6040516020016102d4929190610b94565b6040516020818303038152906040529050806102ef85610497565b604051602001610300929190610b94565b60405160208183030381529060405290508061031b846104b9565b60405160200161032c929190610b94565b6040516020818303038152906040529050806103478361052f565b604051602001610358929190610b94565b604051602081830303815290604052905095945050505050565b7f00000000000000000000000000000000000000000000000000000000000000006001600160a01b0316816001600160a01b0316146103c4576040516377f1b69160e11b815260040160405180910390fd5b50565b6040518060800160405280605b8152602001610d2c605b913981565b600080806060818080808085816103fa8c82610551565b965094506104088c87610593565b965093506104168c876105cb565b965092506104248c87610603565b965091506104328c8761066c565b50949c939b5091995097509195509350505050565b60608160405160200161045c91815260200190565b6040516020818303038152906040529050919050565b604051606082811b6bffffffffffffffffffffffff191660208301529060340161045c565b6040516001600160e01b031960e083901b16602082015260609060240161045c565b6060600082519050818160e01b6040516020016104d7929190610bc3565b604051602081830303815290604052915081836040516020016104fa9190610bf2565b60408051601f19818403018152908290526105189291602001610b94565b604051602081830303815290604052915050919050565b6040516001600160c01b031960c083901b16602082015260609060280161045c565b6000806020816105698664ffffffffff8716846106a4565b61057290610c0e565b9050806105868364ffffffffff8816610c4b565b9350935050509250929050565b6000806014816105ab8664ffffffffff8716846106a4565b6105b490610c64565b60601c9050806105868364ffffffffff8816610c4b565b6000806004816105e38664ffffffffff8716846106a4565b6105ec90610ca0565b60e01c9050806105868364ffffffffff8816610c4b565b606060008061061b858564ffffffffff1660046106a4565b61062490610ca0565b60e01c9050600061064d8661063a876004610cd3565b64ffffffffff168463ffffffff166106a4565b90508063ffffffff8316610662876004610cd3565b6105869190610cd3565b6000806008816106848664ffffffffff8716846106a4565b61068d90610cf8565b60c01c9050806105868364ffffffffff8816610c4b565b6060816106b281601f610c4b565b10156106f65760405162461bcd60e51b815260206004820152600e60248201526d736c6963655f6f766572666c6f7760901b60448201526064015b60405180910390fd5b6107008284610c4b565b845110156107445760405162461bcd60e51b8152602060048201526011602482015270736c6963655f6f75744f66426f756e647360781b60448201526064016106ed565b60608215801561076357604051915060008252602082016040526107ad565b6040519150601f8416801560200281840101858101878315602002848b0101015b8183101561079c578051835260209283019201610784565b5050858452601f01601f1916604052505b50949350505050565b60005b838110156107d15781810151838201526020016107b9565b50506000910152565b600081518084526107f28160208601602086016107b6565b601f01601f19169290920160200192915050565b60208152600061081960208301846107da565b9392505050565b6000806000806040858703121561083657600080fd5b843567ffffffffffffffff8082111561084e57600080fd5b818701915087601f83011261086257600080fd5b81358181111561087157600080fd5b8860208260051b850101111561088657600080fd5b6020928301965094509086013590808211156108a157600080fd5b818701915087601f8301126108b557600080fd5b8135818111156108c457600080fd5b8860208285010111156108d657600080fd5b95989497505060200194505050565b80356001600160a01b03811681146108fc57600080fd5b919050565b803563ffffffff811681146108fc57600080fd5b634e487b7160e01b600052604160045260246000fd5b600067ffffffffffffffff8084111561094657610946610915565b604051601f8501601f19908116603f0116810190828211818310171561096e5761096e610915565b8160405280935085815286868601111561098757600080fd5b858560208301376000602087830101525050509392505050565b600080600080600060a086880312156109b957600080fd5b853594506109c9602087016108e5565b93506109d760408701610901565b9250606086013567ffffffffffffffff808211156109f457600080fd5b818801915088601f830112610a0857600080fd5b610a178983356020850161092b565b9350608088013591508082168214610a2e57600080fd5b50809150509295509295909350565b600060208284031215610a4f57600080fd5b610819826108e5565b600060208284031215610a6a57600080fd5b813567ffffffffffffffff811115610a8157600080fd5b8201601f81018413610a9257600080fd5b610aa18482356020840161092b565b949350505050565b8581526001600160a01b038516602082015263ffffffff8416604082015260a060608201819052600090610adf908301856107da565b905067ffffffffffffffff831660808301529695505050505050565b60c0808252810187905260008860e08301825b8a811015610b395763ffffffff610b2484610901565b16825260209283019290910190600101610b0e565b50602084018990526001600160a01b038816604085015263ffffffff871660608501528381036080850152610b6e81876107da565b92505050610b8860a083018467ffffffffffffffff169052565b98975050505050505050565b60008351610ba68184602088016107b6565b835190830190610bba8183602088016107b6565b01949350505050565b60008351610bd58184602088016107b6565b6001600160e01b0319939093169190920190815260040192915050565b60008251610c048184602087016107b6565b9190910192915050565b80516020808301519190811015610c2f576000198160200360031b1b821691505b50919050565b634e487b7160e01b600052601160045260246000fd5b80820180821115610c5e57610c5e610c35565b92915050565b805160208201516bffffffffffffffffffffffff198082169291906014831015610c985780818460140360031b1b83161693505b505050919050565b805160208201516001600160e01b03198082169291906004831015610c985760049290920360031b82901b161692915050565b64ffffffffff818116838216019080821115610cf157610cf1610c35565b5092915050565b805160208201516001600160c01b03198082169291906008831015610c985760089290920360031b82901b16169291505056fe75696e7432353620746f6b656e49642c206164647265737320636f6e7472616374416464726573732c2075696e74333220636861696e49642c20737472696e6720726561736f6e2c2075696e7436342077696c646576656e744964a264697066735822122068d53017849b0fc589c5e145f53435ba5137053a9c91e71e8412af7fb0f27d3864736f6c63430008130033",
        "linkReferences": {}
    },
    "methodIdentifiers": {
        "SCHEMA()": "b4a8b1b8",
        "TYPE()": "bb24fe8a",
        "decode(bytes)": "e5c5e9a3",
        "encode(uint256,address,uint32,string,uint64)": "94a98dcc",
        "getSchema()": "6b122fe0",
        "getType()": "15dae03e",
        "onWildevent(uint32[],bytes)": "827de403",
        "onlyWildeventRegistryContract(address)": "ad71b2d8",
        "wildeventRegistryContract()": "437e2e51"
    },
    "id": 47
}