{
    "abi": [
        {
            "inputs": [
                {
                    "internalType": "address",
                    "name": "_wildeventRegistryContract",
                    "type": "address"
                }
            ],
            "stateMutability": "nonpayable",
            "type": "constructor"
        },
        {
            "inputs": [],
            "name": "OnlyWildeventRegistryContract",
            "type": "error"
        },
        {
            "inputs": [],
            "name": "ZeroAddressNotAllowed",
            "type": "error"
        },
        {
            "anonymous": false,
            "inputs": [
                {
                    "indexed": false,
                    "internalType": "uint32[]",
                    "name": "wildfileIds",
                    "type": "uint32[]"
                },
                {
                    "indexed": false,
                    "internalType": "uint64",
                    "name": "discordEventWildeventId",
                    "type": "uint64"
                },
                {
                    "indexed": false,
                    "internalType": "uint16[]",
                    "name": "wildfileMinutesAttended",
                    "type": "uint16[]"
                }
            ],
            "name": "DiscordEventAttendanceRecorded",
            "type": "event"
        },
        {
            "inputs": [],
            "name": "SCHEMA",
            "outputs": [
                {
                    "internalType": "string",
                    "name": "",
                    "type": "string"
                }
            ],
            "stateMutability": "view",
            "type": "function"
        },
        {
            "inputs": [],
            "name": "TYPE",
            "outputs": [
                {
                    "internalType": "string",
                    "name": "",
                    "type": "string"
                }
            ],
            "stateMutability": "view",
            "type": "function"
        },
        {
            "inputs": [
                {
                    "internalType": "bytes",
                    "name": "data",
                    "type": "bytes"
                }
            ],
            "name": "decode",
            "outputs": [
                {
                    "internalType": "uint64",
                    "name": "",
                    "type": "uint64"
                },
                {
                    "internalType": "uint16[]",
                    "name": "",
                    "type": "uint16[]"
                }
            ],
            "stateMutability": "pure",
            "type": "function"
        },
        {
            "inputs": [
                {
                    "internalType": "uint64",
                    "name": "discordEventWildeventId",
                    "type": "uint64"
                },
                {
                    "internalType": "uint16[]",
                    "name": "wildfileMinutesAttended",
                    "type": "uint16[]"
                }
            ],
            "name": "encode",
            "outputs": [
                {
                    "internalType": "bytes",
                    "name": "data",
                    "type": "bytes"
                }
            ],
            "stateMutability": "pure",
            "type": "function"
        },
        {
            "inputs": [],
            "name": "getSchema",
            "outputs": [
                {
                    "internalType": "string",
                    "name": "",
                    "type": "string"
                }
            ],
            "stateMutability": "pure",
            "type": "function"
        },
        {
            "inputs": [],
            "name": "getType",
            "outputs": [
                {
                    "internalType": "string",
                    "name": "",
                    "type": "string"
                }
            ],
            "stateMutability": "pure",
            "type": "function"
        },
        {
            "inputs": [
                {
                    "internalType": "uint32[]",
                    "name": "wildfileIds",
                    "type": "uint32[]"
                },
                {
                    "internalType": "bytes",
                    "name": "data",
                    "type": "bytes"
                }
            ],
            "name": "onWildevent",
            "outputs": [],
            "stateMutability": "nonpayable",
            "type": "function"
        },
        {
            "inputs": [
                {
                    "internalType": "address",
                    "name": "msgSender",
                    "type": "address"
                }
            ],
            "name": "onlyWildeventRegistryContract",
            "outputs": [],
            "stateMutability": "view",
            "type": "function"
        },
        {
            "inputs": [],
            "name": "wildeventRegistryContract",
            "outputs": [
                {
                    "internalType": "address",
                    "name": "",
                    "type": "address"
                }
            ],
            "stateMutability": "view",
            "type": "function"
        }
    ],
    "bytecode": {
        "object": "0x60a060405234801561001057600080fd5b50604051610ef8380380610ef883398101604081905261002f91610040565b6001600160a01b0316608052610070565b60006020828403121561005257600080fd5b81516001600160a01b038116811461006957600080fd5b9392505050565b608051610e676100916000396000818160f801526102ff0152610e676000f3fe608060405234801561001057600080fd5b50600436106100935760003560e01c8063827de40311610066578063827de4031461013a578063ad71b2d81461014f578063b4a8b1b814610162578063bb24fe8a1461016a578063e5c5e9a31461019f57600080fd5b806312d999f61461009857806315dae03e146100c1578063437e2e51146100f35780636b122fe014610132575b600080fd5b6100ab6100a63660046108b7565b6101c0565b6040516100b891906109da565b60405180910390f35b604080518082019091526016815275446973636f72644576656e74417474656e64616e636560501b60208201526100ab565b61011a7f000000000000000000000000000000000000000000000000000000000000000081565b6040516001600160a01b0390911681526020016100b8565b6100ab610249565b61014d6101483660046109f4565b610269565b005b61014d61015d366004610ab9565b6102fd565b6100ab610352565b6100ab60405180604001604052806016815260200175446973636f72644576656e74417474656e64616e636560501b81525081565b6101b26101ad366004610ae2565b61036e565b6040516100b8929190610bb6565b6060806101f4846040805160c09290921b6001600160c01b0319166020830152805160088184030181526028909201905290565b604051602001610205929190610bd9565b6040516020818303038152906040529050806102208361039d565b604051602001610231929190610bd9565b60405160208183030381529060405290505b92915050565b6060604051806060016040528060408152602001610df260409139905090565b610272336102fd565b6000806102b484848080601f01602080910402602001604051908101604052809392919081815260200183838082843760009201919091525061036e92505050565b915091507f2f937ebf2572ca40d39091b6ae1872f79684f61eb52236a0ce4451d399a889ec868684846040516102ed9493929190610c08565b60405180910390a1505050505050565b7f00000000000000000000000000000000000000000000000000000000000000006001600160a01b0316816001600160a01b03161461034f576040516377f1b69160e11b815260040160405180910390fd5b50565b604051806060016040528060408152602001610df26040913981565b6000606060008060606103818684610462565b9350915061038f86846104a7565b509196919550909350505050565b60606000600290506000835167ffffffffffffffff8111156103c1576103c1610870565b6040519080825280602002602001820160405280156103ea578160200160208202803683370190505b50905060005b845181101561044f5784818151811061040b5761040b610c7d565b602002602001015160f01b6001600160f01b03191682828151811061043257610432610c7d565b60209081029190910101528061044781610ca9565b9150506103f0565b5061045a8183610573565b949350505050565b60008060088161047a8664ffffffffff87168461063a565b61048390610cc2565b60c01c90508061049a8364ffffffffff8816610cf9565b9350935050509250929050565b60606000600281806104ba87848861074c565b915091506000825167ffffffffffffffff8111156104da576104da610870565b604051908082528060200260200182016040528015610503578160200160208202803683370190505b50905060005b83518110156105665783818151811061052457610524610c7d565b602002602001015160f01c82828151811061054157610541610c7d565b61ffff909216602092830291909101909101528061055e81610ca9565b915050610509565b5097909650945050505050565b6060600083519050818160e01b604051602001610591929190610d0c565b604051602081830303815290604052915060005b8163ffffffff1681101561063257826105fd8683815181106105c9576105c9610c7d565b60200260200101516040516020016105e391815260200190565b60405160208183030381529060405260008760ff1661063a565b60405160200161060e929190610bd9565b6040516020818303038152906040529250808061062a90610ca9565b9150506105a5565b505092915050565b60608161064881601f610cf9565b101561068c5760405162461bcd60e51b815260206004820152600e60248201526d736c6963655f6f766572666c6f7760901b60448201526064015b60405180910390fd5b6106968284610cf9565b845110156106da5760405162461bcd60e51b8152602060048201526011602482015270736c6963655f6f75744f66426f756e647360781b6044820152606401610683565b6060821580156106f95760405191506000825260208201604052610743565b6040519150601f8416801560200281840101858101878315602002848b0101015b8183101561073257805183526020928301920161071a565b5050858452601f01601f1916604052505b50949350505050565b6060600080610764868564ffffffffff16600461063a565b61076d90610d3b565b60e01c905060008167ffffffffffffffff81111561078d5761078d610870565b6040519080825280602002602001820160405280156107b6578160200160208202803683370190505b50905060005b8263ffffffff1681101561083857610800886107db8360ff8b16610d6e565b6107ed64ffffffffff8a166004610cf9565b6107f79190610cf9565b8960ff1661063a565b61080990610d85565b82828151811061081b5761081b610c7d565b60209081029190910101528061083081610ca9565b9150506107bc565b508061084760ff881684610dac565b63ffffffff16610858876004610dcc565b6108629190610dcc565b935093505050935093915050565b634e487b7160e01b600052604160045260246000fd5b604051601f8201601f1916810167ffffffffffffffff811182821017156108af576108af610870565b604052919050565b600080604083850312156108ca57600080fd5b823567ffffffffffffffff80821682146108e357600080fd5b90925060209084820135818111156108fa57600080fd5b8501601f8101871361090b57600080fd5b80358281111561091d5761091d610870565b8060051b925061092e848401610886565b818152928201840192848101908985111561094857600080fd5b928501925b8484101561097a578335925061ffff8316831461096a5760008081fd5b828252928501929085019061094d565b8096505050505050509250929050565b60005b838110156109a557818101518382015260200161098d565b50506000910152565b600081518084526109c681602086016020860161098a565b601f01601f19169290920160200192915050565b6020815260006109ed60208301846109ae565b9392505050565b60008060008060408587031215610a0a57600080fd5b843567ffffffffffffffff80821115610a2257600080fd5b818701915087601f830112610a3657600080fd5b813581811115610a4557600080fd5b8860208260051b8501011115610a5a57600080fd5b602092830196509450908601359080821115610a7557600080fd5b818701915087601f830112610a8957600080fd5b813581811115610a9857600080fd5b886020828501011115610aaa57600080fd5b95989497505060200194505050565b600060208284031215610acb57600080fd5b81356001600160a01b03811681146109ed57600080fd5b60006020808385031215610af557600080fd5b823567ffffffffffffffff80821115610b0d57600080fd5b818501915085601f830112610b2157600080fd5b813581811115610b3357610b33610870565b610b45601f8201601f19168501610886565b91508082528684828501011115610b5b57600080fd5b8084840185840137600090820190930192909252509392505050565b600081518084526020808501945080840160005b83811015610bab57815161ffff1687529582019590820190600101610b8b565b509495945050505050565b67ffffffffffffffff8316815260406020820152600061045a6040830184610b77565b60008351610beb81846020880161098a565b835190830190610bff81836020880161098a565b01949350505050565b606080825281018490526000856080830182805b88811015610c4d57833563ffffffff8116808214610c38578384fd5b84525060209384019390920191600101610c1c565b505067ffffffffffffffff861660208501528381036040850152610c718186610b77565b98975050505050505050565b634e487b7160e01b600052603260045260246000fd5b634e487b7160e01b600052601160045260246000fd5b600060018201610cbb57610cbb610c93565b5060010190565b805160208201516001600160c01b03198082169291906008831015610cf15780818460080360031b1b83161693505b505050919050565b8082018082111561024357610243610c93565b60008351610d1e81846020880161098a565b6001600160e01b0319939093169190920190815260040192915050565b805160208201516001600160e01b03198082169291906004831015610cf15760049290920360031b82901b161692915050565b808202811582820484141761024357610243610c93565b80516020808301519190811015610da6576000198160200360031b1b821691505b50919050565b63ffffffff81811683821602808216919082811461063257610632610c93565b64ffffffffff818116838216019080821115610dea57610dea610c93565b509291505056fe75696e74363420646973636f72644576656e7457696c646576656e7449642c2075696e7431365b5d2077696c6466696c654d696e75746573417474656e646564a26469706673582212204f84cd2242a638ae6eb25cf1b697160d38dd266e6bbc6f565b55779c01b43f2864736f6c63430008130033",
        "linkReferences": {}
    },
    "methodIdentifiers": {
        "SCHEMA()": "b4a8b1b8",
        "TYPE()": "bb24fe8a",
        "decode(bytes)": "e5c5e9a3",
        "encode(uint64,uint16[])": "12d999f6",
        "getSchema()": "6b122fe0",
        "getType()": "15dae03e",
        "onWildevent(uint32[],bytes)": "827de403",
        "onlyWildeventRegistryContract(address)": "ad71b2d8",
        "wildeventRegistryContract()": "437e2e51"
    },
    "id": 46
}