{
    "abi": [
        {
            "inputs": [
                {
                    "internalType": "address",
                    "name": "_wildeventRegistryContract",
                    "type": "address"
                }
            ],
            "stateMutability": "nonpayable",
            "type": "constructor"
        },
        {
            "inputs": [],
            "name": "OnlyWildeventRegistryContract",
            "type": "error"
        },
        {
            "inputs": [],
            "name": "ZeroAddressNotAllowed",
            "type": "error"
        },
        {
            "anonymous": false,
            "inputs": [
                {
                    "indexed": false,
                    "internalType": "uint32[]",
                    "name": "wildfileIds",
                    "type": "uint32[]"
                },
                {
                    "indexed": false,
                    "internalType": "string",
                    "name": "name",
                    "type": "string"
                },
                {
                    "indexed": false,
                    "internalType": "string",
                    "name": "eventType",
                    "type": "string"
                },
                {
                    "indexed": false,
                    "internalType": "string",
                    "name": "description",
                    "type": "string"
                },
                {
                    "indexed": false,
                    "internalType": "uint16",
                    "name": "durationMinutes",
                    "type": "uint16"
                }
            ],
            "name": "DiscordEventComplete",
            "type": "event"
        },
        {
            "inputs": [],
            "name": "SCHEMA",
            "outputs": [
                {
                    "internalType": "string",
                    "name": "",
                    "type": "string"
                }
            ],
            "stateMutability": "view",
            "type": "function"
        },
        {
            "inputs": [],
            "name": "TYPE",
            "outputs": [
                {
                    "internalType": "string",
                    "name": "",
                    "type": "string"
                }
            ],
            "stateMutability": "view",
            "type": "function"
        },
        {
            "inputs": [
                {
                    "internalType": "bytes",
                    "name": "data",
                    "type": "bytes"
                }
            ],
            "name": "decode",
            "outputs": [
                {
                    "internalType": "string",
                    "name": "",
                    "type": "string"
                },
                {
                    "internalType": "string",
                    "name": "",
                    "type": "string"
                },
                {
                    "internalType": "string",
                    "name": "",
                    "type": "string"
                },
                {
                    "internalType": "uint16",
                    "name": "",
                    "type": "uint16"
                }
            ],
            "stateMutability": "pure",
            "type": "function"
        },
        {
            "inputs": [
                {
                    "internalType": "string",
                    "name": "name",
                    "type": "string"
                },
                {
                    "internalType": "string",
                    "name": "eventType",
                    "type": "string"
                },
                {
                    "internalType": "string",
                    "name": "description",
                    "type": "string"
                },
                {
                    "internalType": "uint16",
                    "name": "durationMinutes",
                    "type": "uint16"
                }
            ],
            "name": "encode",
            "outputs": [
                {
                    "internalType": "bytes",
                    "name": "data",
                    "type": "bytes"
                }
            ],
            "stateMutability": "pure",
            "type": "function"
        },
        {
            "inputs": [],
            "name": "getSchema",
            "outputs": [
                {
                    "internalType": "string",
                    "name": "",
                    "type": "string"
                }
            ],
            "stateMutability": "pure",
            "type": "function"
        },
        {
            "inputs": [],
            "name": "getType",
            "outputs": [
                {
                    "internalType": "string",
                    "name": "",
                    "type": "string"
                }
            ],
            "stateMutability": "pure",
            "type": "function"
        },
        {
            "inputs": [
                {
                    "internalType": "uint32[]",
                    "name": "wildfileIds",
                    "type": "uint32[]"
                },
                {
                    "internalType": "bytes",
                    "name": "data",
                    "type": "bytes"
                }
            ],
            "name": "onWildevent",
            "outputs": [],
            "stateMutability": "nonpayable",
            "type": "function"
        },
        {
            "inputs": [
                {
                    "internalType": "address",
                    "name": "msgSender",
                    "type": "address"
                }
            ],
            "name": "onlyWildeventRegistryContract",
            "outputs": [],
            "stateMutability": "view",
            "type": "function"
        },
        {
            "inputs": [],
            "name": "wildeventRegistryContract",
            "outputs": [
                {
                    "internalType": "address",
                    "name": "",
                    "type": "address"
                }
            ],
            "stateMutability": "view",
            "type": "function"
        }
    ],
    "bytecode": {
        "object": "0x60a060405234801561001057600080fd5b50604051610ce8380380610ce883398101604081905261002f91610040565b6001600160a01b0316608052610070565b60006020828403121561005257600080fd5b81516001600160a01b038116811461006957600080fd5b9392505050565b608051610c576100916000396000818160d701526103d90152610c576000f3fe608060405234801561001057600080fd5b50600436106100935760003560e01c8063837f0cb611610066578063837f0cb61461012e578063ad71b2d814610141578063b4a8b1b814610154578063bb24fe8a1461015c578063e5c5e9a31461018757600080fd5b806315dae03e14610098578063437e2e51146100d25780636b122fe014610111578063827de40314610119575b600080fd5b60408051808201909152600c81526b111a5cd8dbdc99115d995b9d60a21b60208201525b6040516100c99190610721565b60405180910390f35b6100f97f000000000000000000000000000000000000000000000000000000000000000081565b6040516001600160a01b0390911681526020016100c9565b6100bc6101aa565b61012c61012736600461077d565b6101ca565b005b6100bc61013c366004610817565b61026b565b61012c61014f3660046108cc565b6103d7565b6100bc61042c565b6100bc6040518060400160405280600c81526020016b111a5cd8dbdc99115d995b9d60a21b81525081565b61019a61019536600461090b565b610448565b6040516100c994939291906109bc565b6060604051806080016040528060498152602001610bd960499139905090565b6101d3336103d7565b60008060008061021886868080601f01602080910402602001604051908101604052809392919081815260200183838082843760009201919091525061044892505050565b93509350935093507f5985ffd2309a187065f3d17ba4d7bd642a6ba136690b1876b1b4e6c399be2ce288888686868660405161025996959493929190610a0b565b60405180910390a15050505050505050565b6060806102ad89898080601f01602080910402602001604051908101604052809392919081815260200183838082843760009201919091525061049a92505050565b6040516020016102be929190610aa0565b60408051601f198184030181526020601f89018190048102840181019092528783529250829161030891899089908190840183828082843760009201919091525061049a92505050565b604051602001610319929190610aa0565b60408051601f198184030181526020601f87018190048102840181019092528583529250829161036391879087908190840183828082843760009201919091525061049a92505050565b604051602001610374929190610aa0565b60408051808303601f1901815282825260f085901b6001600160f01b0319166020840152815160028185030181526022840190925292506103ba91839190604201610aa0565b60405160208183030381529060405290505b979650505050505050565b7f00000000000000000000000000000000000000000000000000000000000000006001600160a01b0316816001600160a01b031614610429576040516377f1b69160e11b815260040160405180910390fd5b50565b604051806080016040528060498152602001610bd96049913981565b606080806000808280808361045d8a82610510565b9550935061046b8a86610510565b955092506104798a86610510565b955091506104878a86610587565b50939a9299509097509195509350505050565b6060600082519050818160e01b6040516020016104b8929190610acf565b604051602081830303815290604052915081836040516020016104db9190610afe565b60408051601f19818403018152908290526104f99291602001610aa0565b604051602081830303815290604052915050919050565b6060600080610528858564ffffffffff1660046105bf565b61053190610b1a565b60e01c9050600061055a86610547876004610b67565b64ffffffffff168463ffffffff166105bf565b90508063ffffffff831661056f876004610b67565b6105799190610b67565b9350935050505b9250929050565b60008060028161059f8664ffffffffff8716846105bf565b6105a890610b8c565b60f01c9050806105798364ffffffffff8816610bbf565b6060816105cd81601f610bbf565b10156106115760405162461bcd60e51b815260206004820152600e60248201526d736c6963655f6f766572666c6f7760901b60448201526064015b60405180910390fd5b61061b8284610bbf565b8451101561065f5760405162461bcd60e51b8152602060048201526011602482015270736c6963655f6f75744f66426f756e647360781b6044820152606401610608565b60608215801561067e57604051915060008252602082016040526106c8565b6040519150601f8416801560200281840101858101878315602002848b0101015b818310156106b757805183526020928301920161069f565b5050858452601f01601f1916604052505b50949350505050565b60005b838110156106ec5781810151838201526020016106d4565b50506000910152565b6000815180845261070d8160208601602086016106d1565b601f01601f19169290920160200192915050565b60208152600061073460208301846106f5565b9392505050565b60008083601f84011261074d57600080fd5b50813567ffffffffffffffff81111561076557600080fd5b60208301915083602082850101111561058057600080fd5b6000806000806040858703121561079357600080fd5b843567ffffffffffffffff808211156107ab57600080fd5b818701915087601f8301126107bf57600080fd5b8135818111156107ce57600080fd5b8860208260051b85010111156107e357600080fd5b6020928301965094509086013590808211156107fe57600080fd5b5061080b8782880161073b565b95989497509550505050565b60008060008060008060006080888a03121561083257600080fd5b873567ffffffffffffffff8082111561084a57600080fd5b6108568b838c0161073b565b909950975060208a013591508082111561086f57600080fd5b61087b8b838c0161073b565b909750955060408a013591508082111561089457600080fd5b506108a18a828b0161073b565b909450925050606088013561ffff811681146108bc57600080fd5b8091505092959891949750929550565b6000602082840312156108de57600080fd5b81356001600160a01b038116811461073457600080fd5b634e487b7160e01b600052604160045260246000fd5b60006020828403121561091d57600080fd5b813567ffffffffffffffff8082111561093557600080fd5b818401915084601f83011261094957600080fd5b81358181111561095b5761095b6108f5565b604051601f8201601f19908116603f01168101908382118183101715610983576109836108f5565b8160405282815287602084870101111561099c57600080fd5b826020860160208301376000928101602001929092525095945050505050565b6080815260006109cf60808301876106f5565b82810360208401526109e181876106f5565b905082810360408401526109f581866106f5565b91505061ffff8316606083015295945050505050565b60a0808252810186905260008760c0830182805b8a811015610a5057833563ffffffff8116808214610a3b578384fd5b84525060209384019390920191600101610a1f565b50508381036020850152610a6481896106f5565b9150508281036040840152610a7981876106f5565b90508281036060840152610a8d81866106f5565b9150506103cc608083018461ffff169052565b60008351610ab28184602088016106d1565b835190830190610ac68183602088016106d1565b01949350505050565b60008351610ae18184602088016106d1565b6001600160e01b0319939093169190920190815260040192915050565b60008251610b108184602087016106d1565b9190910192915050565b805160208201516001600160e01b03198082169291906004831015610b495780818460040360031b1b83161693505b505050919050565b634e487b7160e01b600052601160045260246000fd5b64ffffffffff818116838216019080821115610b8557610b85610b51565b5092915050565b805160208201516001600160f01b03198082169291906002831015610b495760029290920360031b82901b161692915050565b80820180821115610bd257610bd2610b51565b9291505056fe737472696e67206e616d652c20737472696e67206576656e74547970652c20737472696e67206465736372697074696f6e2c2075696e743136206475726174696f6e4d696e75746573a26469706673582212206ecb1895a23cd69a0f4f0a404e049df7cf77d98f3cdf2f716fe09f665784714964736f6c63430008130033",
        "linkReferences": {}
    },
    "methodIdentifiers": {
        "SCHEMA()": "b4a8b1b8",
        "TYPE()": "bb24fe8a",
        "decode(bytes)": "e5c5e9a3",
        "encode(string,string,string,uint16)": "837f0cb6",
        "getSchema()": "6b122fe0",
        "getType()": "15dae03e",
        "onWildevent(uint32[],bytes)": "827de403",
        "onlyWildeventRegistryContract(address)": "ad71b2d8",
        "wildeventRegistryContract()": "437e2e51"
    },
    "id": 47
}