{
    "abi": [
        {
            "inputs": [
                {
                    "internalType": "address",
                    "name": "_wildeventRegistryContract",
                    "type": "address"
                }
            ],
            "stateMutability": "nonpayable",
            "type": "constructor"
        },
        {
            "inputs": [],
            "name": "ExactlyOneWildfile",
            "type": "error"
        },
        {
            "inputs": [],
            "name": "OnlyWildeventRegistryContract",
            "type": "error"
        },
        {
            "inputs": [],
            "name": "ZeroAddressNotAllowed",
            "type": "error"
        },
        {
            "anonymous": false,
            "inputs": [
                {
                    "indexed": false,
                    "internalType": "uint32",
                    "name": "wildfileId",
                    "type": "uint32"
                },
                {
                    "indexed": false,
                    "internalType": "string",
                    "name": "reason",
                    "type": "string"
                },
                {
                    "indexed": false,
                    "internalType": "uint32",
                    "name": "awardedByWildfileId",
                    "type": "uint32"
                }
            ],
            "name": "KudosGiven",
            "type": "event"
        },
        {
            "inputs": [],
            "name": "SCHEMA",
            "outputs": [
                {
                    "internalType": "string",
                    "name": "",
                    "type": "string"
                }
            ],
            "stateMutability": "view",
            "type": "function"
        },
        {
            "inputs": [],
            "name": "TYPE",
            "outputs": [
                {
                    "internalType": "string",
                    "name": "",
                    "type": "string"
                }
            ],
            "stateMutability": "view",
            "type": "function"
        },
        {
            "inputs": [
                {
                    "internalType": "bytes",
                    "name": "data",
                    "type": "bytes"
                }
            ],
            "name": "decode",
            "outputs": [
                {
                    "internalType": "string",
                    "name": "",
                    "type": "string"
                },
                {
                    "internalType": "uint32",
                    "name": "",
                    "type": "uint32"
                }
            ],
            "stateMutability": "pure",
            "type": "function"
        },
        {
            "inputs": [
                {
                    "internalType": "string",
                    "name": "reason",
                    "type": "string"
                },
                {
                    "internalType": "uint32",
                    "name": "awardedByWildfileId",
                    "type": "uint32"
                }
            ],
            "name": "encode",
            "outputs": [
                {
                    "internalType": "bytes",
                    "name": "data",
                    "type": "bytes"
                }
            ],
            "stateMutability": "pure",
            "type": "function"
        },
        {
            "inputs": [],
            "name": "getSchema",
            "outputs": [
                {
                    "internalType": "string",
                    "name": "",
                    "type": "string"
                }
            ],
            "stateMutability": "pure",
            "type": "function"
        },
        {
            "inputs": [],
            "name": "getType",
            "outputs": [
                {
                    "internalType": "string",
                    "name": "",
                    "type": "string"
                }
            ],
            "stateMutability": "pure",
            "type": "function"
        },
        {
            "inputs": [
                {
                    "internalType": "uint32[]",
                    "name": "wildfileIds",
                    "type": "uint32[]"
                },
                {
                    "internalType": "bytes",
                    "name": "data",
                    "type": "bytes"
                }
            ],
            "name": "onWildevent",
            "outputs": [],
            "stateMutability": "nonpayable",
            "type": "function"
        },
        {
            "inputs": [
                {
                    "internalType": "address",
                    "name": "msgSender",
                    "type": "address"
                }
            ],
            "name": "onlyWildeventRegistryContract",
            "outputs": [],
            "stateMutability": "view",
            "type": "function"
        },
        {
            "inputs": [],
            "name": "wildeventRegistryContract",
            "outputs": [
                {
                    "internalType": "address",
                    "name": "",
                    "type": "address"
                }
            ],
            "stateMutability": "view",
            "type": "function"
        }
    ],
    "bytecode": {
        "object": "0x60a060405234801561001057600080fd5b50604051610b43380380610b4383398101604081905261002f91610067565b6001600160a01b038116610056576040516342bcdf7f60e11b815260040160405180910390fd5b6001600160a01b0316608052610097565b60006020828403121561007957600080fd5b81516001600160a01b038116811461009057600080fd5b9392505050565b608051610a8b6100b86000396000818160d0015261029c0152610a8b6000f3fe608060405234801561001057600080fd5b50600436106100935760003560e01c8063ad71b2d811610066578063ad71b2d814610127578063b4a8b1b81461013a578063bb24fe8a14610142578063bb47645814610166578063e5c5e9a31461017957600080fd5b806315dae03e14610098578063437e2e51146100cb5780636b122fe01461010a578063827de40314610112575b600080fd5b6040805180820190915260058152644b75646f7360d81b60208201525b6040516100c2919061063b565b60405180910390f35b6100f27f000000000000000000000000000000000000000000000000000000000000000081565b6040516001600160a01b0390911681526020016100c2565b6100b561019a565b610125610120366004610655565b6101ba565b005b61012561013536600461071a565b61029a565b6100b56102ef565b6100b5604051806040016040528060058152602001644b75646f7360d81b81525081565b6100b56101743660046107e8565b61030b565b61018c61018736600461084a565b610385565b6040516100c292919061089b565b6060604051806060016040528060298152602001610a2d60299139905090565b6101c33361029a565b600183146101e4576040516337c4d70d60e01b815260040160405180910390fd5b6000848460008181106101f9576101f96108c3565b905060200201602081019061020e91906108d9565b905060008061025285858080601f01602080910402602001604051908101604052809392919081815260200183838082843760009201919091525061038592505050565b915091507f57f44ef6997ec2272f8b81249eff1d162c0860a40d3ae41ec6419d25315cd6b2838383604051610289939291906108f4565b60405180910390a150505050505050565b7f00000000000000000000000000000000000000000000000000000000000000006001600160a01b0316816001600160a01b0316146102ec576040516377f1b69160e11b815260040160405180910390fd5b50565b604051806060016040528060298152602001610a2d6029913981565b606080610317846103b5565b604051602001610328929190610927565b60408051808303601f1901815282825260e085901b6001600160e01b03191660208401528151600481850301815260248401909252925061036e91839190604401610927565b604051602081830303815290604052905092915050565b6060600080600061039785600061042b565b9150915060006103a786836104a1565b509296929550919350505050565b6060600082519050818160e01b6040516020016103d3929190610956565b604051602081830303815290604052915081836040516020016103f69190610985565b60408051601f19818403018152908290526104149291602001610927565b604051602081830303815290604052915050919050565b6060600080610443858564ffffffffff1660046104d9565b61044c906109a1565b60e01c90506000610475866104628760046109ee565b64ffffffffff168463ffffffff166104d9565b90508063ffffffff831661048a8760046109ee565b61049491906109ee565b9350935050509250929050565b6000806004816104b98664ffffffffff8716846104d9565b6104c2906109a1565b60e01c9050806104948364ffffffffff8816610a13565b6060816104e781601f610a13565b101561052b5760405162461bcd60e51b815260206004820152600e60248201526d736c6963655f6f766572666c6f7760901b60448201526064015b60405180910390fd5b6105358284610a13565b845110156105795760405162461bcd60e51b8152602060048201526011602482015270736c6963655f6f75744f66426f756e647360781b6044820152606401610522565b60608215801561059857604051915060008252602082016040526105e2565b6040519150601f8416801560200281840101858101878315602002848b0101015b818310156105d15780518352602092830192016105b9565b5050858452601f01601f1916604052505b50949350505050565b60005b838110156106065781810151838201526020016105ee565b50506000910152565b600081518084526106278160208601602086016105eb565b601f01601f19169290920160200192915050565b60208152600061064e602083018461060f565b9392505050565b6000806000806040858703121561066b57600080fd5b843567ffffffffffffffff8082111561068357600080fd5b818701915087601f83011261069757600080fd5b8135818111156106a657600080fd5b8860208260051b85010111156106bb57600080fd5b6020928301965094509086013590808211156106d657600080fd5b818701915087601f8301126106ea57600080fd5b8135818111156106f957600080fd5b88602082850101111561070b57600080fd5b95989497505060200194505050565b60006020828403121561072c57600080fd5b81356001600160a01b038116811461064e57600080fd5b634e487b7160e01b600052604160045260246000fd5b600067ffffffffffffffff8084111561077457610774610743565b604051601f8501601f19908116603f0116810190828211818310171561079c5761079c610743565b816040528093508581528686860111156107b557600080fd5b858560208301376000602087830101525050509392505050565b803563ffffffff811681146107e357600080fd5b919050565b600080604083850312156107fb57600080fd5b823567ffffffffffffffff81111561081257600080fd5b8301601f8101851361082357600080fd5b61083285823560208401610759565b925050610841602084016107cf565b90509250929050565b60006020828403121561085c57600080fd5b813567ffffffffffffffff81111561087357600080fd5b8201601f8101841361088457600080fd5b61089384823560208401610759565b949350505050565b6040815260006108ae604083018561060f565b905063ffffffff831660208301529392505050565b634e487b7160e01b600052603260045260246000fd5b6000602082840312156108eb57600080fd5b61064e826107cf565b600063ffffffff808616835260606020840152610914606084018661060f565b9150808416604084015250949350505050565b600083516109398184602088016105eb565b83519083019061094d8183602088016105eb565b01949350505050565b600083516109688184602088016105eb565b6001600160e01b0319939093169190920190815260040192915050565b600082516109978184602087016105eb565b9190910192915050565b805160208201516001600160e01b031980821692919060048310156109d05780818460040360031b1b83161693505b505050919050565b634e487b7160e01b600052601160045260246000fd5b64ffffffffff818116838216019080821115610a0c57610a0c6109d8565b5092915050565b80820180821115610a2657610a266109d8565b9291505056fe737472696e6720726561736f6e2c2075696e7433322061776172646564427957696c6466696c654964a26469706673582212206fc35815f1b2432a4293d1483c5e0a62a1ea9c119eb042a079411c8fa466de5764736f6c63430008130033",
        "linkReferences": {}
    },
    "methodIdentifiers": {
        "SCHEMA()": "b4a8b1b8",
        "TYPE()": "bb24fe8a",
        "decode(bytes)": "e5c5e9a3",
        "encode(string,uint32)": "bb476458",
        "getSchema()": "6b122fe0",
        "getType()": "15dae03e",
        "onWildevent(uint32[],bytes)": "827de403",
        "onlyWildeventRegistryContract(address)": "ad71b2d8",
        "wildeventRegistryContract()": "437e2e51"
    },
    "id": 47
}