{
    "abi": [
        {
            "inputs": [
                {
                    "internalType": "address",
                    "name": "_wildeventRegistryContract",
                    "type": "address"
                }
            ],
            "stateMutability": "nonpayable",
            "type": "constructor"
        },
        {
            "inputs": [],
            "name": "ExactlyOneWildfile",
            "type": "error"
        },
        {
            "inputs": [],
            "name": "LinkedToOtherWildfileId",
            "type": "error"
        },
        {
            "inputs": [],
            "name": "OnlyWildeventRegistryContract",
            "type": "error"
        },
        {
            "inputs": [],
            "name": "WalletAlreadyLinked",
            "type": "error"
        },
        {
            "inputs": [],
            "name": "WalletNotLinked",
            "type": "error"
        },
        {
            "inputs": [],
            "name": "ZeroAddressNotAllowed",
            "type": "error"
        },
        {
            "anonymous": false,
            "inputs": [
                {
                    "indexed": false,
                    "internalType": "uint32",
                    "name": "wildfileId",
                    "type": "uint32"
                },
                {
                    "indexed": false,
                    "internalType": "address",
                    "name": "wallet",
                    "type": "address"
                },
                {
                    "indexed": false,
                    "internalType": "bool",
                    "name": "isAddingWallet",
                    "type": "bool"
                }
            ],
            "name": "WalletLinked",
            "type": "event"
        },
        {
            "inputs": [],
            "name": "SCHEMA",
            "outputs": [
                {
                    "internalType": "string",
                    "name": "",
                    "type": "string"
                }
            ],
            "stateMutability": "view",
            "type": "function"
        },
        {
            "inputs": [],
            "name": "TYPE",
            "outputs": [
                {
                    "internalType": "string",
                    "name": "",
                    "type": "string"
                }
            ],
            "stateMutability": "view",
            "type": "function"
        },
        {
            "inputs": [
                {
                    "internalType": "bytes",
                    "name": "data",
                    "type": "bytes"
                }
            ],
            "name": "decode",
            "outputs": [
                {
                    "internalType": "address",
                    "name": "",
                    "type": "address"
                },
                {
                    "internalType": "bool",
                    "name": "",
                    "type": "bool"
                }
            ],
            "stateMutability": "pure",
            "type": "function"
        },
        {
            "inputs": [
                {
                    "internalType": "address",
                    "name": "wallet",
                    "type": "address"
                },
                {
                    "internalType": "bool",
                    "name": "isAddingWallet",
                    "type": "bool"
                }
            ],
            "name": "encode",
            "outputs": [
                {
                    "internalType": "bytes",
                    "name": "data",
                    "type": "bytes"
                }
            ],
            "stateMutability": "pure",
            "type": "function"
        },
        {
            "inputs": [],
            "name": "getSchema",
            "outputs": [
                {
                    "internalType": "string",
                    "name": "",
                    "type": "string"
                }
            ],
            "stateMutability": "pure",
            "type": "function"
        },
        {
            "inputs": [],
            "name": "getType",
            "outputs": [
                {
                    "internalType": "string",
                    "name": "",
                    "type": "string"
                }
            ],
            "stateMutability": "pure",
            "type": "function"
        },
        {
            "inputs": [
                {
                    "internalType": "uint32[]",
                    "name": "wildfileIds",
                    "type": "uint32[]"
                },
                {
                    "internalType": "bytes",
                    "name": "data",
                    "type": "bytes"
                }
            ],
            "name": "onWildevent",
            "outputs": [],
            "stateMutability": "nonpayable",
            "type": "function"
        },
        {
            "inputs": [
                {
                    "internalType": "address",
                    "name": "msgSender",
                    "type": "address"
                }
            ],
            "name": "onlyWildeventRegistryContract",
            "outputs": [],
            "stateMutability": "view",
            "type": "function"
        },
        {
            "inputs": [
                {
                    "internalType": "address",
                    "name": "",
                    "type": "address"
                }
            ],
            "name": "walletToWildfileId",
            "outputs": [
                {
                    "internalType": "uint32",
                    "name": "",
                    "type": "uint32"
                }
            ],
            "stateMutability": "view",
            "type": "function"
        },
        {
            "inputs": [],
            "name": "wildeventRegistryContract",
            "outputs": [
                {
                    "internalType": "address",
                    "name": "",
                    "type": "address"
                }
            ],
            "stateMutability": "view",
            "type": "function"
        }
    ],
    "bytecode": {
        "object": "0x60a060405234801561001057600080fd5b50604051610bb0380380610bb083398101604081905261002f91610067565b6001600160a01b038116610056576040516342bcdf7f60e11b815260040160405180910390fd5b6001600160a01b0316608052610097565b60006020828403121561007957600080fd5b81516001600160a01b038116811461009057600080fd5b9392505050565b608051610af86100b86000396000818160e201526104470152610af86000f3fe608060405234801561001057600080fd5b506004361061009e5760003560e01c8063b4a8b1b811610066578063b4a8b1b81461014c578063bb24fe8a14610154578063c97803c81461017f578063e0dd2ee9146101ba578063e5c5e9a3146101cd57600080fd5b806315dae03e146100a3578063437e2e51146100dd5780636b122fe01461011c578063827de40314610124578063ad71b2d814610139575b600080fd5b60408051808201909152600c81526b131a5b9ad95915d85b1b195d60a21b60208201525b6040516100d49190610785565b60405180910390f35b6101047f000000000000000000000000000000000000000000000000000000000000000081565b6040516001600160a01b0390911681526020016100d4565b6100c76101ff565b61013761013236600461079f565b61021f565b005b610137610147366004610880565b610445565b6100c761049a565b6100c76040518060400160405280600c81526020016b131a5b9ad95915d85b1b195d60a21b81525081565b6101a561018d366004610880565b60006020819052908152604090205463ffffffff1681565b60405163ffffffff90911681526020016100d4565b6100c76101c836600461089b565b6104b6565b6101e06101db3660046108ed565b610516565b604080516001600160a01b0390931683529015156020830152016100d4565b6060604051806060016040528060238152602001610aa060239139905090565b61022833610445565b60018314610249576040516337c4d70d60e01b815260040160405180910390fd5b60008484600081811061025e5761025e61099e565b905060200201602081019061027391906109b4565b90506000806102b785858080601f01602080910402602001604051908101604052809392919081815260200183838082843760009201919091525061051692505050565b6001600160a01b038216600090815260208190526040902054919350915063ffffffff16801580159081906102f857508463ffffffff168263ffffffff1614155b15610316576040516301ab0a1560e41b815260040160405180910390fd5b8080156103205750825b1561033e5760405163b50f48f760e01b815260040160405180910390fd5b8015801561034a575082155b156103685760405163c5ff3d3360e01b815260040160405180910390fd5b821561039e576001600160a01b0384166000908152602081905260409020805463ffffffff191663ffffffff87161790556103c2565b6001600160a01b0384166000908152602081905260409020805463ffffffff191690555b7f1c09eb3b292261e35320cbcf2dbfd11dfd11061172d174f9016794b9aeba53a3898960008181106103f6576103f661099e565b905060200201602081019061040b91906109b4565b6040805163ffffffff90921682526001600160a01b03871660208301528515159082015260600160405180910390a1505050505050505050565b7f00000000000000000000000000000000000000000000000000000000000000006001600160a01b0316816001600160a01b031614610497576040516377f1b69160e11b815260040160405180910390fd5b50565b604051806060016040528060238152602001610aa06023913981565b6060806104c284610545565b6040516020016104d39291906109da565b6040516020818303038152906040529050806104ee8361057c565b6040516020016104ff9291906109da565b604051602081830303815290604052905092915050565b600080600080610527856000610595565b91509150600061053786836105da565b509296929550919350505050565b604051606082811b6bffffffffffffffffffffffff19166020830152906034015b6040516020818303038152906040529050919050565b60405181151560f81b6020820152606090602101610566565b6000806014816105ad8664ffffffffff871684610623565b6105b690610a09565b60601c9050806105cd8364ffffffffff8816610a45565b9350935050509250929050565b6000806001816105f28664ffffffffff871684610623565b6105fb90610a6c565b60f81c9050801515806106158464ffffffffff8916610a45565b945094505050509250929050565b60608161063181601f610a45565b10156106755760405162461bcd60e51b815260206004820152600e60248201526d736c6963655f6f766572666c6f7760901b60448201526064015b60405180910390fd5b61067f8284610a45565b845110156106c35760405162461bcd60e51b8152602060048201526011602482015270736c6963655f6f75744f66426f756e647360781b604482015260640161066c565b6060821580156106e2576040519150600082526020820160405261072c565b6040519150601f8416801560200281840101858101878315602002848b0101015b8183101561071b578051835260209283019201610703565b5050858452601f01601f1916604052505b50949350505050565b60005b83811015610750578181015183820152602001610738565b50506000910152565b60008151808452610771816020860160208601610735565b601f01601f19169290920160200192915050565b6020815260006107986020830184610759565b9392505050565b600080600080604085870312156107b557600080fd5b843567ffffffffffffffff808211156107cd57600080fd5b818701915087601f8301126107e157600080fd5b8135818111156107f057600080fd5b8860208260051b850101111561080557600080fd5b60209283019650945090860135908082111561082057600080fd5b818701915087601f83011261083457600080fd5b81358181111561084357600080fd5b88602082850101111561085557600080fd5b95989497505060200194505050565b80356001600160a01b038116811461087b57600080fd5b919050565b60006020828403121561089257600080fd5b61079882610864565b600080604083850312156108ae57600080fd5b6108b783610864565b9150602083013580151581146108cc57600080fd5b809150509250929050565b634e487b7160e01b600052604160045260246000fd5b6000602082840312156108ff57600080fd5b813567ffffffffffffffff8082111561091757600080fd5b818401915084601f83011261092b57600080fd5b81358181111561093d5761093d6108d7565b604051601f8201601f19908116603f01168101908382118183101715610965576109656108d7565b8160405282815287602084870101111561097e57600080fd5b826020860160208301376000928101602001929092525095945050505050565b634e487b7160e01b600052603260045260246000fd5b6000602082840312156109c657600080fd5b813563ffffffff8116811461079857600080fd5b600083516109ec818460208801610735565b835190830190610a00818360208801610735565b01949350505050565b805160208201516bffffffffffffffffffffffff198082169291906014831015610a3d5780818460140360031b1b83161693505b505050919050565b80820180821115610a6657634e487b7160e01b600052601160045260246000fd5b92915050565b805160208201516001600160f81b03198082169291906001831015610a3d5760019290920360031b82901b16169291505056fe616464726573732077616c6c65742c20626f6f6c206973416464696e6757616c6c6574a2646970667358221220a9ffef316ab31e444b40e89165c2cfcf9655c38958c8d550ca37d25bfcaf2b1564736f6c63430008130033",
        "linkReferences": {}
    },
    "methodIdentifiers": {
        "SCHEMA()": "b4a8b1b8",
        "TYPE()": "bb24fe8a",
        "decode(bytes)": "e5c5e9a3",
        "encode(address,bool)": "e0dd2ee9",
        "getSchema()": "6b122fe0",
        "getType()": "15dae03e",
        "onWildevent(uint32[],bytes)": "827de403",
        "onlyWildeventRegistryContract(address)": "ad71b2d8",
        "walletToWildfileId(address)": "c97803c8",
        "wildeventRegistryContract()": "437e2e51"
    },
    "id": 36
}