{
    "abi": [
        {
            "inputs": [
                {
                    "internalType": "address",
                    "name": "_wildeventRegistryContract",
                    "type": "address"
                }
            ],
            "stateMutability": "nonpayable",
            "type": "constructor"
        },
        {
            "inputs": [],
            "name": "ExactlyOneWildfile",
            "type": "error"
        },
        {
            "inputs": [],
            "name": "OnlyWildeventRegistryContract",
            "type": "error"
        },
        {
            "inputs": [],
            "name": "PlatformAlreadyLinked",
            "type": "error"
        },
        {
            "anonymous": false,
            "inputs": [
                {
                    "indexed": false,
                    "internalType": "uint32",
                    "name": "wildfileId",
                    "type": "uint32"
                },
                {
                    "indexed": false,
                    "internalType": "string",
                    "name": "platform",
                    "type": "string"
                }
            ],
            "name": "SocialLinked",
            "type": "event"
        },
        {
            "inputs": [],
            "name": "SCHEMA",
            "outputs": [
                {
                    "internalType": "string",
                    "name": "",
                    "type": "string"
                }
            ],
            "stateMutability": "view",
            "type": "function"
        },
        {
            "inputs": [],
            "name": "TYPE",
            "outputs": [
                {
                    "internalType": "string",
                    "name": "",
                    "type": "string"
                }
            ],
            "stateMutability": "view",
            "type": "function"
        },
        {
            "inputs": [
                {
                    "internalType": "bytes",
                    "name": "data",
                    "type": "bytes"
                }
            ],
            "name": "decode",
            "outputs": [
                {
                    "internalType": "string",
                    "name": "",
                    "type": "string"
                }
            ],
            "stateMutability": "pure",
            "type": "function"
        },
        {
            "inputs": [
                {
                    "internalType": "string",
                    "name": "platform",
                    "type": "string"
                }
            ],
            "name": "encode",
            "outputs": [
                {
                    "internalType": "bytes",
                    "name": "",
                    "type": "bytes"
                }
            ],
            "stateMutability": "pure",
            "type": "function"
        },
        {
            "inputs": [],
            "name": "getSchema",
            "outputs": [
                {
                    "internalType": "string",
                    "name": "",
                    "type": "string"
                }
            ],
            "stateMutability": "pure",
            "type": "function"
        },
        {
            "inputs": [],
            "name": "getType",
            "outputs": [
                {
                    "internalType": "string",
                    "name": "",
                    "type": "string"
                }
            ],
            "stateMutability": "pure",
            "type": "function"
        },
        {
            "inputs": [
                {
                    "internalType": "uint32",
                    "name": "wildfileId",
                    "type": "uint32"
                },
                {
                    "internalType": "string",
                    "name": "platform",
                    "type": "string"
                }
            ],
            "name": "isPlatformLinked",
            "outputs": [
                {
                    "internalType": "bool",
                    "name": "",
                    "type": "bool"
                }
            ],
            "stateMutability": "view",
            "type": "function"
        },
        {
            "inputs": [
                {
                    "internalType": "uint32[]",
                    "name": "wildfileIds",
                    "type": "uint32[]"
                },
                {
                    "internalType": "bytes",
                    "name": "data",
                    "type": "bytes"
                }
            ],
            "name": "onWildevent",
            "outputs": [],
            "stateMutability": "nonpayable",
            "type": "function"
        },
        {
            "inputs": [
                {
                    "internalType": "address",
                    "name": "msgSender",
                    "type": "address"
                }
            ],
            "name": "onlyWildeventRegistryContract",
            "outputs": [],
            "stateMutability": "view",
            "type": "function"
        },
        {
            "inputs": [],
            "name": "wildeventRegistryContract",
            "outputs": [
                {
                    "internalType": "address",
                    "name": "",
                    "type": "address"
                }
            ],
            "stateMutability": "view",
            "type": "function"
        },
        {
            "inputs": [
                {
                    "internalType": "uint32",
                    "name": "",
                    "type": "uint32"
                },
                {
                    "internalType": "string",
                    "name": "",
                    "type": "string"
                }
            ],
            "name": "wildfileIdToPlatformToIsLinked",
            "outputs": [
                {
                    "internalType": "bool",
                    "name": "",
                    "type": "bool"
                }
            ],
            "stateMutability": "view",
            "type": "function"
        }
    ],
    "bytecode": {
        "object": "0x60a060405234801561001057600080fd5b50604051610c3f380380610c3f83398101604081905261002f91610040565b6001600160a01b0316608052610070565b60006020828403121561005257600080fd5b81516001600160a01b038116811461006957600080fd5b9392505050565b608051610bad6100926000396000818161013901526104540152610bad6000f3fe608060405234801561001057600080fd5b50600436106100a95760003560e01c80636f1f42e9116100715780636f1f42e9146101b1578063827de403146101c4578063ad71b2d8146101d9578063b4a8b1b8146101ec578063bb24fe8a1461021a578063e5c5e9a31461024557600080fd5b806315dae03e146100ae5780632395e95f146100e8578063437e2e51146101345780636a11b2a8146101735780636b122fe014610186575b600080fd5b60408051808201909152600c81526b131a5b9ad95914dbd8da585b60a21b60208201525b6040516100df919061070d565b60405180910390f35b6101246100f63660046107ec565b6000602081815292815260409020815180830184018051928152908401929093019190912091525460ff1681565b60405190151581526020016100df565b61015b7f000000000000000000000000000000000000000000000000000000000000000081565b6040516001600160a01b0390911681526020016100df565b6100d261018136600461083a565b610258565b60408051808201909152600f81526e737472696e6720706c6174666f726d60881b60208201526100d2565b6101246101bf3660046108b9565b610269565b6101d76101d236600461090c565b6102aa565b005b6101d76101e73660046109a6565b610452565b6100d26040518060400160405280600f81526020016e737472696e6720706c6174666f726d60881b81525081565b6100d26040518060400160405280600c81526020016b131a5b9ad95914dbd8da585b60a21b81525081565b6100d26102533660046109cf565b6104a7565b6060610263826104be565b92915050565b63ffffffff8316600090815260208190526040808220905161028e9085908590610a18565b9081526040519081900360200190205460ff1690509392505050565b6102b333610452565b600183146102d4576040516337c4d70d60e01b815260040160405180910390fd5b6000848460008181106102e9576102e9610a28565b90506020020160208101906102fe9190610a3e565b9050600061034184848080601f0160208091040260200160405190810160405280939291908181526020018383808284376000920191909152506104a792505050565b63ffffffff831660009081526020819052604080822090519293509091610369908490610a59565b9081526040519081900360200190205460ff169050801561039d57604051636f52eaa760e01b815260040160405180910390fd5b60016000808563ffffffff1663ffffffff168152602001908152602001600020836040516103cb9190610a59565b908152604051908190036020019020805491151560ff199092169190911790557f9ac180ef363faac0261fa6c3e4e2c92216b39e19535af6845023bd31ef7e6811878760008161041d5761041d610a28565b90506020020160208101906104329190610a3e565b83604051610441929190610a75565b60405180910390a150505050505050565b7f00000000000000000000000000000000000000000000000000000000000000006001600160a01b0316816001600160a01b0316146104a4576040516377f1b69160e11b815260040160405180910390fd5b50565b606060006104b6836000610534565b509392505050565b6060600082519050818160e01b6040516020016104dc929190610a94565b604051602081830303815290604052915081836040516020016104ff9190610a59565b60408051601f198184030181529082905261051d9291602001610ac3565b604051602081830303815290604052915050919050565b606060008061054c858564ffffffffff1660046105ab565b61055590610af2565b60e01c9050600061057e8661056b876004610b3f565b64ffffffffff168463ffffffff166105ab565b90508063ffffffff8316610593876004610b3f565b61059d9190610b3f565b9350935050505b9250929050565b6060816105b981601f610b64565b10156105fd5760405162461bcd60e51b815260206004820152600e60248201526d736c6963655f6f766572666c6f7760901b60448201526064015b60405180910390fd5b6106078284610b64565b8451101561064b5760405162461bcd60e51b8152602060048201526011602482015270736c6963655f6f75744f66426f756e647360781b60448201526064016105f4565b60608215801561066a57604051915060008252602082016040526106b4565b6040519150601f8416801560200281840101858101878315602002848b0101015b818310156106a357805183526020928301920161068b565b5050858452601f01601f1916604052505b50949350505050565b60005b838110156106d85781810151838201526020016106c0565b50506000910152565b600081518084526106f98160208601602086016106bd565b601f01601f19169290920160200192915050565b60208152600061072060208301846106e1565b9392505050565b803563ffffffff8116811461073b57600080fd5b919050565b634e487b7160e01b600052604160045260246000fd5b600067ffffffffffffffff8084111561077157610771610740565b604051601f8501601f19908116603f0116810190828211818310171561079957610799610740565b816040528093508581528686860111156107b257600080fd5b858560208301376000602087830101525050509392505050565b600082601f8301126107dd57600080fd5b61072083833560208501610756565b600080604083850312156107ff57600080fd5b61080883610727565b9150602083013567ffffffffffffffff81111561082457600080fd5b610830858286016107cc565b9150509250929050565b60006020828403121561084c57600080fd5b813567ffffffffffffffff81111561086357600080fd5b61086f848285016107cc565b949350505050565b60008083601f84011261088957600080fd5b50813567ffffffffffffffff8111156108a157600080fd5b6020830191508360208285010111156105a457600080fd5b6000806000604084860312156108ce57600080fd5b6108d784610727565b9250602084013567ffffffffffffffff8111156108f357600080fd5b6108ff86828701610877565b9497909650939450505050565b6000806000806040858703121561092257600080fd5b843567ffffffffffffffff8082111561093a57600080fd5b818701915087601f83011261094e57600080fd5b81358181111561095d57600080fd5b8860208260051b850101111561097257600080fd5b60209283019650945090860135908082111561098d57600080fd5b5061099a87828801610877565b95989497509550505050565b6000602082840312156109b857600080fd5b81356001600160a01b038116811461072057600080fd5b6000602082840312156109e157600080fd5b813567ffffffffffffffff8111156109f857600080fd5b8201601f81018413610a0957600080fd5b61086f84823560208401610756565b8183823760009101908152919050565b634e487b7160e01b600052603260045260246000fd5b600060208284031215610a5057600080fd5b61072082610727565b60008251610a6b8184602087016106bd565b9190910192915050565b63ffffffff8316815260406020820152600061086f60408301846106e1565b60008351610aa68184602088016106bd565b6001600160e01b0319939093169190920190815260040192915050565b60008351610ad58184602088016106bd565b835190830190610ae98183602088016106bd565b01949350505050565b805160208201516001600160e01b03198082169291906004831015610b215780818460040360031b1b83161693505b505050919050565b634e487b7160e01b600052601160045260246000fd5b64ffffffffff818116838216019080821115610b5d57610b5d610b29565b5092915050565b8082018082111561026357610263610b2956fea2646970667358221220144fa42b2b6611fbcabc6027dff4a827e23e5673b0352cfbb950b2c78ea0025764736f6c63430008130033",
        "linkReferences": {}
    },
    "methodIdentifiers": {
        "SCHEMA()": "b4a8b1b8",
        "TYPE()": "bb24fe8a",
        "decode(bytes)": "e5c5e9a3",
        "encode(string)": "6a11b2a8",
        "getSchema()": "6b122fe0",
        "getType()": "15dae03e",
        "isPlatformLinked(uint32,string)": "6f1f42e9",
        "onWildevent(uint32[],bytes)": "827de403",
        "onlyWildeventRegistryContract(address)": "ad71b2d8",
        "wildeventRegistryContract()": "437e2e51",
        "wildfileIdToPlatformToIsLinked(uint32,string)": "2395e95f"
    },
    "id": 47
}