{
    "abi": [
        {
            "inputs": [
                {
                    "internalType": "address",
                    "name": "_wildeventRegistryContract",
                    "type": "address"
                }
            ],
            "stateMutability": "nonpayable",
            "type": "constructor"
        },
        {
            "inputs": [],
            "name": "ExactlyOneWildfile",
            "type": "error"
        },
        {
            "inputs": [],
            "name": "OnlyWildeventRegistryContract",
            "type": "error"
        },
        {
            "inputs": [],
            "name": "ZeroAddressNotAllowed",
            "type": "error"
        },
        {
            "anonymous": false,
            "inputs": [
                {
                    "indexed": false,
                    "internalType": "uint32",
                    "name": "wildfileId",
                    "type": "uint32"
                },
                {
                    "components": [
                        {
                            "internalType": "uint256",
                            "name": "tokenId",
                            "type": "uint256"
                        },
                        {
                            "internalType": "address",
                            "name": "contractAddress",
                            "type": "address"
                        },
                        {
                            "internalType": "uint32",
                            "name": "chainId",
                            "type": "uint32"
                        }
                    ],
                    "indexed": false,
                    "internalType": "struct PfpWildevent.Pfp",
                    "name": "pfp",
                    "type": "tuple"
                }
            ],
            "name": "PfpSet",
            "type": "event"
        },
        {
            "inputs": [],
            "name": "SCHEMA",
            "outputs": [
                {
                    "internalType": "string",
                    "name": "",
                    "type": "string"
                }
            ],
            "stateMutability": "view",
            "type": "function"
        },
        {
            "inputs": [],
            "name": "TYPE",
            "outputs": [
                {
                    "internalType": "string",
                    "name": "",
                    "type": "string"
                }
            ],
            "stateMutability": "view",
            "type": "function"
        },
        {
            "inputs": [
                {
                    "internalType": "bytes",
                    "name": "data",
                    "type": "bytes"
                }
            ],
            "name": "decode",
            "outputs": [
                {
                    "components": [
                        {
                            "internalType": "uint256",
                            "name": "tokenId",
                            "type": "uint256"
                        },
                        {
                            "internalType": "address",
                            "name": "contractAddress",
                            "type": "address"
                        },
                        {
                            "internalType": "uint32",
                            "name": "chainId",
                            "type": "uint32"
                        }
                    ],
                    "internalType": "struct PfpWildevent.Pfp",
                    "name": "",
                    "type": "tuple"
                }
            ],
            "stateMutability": "pure",
            "type": "function"
        },
        {
            "inputs": [
                {
                    "components": [
                        {
                            "internalType": "uint256",
                            "name": "tokenId",
                            "type": "uint256"
                        },
                        {
                            "internalType": "address",
                            "name": "contractAddress",
                            "type": "address"
                        },
                        {
                            "internalType": "uint32",
                            "name": "chainId",
                            "type": "uint32"
                        }
                    ],
                    "internalType": "struct PfpWildevent.Pfp",
                    "name": "pfp",
                    "type": "tuple"
                }
            ],
            "name": "encode",
            "outputs": [
                {
                    "internalType": "bytes",
                    "name": "data",
                    "type": "bytes"
                }
            ],
            "stateMutability": "pure",
            "type": "function"
        },
        {
            "inputs": [],
            "name": "getSchema",
            "outputs": [
                {
                    "internalType": "string",
                    "name": "",
                    "type": "string"
                }
            ],
            "stateMutability": "pure",
            "type": "function"
        },
        {
            "inputs": [],
            "name": "getType",
            "outputs": [
                {
                    "internalType": "string",
                    "name": "",
                    "type": "string"
                }
            ],
            "stateMutability": "pure",
            "type": "function"
        },
        {
            "inputs": [
                {
                    "internalType": "uint32[]",
                    "name": "wildfileIds",
                    "type": "uint32[]"
                },
                {
                    "internalType": "bytes",
                    "name": "data",
                    "type": "bytes"
                }
            ],
            "name": "onWildevent",
            "outputs": [],
            "stateMutability": "nonpayable",
            "type": "function"
        },
        {
            "inputs": [
                {
                    "internalType": "address",
                    "name": "msgSender",
                    "type": "address"
                }
            ],
            "name": "onlyWildeventRegistryContract",
            "outputs": [],
            "stateMutability": "view",
            "type": "function"
        },
        {
            "inputs": [],
            "name": "wildeventRegistryContract",
            "outputs": [
                {
                    "internalType": "address",
                    "name": "",
                    "type": "address"
                }
            ],
            "stateMutability": "view",
            "type": "function"
        },
        {
            "inputs": [
                {
                    "internalType": "uint32",
                    "name": "",
                    "type": "uint32"
                }
            ],
            "name": "wildfileIdToPfp",
            "outputs": [
                {
                    "internalType": "uint256",
                    "name": "tokenId",
                    "type": "uint256"
                },
                {
                    "internalType": "address",
                    "name": "contractAddress",
                    "type": "address"
                },
                {
                    "internalType": "uint32",
                    "name": "chainId",
                    "type": "uint32"
                }
            ],
            "stateMutability": "view",
            "type": "function"
        }
    ],
    "bytecode": {
        "object": "0x60a060405234801561001057600080fd5b50604051610bf8380380610bf883398101604081905261002f91610067565b6001600160a01b038116610056576040516342bcdf7f60e11b815260040160405180910390fd5b6001600160a01b0316608052610097565b60006020828403121561007957600080fd5b81516001600160a01b038116811461009057600080fd5b9392505050565b608051610b406100b86000396000818160d9015261035a0152610b406000f3fe608060405234801561001057600080fd5b506004361061009e5760003560e01c8063b4a8b1b811610066578063b4a8b1b814610143578063bb24fe8a1461014b578063e37860e01461016d578063e48b61f8146101d5578063e5c5e9a3146101e857600080fd5b806315dae03e146100a3578063437e2e51146100d45780636b122fe014610113578063827de4031461011b578063ad71b2d814610130575b600080fd5b60408051808201909152600381526205066760ec1b60208201525b6040516100cb9190610764565b60405180910390f35b6100fb7f000000000000000000000000000000000000000000000000000000000000000081565b6040516001600160a01b0390911681526020016100cb565b6100be610208565b61012e610129366004610777565b610228565b005b61012e61013e36600461083c565b610358565b6100be6103ad565b6100be6040518060400160405280600381526020016205066760ec1b81525081565b6101ac61017b366004610865565b600060208190529081526040902080546001909101546001600160a01b03811690600160a01b900463ffffffff1683565b604080519384526001600160a01b03909216602084015263ffffffff16908201526060016100cb565b6100be6101e336600461088b565b6103c9565b6101fb6101f63660046108b9565b610479565b6040516100cb919061096a565b6060604051806060016040528060388152602001610ad360389139905090565b61023133610358565b60018314610252576040516337c4d70d60e01b815260040160405180910390fd5b6000848460008181106102675761026761099c565b905060200201602081019061027c9190610865565b905060006102bf84848080601f01602080910402602001604051908101604052809392919081815260200183838082843760009201919091525061047992505050565b63ffffffff8084166000908152602081815260409182902084518155908401516001909101805483860151909416600160a01b026001600160c01b03199094166001600160a01b039092169190911792909217909155519091507f13caa9e7e1d841cc68d08110ca9b4a047b67dcef406c20e814a03200c07badf09061034890849084906109b2565b60405180910390a1505050505050565b7f00000000000000000000000000000000000000000000000000000000000000006001600160a01b0316816001600160a01b0316146103aa576040516377f1b69160e11b815260040160405180910390fd5b50565b604051806060016040528060388152602001610ad36038913981565b6060806103d683356104f2565b6040516020016103e79291906109ef565b60405160208183030381529060405290508061041483602001602081019061040f919061083c565b610507565b6040516020016104259291906109ef565b60405160208183030381529060405290508061045283604001602081019061044d9190610865565b61052c565b6040516020016104639291906109ef565b6040516020818303038152906040529050919050565b60408051606081018252600080825260208201819052918101829052908080806104a3868261054e565b945092506104b18685610590565b945091506104bf86856105c8565b50604080516060810182529485526001600160a01b03909316602085015263ffffffff1691830191909152509392505050565b60608160405160200161046391815260200190565b604051606082811b6bffffffffffffffffffffffff1916602083015290603401610463565b6040516001600160e01b031960e083901b166020820152606090602401610463565b6000806020816105668664ffffffffff871684610600565b61056f90610a1e565b9050806105838364ffffffffff8816610a42565b9350935050509250929050565b6000806014816105a88664ffffffffff871684610600565b6105b190610a63565b60601c9050806105838364ffffffffff8816610a42565b6000806004816105e08664ffffffffff871684610600565b6105e990610a9f565b60e01c9050806105838364ffffffffff8816610a42565b60608161060e81601f610a42565b10156106525760405162461bcd60e51b815260206004820152600e60248201526d736c6963655f6f766572666c6f7760901b60448201526064015b60405180910390fd5b61065c8284610a42565b845110156106a05760405162461bcd60e51b8152602060048201526011602482015270736c6963655f6f75744f66426f756e647360781b6044820152606401610649565b6060821580156106bf5760405191506000825260208201604052610709565b6040519150601f8416801560200281840101858101878315602002848b0101015b818310156106f85780518352602092830192016106e0565b5050858452601f01601f1916604052505b5090505b9392505050565b60005b8381101561072f578181015183820152602001610717565b50506000910152565b60008151808452610750816020860160208601610714565b601f01601f19169290920160200192915050565b60208152600061070d6020830184610738565b6000806000806040858703121561078d57600080fd5b843567ffffffffffffffff808211156107a557600080fd5b818701915087601f8301126107b957600080fd5b8135818111156107c857600080fd5b8860208260051b85010111156107dd57600080fd5b6020928301965094509086013590808211156107f857600080fd5b818701915087601f83011261080c57600080fd5b81358181111561081b57600080fd5b88602082850101111561082d57600080fd5b95989497505060200194505050565b60006020828403121561084e57600080fd5b81356001600160a01b038116811461070d57600080fd5b60006020828403121561087757600080fd5b813563ffffffff8116811461070d57600080fd5b60006060828403121561089d57600080fd5b50919050565b634e487b7160e01b600052604160045260246000fd5b6000602082840312156108cb57600080fd5b813567ffffffffffffffff808211156108e357600080fd5b818401915084601f8301126108f757600080fd5b813581811115610909576109096108a3565b604051601f8201601f19908116603f01168101908382118183101715610931576109316108a3565b8160405282815287602084870101111561094a57600080fd5b826020860160208301376000928101602001929092525095945050505050565b815181526020808301516001600160a01b03169082015260408083015163ffffffff1690820152606081015b92915050565b634e487b7160e01b600052603260045260246000fd5b63ffffffff831681526080810161070d6020830184805182526020808201516001600160a01b03169083015260409081015163ffffffff16910152565b60008351610a01818460208801610714565b835190830190610a15818360208801610714565b01949350505050565b8051602080830151919081101561089d5760001960209190910360031b1b16919050565b8082018082111561099657634e487b7160e01b600052601160045260246000fd5b805160208201516bffffffffffffffffffffffff198082169291906014831015610a975780818460140360031b1b83161693505b505050919050565b805160208201516001600160e01b03198082169291906004831015610a975760049290920360031b82901b16169291505056fe75696e7432353620746f6b656e49642c206164647265737320636f6e7472616374416464726573732c2075696e74333220636861696e4964a2646970667358221220274389b8c0349edc2991a00e9b050f312f6126460aa4645d005da592676880bd64736f6c63430008130033",
        "linkReferences": {}
    },
    "methodIdentifiers": {
        "SCHEMA()": "b4a8b1b8",
        "TYPE()": "bb24fe8a",
        "decode(bytes)": "e5c5e9a3",
        "encode((uint256,address,uint32))": "e48b61f8",
        "getSchema()": "6b122fe0",
        "getType()": "15dae03e",
        "onWildevent(uint32[],bytes)": "827de403",
        "onlyWildeventRegistryContract(address)": "ad71b2d8",
        "wildeventRegistryContract()": "437e2e51",
        "wildfileIdToPfp(uint32)": "e37860e0"
    },
    "id": 36
}