{
    "abi": [
        {
            "inputs": [
                {
                    "internalType": "address",
                    "name": "wildfileAddress",
                    "type": "address"
                },
                {
                    "internalType": "address",
                    "name": "authHookAddress",
                    "type": "address"
                }
            ],
            "stateMutability": "nonpayable",
            "type": "constructor"
        },
        {
            "inputs": [],
            "name": "EventAlreadyRegistered",
            "type": "error"
        },
        {
            "inputs": [],
            "name": "IndexOutOfBounds",
            "type": "error"
        },
        {
            "inputs": [],
            "name": "InvalidIndex",
            "type": "error"
        },
        {
            "inputs": [],
            "name": "UnknownEventType",
            "type": "error"
        },
        {
            "anonymous": false,
            "inputs": [
                {
                    "indexed": true,
                    "internalType": "address",
                    "name": "previousOwner",
                    "type": "address"
                },
                {
                    "indexed": true,
                    "internalType": "address",
                    "name": "newOwner",
                    "type": "address"
                }
            ],
            "name": "OwnershipTransferred",
            "type": "event"
        },
        {
            "anonymous": false,
            "inputs": [
                {
                    "indexed": true,
                    "internalType": "string",
                    "name": "wildeventType",
                    "type": "string"
                },
                {
                    "indexed": false,
                    "internalType": "uint32",
                    "name": "wildfileId",
                    "type": "uint32"
                },
                {
                    "indexed": false,
                    "internalType": "bool",
                    "name": "canAttest",
                    "type": "bool"
                }
            ],
            "name": "WildeventAttestorUpdated",
            "type": "event"
        },
        {
            "anonymous": false,
            "inputs": [
                {
                    "indexed": true,
                    "internalType": "uint64",
                    "name": "wildeventId",
                    "type": "uint64"
                },
                {
                    "indexed": true,
                    "internalType": "string",
                    "name": "wildeventType",
                    "type": "string"
                },
                {
                    "components": [
                        {
                            "internalType": "uint64",
                            "name": "wildeventId",
                            "type": "uint64"
                        },
                        {
                            "internalType": "uint32",
                            "name": "attestorWildfileId",
                            "type": "uint32"
                        },
                        {
                            "internalType": "string",
                            "name": "wildeventType",
                            "type": "string"
                        },
                        {
                            "internalType": "uint32[]",
                            "name": "wildfileIds",
                            "type": "uint32[]"
                        },
                        {
                            "internalType": "bytes",
                            "name": "data",
                            "type": "bytes"
                        }
                    ],
                    "indexed": true,
                    "internalType": "struct IWildeventRegistry.Wildevent",
                    "name": "we",
                    "type": "tuple"
                }
            ],
            "name": "WildeventPosted",
            "type": "event"
        },
        {
            "anonymous": false,
            "inputs": [
                {
                    "indexed": true,
                    "internalType": "string",
                    "name": "wildeventType",
                    "type": "string"
                },
                {
                    "indexed": false,
                    "internalType": "string",
                    "name": "schema",
                    "type": "string"
                }
            ],
            "name": "WildeventTypeRegistered",
            "type": "event"
        },
        {
            "inputs": [],
            "name": "authHook",
            "outputs": [
                {
                    "internalType": "contract IWildeventAuthHook",
                    "name": "",
                    "type": "address"
                }
            ],
            "stateMutability": "view",
            "type": "function"
        },
        {
            "inputs": [
                {
                    "internalType": "string",
                    "name": "wildeventType",
                    "type": "string"
                }
            ],
            "name": "getNumWildevents",
            "outputs": [
                {
                    "internalType": "uint256",
                    "name": "",
                    "type": "uint256"
                }
            ],
            "stateMutability": "view",
            "type": "function"
        },
        {
            "inputs": [
                {
                    "internalType": "string",
                    "name": "wildeventType",
                    "type": "string"
                }
            ],
            "name": "getWildeventSchema",
            "outputs": [
                {
                    "internalType": "string",
                    "name": "",
                    "type": "string"
                }
            ],
            "stateMutability": "view",
            "type": "function"
        },
        {
            "inputs": [],
            "name": "getWildeventTypes",
            "outputs": [
                {
                    "internalType": "string[]",
                    "name": "",
                    "type": "string[]"
                }
            ],
            "stateMutability": "view",
            "type": "function"
        },
        {
            "inputs": [
                {
                    "internalType": "string",
                    "name": "wildeventType",
                    "type": "string"
                }
            ],
            "name": "getWildevents",
            "outputs": [
                {
                    "components": [
                        {
                            "internalType": "uint64",
                            "name": "wildeventId",
                            "type": "uint64"
                        },
                        {
                            "internalType": "uint32",
                            "name": "attestorWildfileId",
                            "type": "uint32"
                        },
                        {
                            "internalType": "string",
                            "name": "wildeventType",
                            "type": "string"
                        },
                        {
                            "internalType": "uint32[]",
                            "name": "wildfileIds",
                            "type": "uint32[]"
                        },
                        {
                            "internalType": "bytes",
                            "name": "data",
                            "type": "bytes"
                        }
                    ],
                    "internalType": "struct IWildeventRegistry.Wildevent[]",
                    "name": "",
                    "type": "tuple[]"
                }
            ],
            "stateMutability": "view",
            "type": "function"
        },
        {
            "inputs": [
                {
                    "internalType": "string",
                    "name": "wildeventType",
                    "type": "string"
                },
                {
                    "internalType": "uint256",
                    "name": "startIndex",
                    "type": "uint256"
                },
                {
                    "internalType": "uint256",
                    "name": "endIndex",
                    "type": "uint256"
                }
            ],
            "name": "getWildeventsBatch",
            "outputs": [
                {
                    "components": [
                        {
                            "internalType": "uint64",
                            "name": "wildeventId",
                            "type": "uint64"
                        },
                        {
                            "internalType": "uint32",
                            "name": "attestorWildfileId",
                            "type": "uint32"
                        },
                        {
                            "internalType": "string",
                            "name": "wildeventType",
                            "type": "string"
                        },
                        {
                            "internalType": "uint32[]",
                            "name": "wildfileIds",
                            "type": "uint32[]"
                        },
                        {
                            "internalType": "bytes",
                            "name": "data",
                            "type": "bytes"
                        }
                    ],
                    "internalType": "struct IWildeventRegistry.Wildevent[]",
                    "name": "",
                    "type": "tuple[]"
                }
            ],
            "stateMutability": "view",
            "type": "function"
        },
        {
            "inputs": [
                {
                    "internalType": "string",
                    "name": "wildeventType",
                    "type": "string"
                },
                {
                    "internalType": "uint32",
                    "name": "wildfileId",
                    "type": "uint32"
                }
            ],
            "name": "isWildeventAttestor",
            "outputs": [
                {
                    "internalType": "bool",
                    "name": "",
                    "type": "bool"
                }
            ],
            "stateMutability": "view",
            "type": "function"
        },
        {
            "inputs": [
                {
                    "internalType": "string",
                    "name": "wildeventType",
                    "type": "string"
                }
            ],
            "name": "isWildeventTypeRegistered",
            "outputs": [
                {
                    "internalType": "bool",
                    "name": "",
                    "type": "bool"
                }
            ],
            "stateMutability": "view",
            "type": "function"
        },
        {
            "inputs": [],
            "name": "owner",
            "outputs": [
                {
                    "internalType": "address",
                    "name": "",
                    "type": "address"
                }
            ],
            "stateMutability": "view",
            "type": "function"
        },
        {
            "inputs": [
                {
                    "internalType": "string",
                    "name": "wildeventType",
                    "type": "string"
                },
                {
                    "internalType": "uint32[]",
                    "name": "wildfileIds",
                    "type": "uint32[]"
                },
                {
                    "internalType": "bytes",
                    "name": "data",
                    "type": "bytes"
                }
            ],
            "name": "postWildevent",
            "outputs": [
                {
                    "internalType": "uint64",
                    "name": "",
                    "type": "uint64"
                }
            ],
            "stateMutability": "nonpayable",
            "type": "function"
        },
        {
            "inputs": [
                {
                    "internalType": "contract IWildevent",
                    "name": "wildeventImpl",
                    "type": "address"
                }
            ],
            "name": "registerWildeventType",
            "outputs": [],
            "stateMutability": "nonpayable",
            "type": "function"
        },
        {
            "inputs": [],
            "name": "renounceOwnership",
            "outputs": [],
            "stateMutability": "nonpayable",
            "type": "function"
        },
        {
            "inputs": [
                {
                    "internalType": "string",
                    "name": "wildeventType",
                    "type": "string"
                },
                {
                    "internalType": "uint32",
                    "name": "wildfileId",
                    "type": "uint32"
                },
                {
                    "internalType": "bool",
                    "name": "canAttest",
                    "type": "bool"
                }
            ],
            "name": "setWildeventAttestor",
            "outputs": [],
            "stateMutability": "nonpayable",
            "type": "function"
        },
        {
            "inputs": [
                {
                    "internalType": "address",
                    "name": "authHookAddress",
                    "type": "address"
                }
            ],
            "name": "setWildeventAuthHook",
            "outputs": [],
            "stateMutability": "nonpayable",
            "type": "function"
        },
        {
            "inputs": [
                {
                    "internalType": "address",
                    "name": "wildfileAddress",
                    "type": "address"
                }
            ],
            "name": "setWildfile",
            "outputs": [],
            "stateMutability": "nonpayable",
            "type": "function"
        },
        {
            "inputs": [
                {
                    "internalType": "address",
                    "name": "newOwner",
                    "type": "address"
                }
            ],
            "name": "transferOwnership",
            "outputs": [],
            "stateMutability": "nonpayable",
            "type": "function"
        },
        {
            "inputs": [],
            "name": "wildeventIdCounter",
            "outputs": [
                {
                    "internalType": "uint64",
                    "name": "",
                    "type": "uint64"
                }
            ],
            "stateMutability": "view",
            "type": "function"
        },
        {
            "inputs": [
                {
                    "internalType": "string",
                    "name": "",
                    "type": "string"
                }
            ],
            "name": "wildeventTypeToImpl",
            "outputs": [
                {
                    "internalType": "contract IWildevent",
                    "name": "",
                    "type": "address"
                }
            ],
            "stateMutability": "view",
            "type": "function"
        },
        {
            "inputs": [
                {
                    "internalType": "string",
                    "name": "",
                    "type": "string"
                }
            ],
            "name": "wildeventTypeToRegistered",
            "outputs": [
                {
                    "internalType": "bool",
                    "name": "",
                    "type": "bool"
                }
            ],
            "stateMutability": "view",
            "type": "function"
        },
        {
            "inputs": [
                {
                    "internalType": "string",
                    "name": "",
                    "type": "string"
                }
            ],
            "name": "wildeventTypeToRegistrantWildfileId",
            "outputs": [
                {
                    "internalType": "uint256",
                    "name": "",
                    "type": "uint256"
                }
            ],
            "stateMutability": "view",
            "type": "function"
        },
        {
            "inputs": [
                {
                    "internalType": "string",
                    "name": "",
                    "type": "string"
                }
            ],
            "name": "wildeventTypeToSchema",
            "outputs": [
                {
                    "internalType": "string",
                    "name": "",
                    "type": "string"
                }
            ],
            "stateMutability": "view",
            "type": "function"
        },
        {
            "inputs": [
                {
                    "internalType": "string",
                    "name": "",
                    "type": "string"
                },
                {
                    "internalType": "uint256",
                    "name": "",
                    "type": "uint256"
                }
            ],
            "name": "wildeventTypeToWildevents",
            "outputs": [
                {
                    "internalType": "uint64",
                    "name": "wildeventId",
                    "type": "uint64"
                },
                {
                    "internalType": "uint32",
                    "name": "attestorWildfileId",
                    "type": "uint32"
                },
                {
                    "internalType": "string",
                    "name": "wildeventType",
                    "type": "string"
                },
                {
                    "internalType": "bytes",
                    "name": "data",
                    "type": "bytes"
                }
            ],
            "stateMutability": "view",
            "type": "function"
        },
        {
            "inputs": [
                {
                    "internalType": "uint256",
                    "name": "",
                    "type": "uint256"
                }
            ],
            "name": "wildeventTypes",
            "outputs": [
                {
                    "internalType": "string",
                    "name": "",
                    "type": "string"
                }
            ],
            "stateMutability": "view",
            "type": "function"
        },
        {
            "inputs": [],
            "name": "wildfile",
            "outputs": [
                {
                    "internalType": "contract IWildfile",
                    "name": "",
                    "type": "address"
                }
            ],
            "stateMutability": "view",
            "type": "function"
        },
        {
            "inputs": [
                {
                    "internalType": "uint32",
                    "name": "",
                    "type": "uint32"
                },
                {
                    "internalType": "string",
                    "name": "",
                    "type": "string"
                }
            ],
            "name": "wildfileIdToEventTypeToCanAttest",
            "outputs": [
                {
                    "internalType": "bool",
                    "name": "",
                    "type": "bool"
                }
            ],
            "stateMutability": "view",
            "type": "function"
        }
    ],
    "bytecode": {
        "object": "0x60806040523480156200001157600080fd5b50604051620025a9380380620025a98339810160408190526200003491620000de565b6200003f3362000071565b600180546001600160a01b039384166001600160a01b0319918216179091556002805492909316911617905562000116565b600080546001600160a01b038381166001600160a01b0319831681178455604051919092169283917f8be0079c531659141344cd1fd0a4f28419497f9722a3daafe3b4186f6b6457e09190a35050565b80516001600160a01b0381168114620000d957600080fd5b919050565b60008060408385031215620000f257600080fd5b620000fd83620000c1565b91506200010d60208401620000c1565b90509250929050565b61248380620001266000396000f3fe608060405234801561001057600080fd5b50600436106101735760003560e01c80638da5cb5b116100de578063c00c104011610097578063c56e383111610071578063c56e3831146103d8578063cf31ad0a146103eb578063d48c5cd214610400578063f2fde38b1461043f57600080fd5b8063c00c10401461039f578063c4b926c0146103b2578063c5285bcc146103c557600080fd5b80638da5cb5b146103145780638debbb4514610325578063b34cdd7a14610338578063b44720b914610366578063b5f41d7c14610379578063be3949c81461038c57600080fd5b80634fef8d66116101305780634fef8d6614610290578063715018a6146102a35780638142cd80146102ab5780638528a6dc146102cb5780638967933c146102de5780638c84e61f146102f157600080fd5b806301ebb5fd14610178578063078154b8146101a1578063265247f9146101d357806331d9340f146101f65780633b2f7fd01461020b5780634f13cf7a14610257575b600080fd5b61018b6101863660046119d4565b610452565b6040516101989190611a74565b60405180910390f35b6000546101bb90600160a01b90046001600160401b031681565b6040516001600160401b039091168152602001610198565b6101e66101e1366004611b6a565b6107da565b6040519015158152602001610198565b610209610204366004611bc0565b61080a565b005b61023f610219366004611ca7565b80516020818301810180516008825292820191909301209152546001600160a01b031681565b6040516001600160a01b039091168152602001610198565b610282610265366004611ca7565b805160208183018101805160058252928201919093012091525481565b604051908152602001610198565b60025461023f906001600160a01b031681565b610209610834565b6102be6102b9366004611ca7565b610848565b6040516101989190611ce3565b6102096102d9366004611d0f565b6108ed565b6101e66102ec366004611d7a565b610a3a565b6103046102ff366004611dcd565b610a7b565b6040516101989493929190611e11565b6000546001600160a01b031661023f565b6102be610333366004611b6a565b610bf5565b6101e6610346366004611ca7565b805160208183018101805160048252928201919093012091525460ff1681565b60015461023f906001600160a01b031681565b6102be610387366004611e5c565b610ca8565b61020961039a366004611bc0565b610cd3565b6102096103ad366004611bc0565b610cfd565b6102826103c0366004611b6a565b61102e565b6101bb6103d3366004611e75565b61105a565b61018b6103e6366004611b6a565b611476565b6103f36116c7565b6040516101989190611f3f565b6101e661040e366004611fa1565b6009602090815260009283526040909220815180830184018051928152908401929093019190912091525460ff1681565b61020961044d366004611bc0565b6117a0565b606081831115610475576040516363df817160e01b815260040160405180910390fd5b600060078686604051610489929190611fee565b9081526020016040518091039020805480602002602001604051908101604052809291908181526020016000905b828210156106ba5760008481526020908190206040805160a0810182526004860290920180546001600160401b0381168452600160401b900463ffffffff16938301939093526001830180549293929184019161051390611ffe565b80601f016020809104026020016040519081016040528092919081815260200182805461053f90611ffe565b801561058c5780601f106105615761010080835404028352916020019161058c565b820191906000526020600020905b81548152906001019060200180831161056f57829003601f168201915b505050505081526020016002820180548060200260200160405190810160405280929190818152602001828054801561061057602002820191906000526020600020906000905b82829054906101000a900463ffffffff1663ffffffff16815260200190600401906020826003010492830192600103820291508084116105d35790505b5050505050815260200160038201805461062990611ffe565b80601f016020809104026020016040519081016040528092919081815260200182805461065590611ffe565b80156106a25780601f10610677576101008083540402835291602001916106a2565b820191906000526020600020905b81548152906001019060200180831161068557829003601f168201915b505050505081525050815260200190600101906104b7565b505050509050805183106106e157604051634e23d03560e01b815260040160405180910390fd5b60006106ed858561204e565b6106f8906001612061565b90506000816001600160401b0381111561071457610714611be4565b60405190808252806020026020018201604052801561076f57816020015b6040805160a08101825260008082526020820152606091810182905281810182905260808101919091528152602001906001900390816107325790505b50905060005b828110156107ce57836107888883612061565b8151811061079857610798612074565b60200260200101518282815181106107b2576107b2612074565b6020026020010181905250806107c79061208a565b9050610775565b50979650505050505050565b6000600483836040516107ee929190611fee565b9081526040519081900360200190205460ff1690505b92915050565b61081261181e565b600180546001600160a01b0319166001600160a01b0392909216919091179055565b61083c61181e565b6108466000611878565b565b80516020818301810180516006825292820191909301209152805461086c90611ffe565b80601f016020809104026020016040519081016040528092919081815260200182805461089890611ffe565b80156108e55780601f106108ba576101008083540402835291602001916108e5565b820191906000526020600020905b8154815290600101906020018083116108c857829003601f168201915b505050505081565b600484846040516108ff929190611fee565b9081526040519081900360200190205460ff1661092f57604051631b4047b360e31b815260040160405180910390fd5b60025460405163175f8cd960e31b81526001600160a01b039091169063bafc66c8906109659033908890889088906004016120cc565b600060405180830381600087803b15801561097f57600080fd5b505af1158015610993573d6000803e3d6000fd5b50505063ffffffff83166000908152600960205260409081902090518392506109bf9087908790611fee565b908152604051908190036020018120805492151560ff19909316929092179091556109ed9085908590611fee565b6040805191829003822063ffffffff851683528315156020840152917f16ab2bddb9d53e0bb597a2aa3cde9fca2a67d9fe863f79f050c84e430948f503910160405180910390a250505050565b63ffffffff81166000908152600960205260408082209051610a5f9086908690611fee565b9081526040519081900360200190205460ff1690509392505050565b81516020818401810180516007825292820191850191909120919052805482908110610aa657600080fd5b6000918252602090912060049091020180546001820180546001600160401b0383169550600160401b90920463ffffffff16935090610ae490611ffe565b80601f0160208091040260200160405190810160405280929190818152602001828054610b1090611ffe565b8015610b5d5780601f10610b3257610100808354040283529160200191610b5d565b820191906000526020600020905b815481529060010190602001808311610b4057829003601f168201915b505050505090806003018054610b7290611ffe565b80601f0160208091040260200160405190810160405280929190818152602001828054610b9e90611ffe565b8015610beb5780601f10610bc057610100808354040283529160200191610beb565b820191906000526020600020905b815481529060010190602001808311610bce57829003601f168201915b5050505050905084565b606060068383604051610c09929190611fee565b90815260200160405180910390208054610c2290611ffe565b80601f0160208091040260200160405190810160405280929190818152602001828054610c4e90611ffe565b8015610c9b5780601f10610c7057610100808354040283529160200191610c9b565b820191906000526020600020905b815481529060010190602001808311610c7e57829003601f168201915b5050505050905092915050565b60038181548110610cb857600080fd5b90600052602060002001600091509050805461086c90611ffe565b610cdb61181e565b600280546001600160a01b0319166001600160a01b0392909216919091179055565b6000816001600160a01b03166315dae03e6040518163ffffffff1660e01b8152600401600060405180830381865afa158015610d3d573d6000803e3d6000fd5b505050506040513d6000823e601f3d908101601f19168201604052610d659190810190612108565b90506000826001600160a01b0316636b122fe06040518163ffffffff1660e01b8152600401600060405180830381865afa158015610da7573d6000803e3d6000fd5b505050506040513d6000823e601f3d908101601f19168201604052610dcf9190810190612108565b9050600482604051610de1919061217e565b9081526040519081900360200190205460ff1615610e125760405163ca86b94760e01b815260040160405180910390fd5b600254604051631bdf87c560e21b81523360048201526001600160a01b03858116602483015290911690636f7e1f1490604401600060405180830381600087803b158015610e5f57600080fd5b505af1158015610e73573d6000803e3d6000fd5b5050600380546001810182556000919091527fc2575a0e9e593c00f959f8c92f12db2869c3395a3b0502d05e2516446f71f85b019150610eb5905083826121e9565b506001600483604051610ec8919061217e565b908152604051908190036020018120805492151560ff199093169290921790915560015463a68d648160e01b82523360048301526001600160a01b03169063a68d648190602401602060405180830381865afa158015610f2c573d6000803e3d6000fd5b505050506040513d601f19601f82011682018060405250810190610f5091906122a8565b600583604051610f60919061217e565b90815260200160405180910390208190555080600683604051610f83919061217e565b90815260200160405180910390209081610f9d91906121e9565b5082600883604051610faf919061217e565b90815260405190819003602001812080546001600160a01b03939093166001600160a01b031990931692909217909155610fea90839061217e565b60405180910390207f697b323db570fba03e542030d1bb12343e7db6e3face42d247255c7b14b83ee8826040516110219190611ce3565b60405180910390a2505050565b600060078383604051611042929190611fee565b90815260405190819003602001902054905092915050565b60006004878760405161106e929190611fee565b9081526040519081900360200190205460ff1661109e57604051631b4047b360e31b815260040160405180910390fd5b6002546040516358dba7c760e01b81526001600160a01b03909116906358dba7c7906110da9033908b908b908b908b908b908b90600401612305565b600060405180830381600087803b1580156110f457600080fd5b505af1158015611108573d6000803e3d6000fd5b505050506000601481819054906101000a90046001600160401b031661112d90612360565b82546001600160401b039182166101009390930a928302919092021990911617905560015460405163a68d648160e01b81523360048201526000916001600160a01b03169063a68d648190602401602060405180830381865afa158015611198573d6000803e3d6000fd5b505050506040513d601f19601f820116820180604052508101906111bc91906122a8565b905060006040518060a00160405280600060149054906101000a90046001600160401b03166001600160401b031681526020018363ffffffff1681526020018a8a8080601f0160208091040260200160405190810160405280939291908181526020018383808284376000920191909152505050908252506040805160208a810282810182019093528a82529283019290918b918b918291850190849080828437600092019190915250505090825250604080516020601f89018190048102820181019092528781529181019190889088908190840183828082843760009201919091525050509152506040519091506007906112bc908b908b90611fee565b90815260408051918290036020908101909220805460018181018355600092835291849020855160049092020180549486015163ffffffff16600160401b026bffffffffffffffffffffffff199095166001600160401b03909216919091179390931783559083015183929182019061133590826121e9565b50606082015180516113519160028401916020909101906118c8565b506080820151600382019061136690826121e9565b5050506008898960405161137b929190611fee565b9081526040519081900360200181205463827de40360e01b82526001600160a01b03169063827de403906113b9908a908a908a908a90600401612386565b600060405180830381600087803b1580156113d357600080fd5b505af11580156113e7573d6000803e3d6000fd5b50505050806040516113f991906123d0565b60405180910390208989604051611411929190611fee565b604051908190038120600080549192600160a01b9092046001600160401b0316917f6f1c70410ff4c6968fca0f31a36e2869986dd45bf9b385a38a833baf9efce2729190a45050600054600160a01b90046001600160401b0316979650505050505050565b60606007838360405161148a929190611fee565b9081526020016040518091039020805480602002602001604051908101604052809291908181526020016000905b828210156116bb5760008481526020908190206040805160a0810182526004860290920180546001600160401b0381168452600160401b900463ffffffff16938301939093526001830180549293929184019161151490611ffe565b80601f016020809104026020016040519081016040528092919081815260200182805461154090611ffe565b801561158d5780601f106115625761010080835404028352916020019161158d565b820191906000526020600020905b81548152906001019060200180831161157057829003601f168201915b505050505081526020016002820180548060200260200160405190810160405280929190818152602001828054801561161157602002820191906000526020600020906000905b82829054906101000a900463ffffffff1663ffffffff16815260200190600401906020826003010492830192600103820291508084116115d45790505b5050505050815260200160038201805461162a90611ffe565b80601f016020809104026020016040519081016040528092919081815260200182805461165690611ffe565b80156116a35780601f10611678576101008083540402835291602001916116a3565b820191906000526020600020905b81548152906001019060200180831161168657829003601f168201915b505050505081525050815260200190600101906114b8565b50505050905092915050565b60606003805480602002602001604051908101604052809291908181526020016000905b8282101561179757838290600052602060002001805461170a90611ffe565b80601f016020809104026020016040519081016040528092919081815260200182805461173690611ffe565b80156117835780601f1061175857610100808354040283529160200191611783565b820191906000526020600020905b81548152906001019060200180831161176657829003601f168201915b5050505050815260200190600101906116eb565b50505050905090565b6117a861181e565b6001600160a01b0381166118125760405162461bcd60e51b815260206004820152602660248201527f4f776e61626c653a206e6577206f776e657220697320746865207a65726f206160448201526564647265737360d01b60648201526084015b60405180910390fd5b61181b81611878565b50565b6000546001600160a01b031633146108465760405162461bcd60e51b815260206004820181905260248201527f4f776e61626c653a2063616c6c6572206973206e6f7420746865206f776e65726044820152606401611809565b600080546001600160a01b038381166001600160a01b0319831681178455604051919092169283917f8be0079c531659141344cd1fd0a4f28419497f9722a3daafe3b4186f6b6457e09190a35050565b828054828255906000526020600020906007016008900481019282156119675791602002820160005b8382111561193557835183826101000a81548163ffffffff021916908363ffffffff16021790555092602001926004016020816003010492830192600103026118f1565b80156119655782816101000a81549063ffffffff0219169055600401602081600301049283019260010302611935565b505b50611973929150611977565b5090565b5b808211156119735760008155600101611978565b60008083601f84011261199e57600080fd5b5081356001600160401b038111156119b557600080fd5b6020830191508360208285010111156119cd57600080fd5b9250929050565b600080600080606085870312156119ea57600080fd5b84356001600160401b03811115611a0057600080fd5b611a0c8782880161198c565b90989097506020870135966040013595509350505050565b60005b83811015611a3f578181015183820152602001611a27565b50506000910152565b60008151808452611a60816020860160208601611a24565b601f01601f19169290920160200192915050565b60006020808301818452808551808352604092508286019150828160051b8701018488016000805b84811015611b5b57898403603f19018652825180516001600160401b031685528881015163ffffffff9081168a8701528882015160a08a880181905291611ae583890183611a48565b6060858101518a8303918b01919091528051808352908e019450908d01925086905b80821015611b2957845183168452938d0193928d019260019190910190611b07565b50505060809283015187820388850152929150611b468184611a48565b988b0198965050509288019250600101611a9c565b50919998505050505050505050565b60008060208385031215611b7d57600080fd5b82356001600160401b03811115611b9357600080fd5b611b9f8582860161198c565b90969095509350505050565b6001600160a01b038116811461181b57600080fd5b600060208284031215611bd257600080fd5b8135611bdd81611bab565b9392505050565b634e487b7160e01b600052604160045260246000fd5b604051601f8201601f191681016001600160401b0381118282101715611c2257611c22611be4565b604052919050565b60006001600160401b03821115611c4357611c43611be4565b50601f01601f191660200190565b600082601f830112611c6257600080fd5b8135611c75611c7082611c2a565b611bfa565b818152846020838601011115611c8a57600080fd5b816020850160208301376000918101602001919091529392505050565b600060208284031215611cb957600080fd5b81356001600160401b03811115611ccf57600080fd5b611cdb84828501611c51565b949350505050565b602081526000611bdd6020830184611a48565b803563ffffffff81168114611d0a57600080fd5b919050565b60008060008060608587031215611d2557600080fd5b84356001600160401b03811115611d3b57600080fd5b611d478782880161198c565b9095509350611d5a905060208601611cf6565b915060408501358015158114611d6f57600080fd5b939692955090935050565b600080600060408486031215611d8f57600080fd5b83356001600160401b03811115611da557600080fd5b611db18682870161198c565b9094509250611dc4905060208501611cf6565b90509250925092565b60008060408385031215611de057600080fd5b82356001600160401b03811115611df657600080fd5b611e0285828601611c51565b95602094909401359450505050565b6001600160401b038516815263ffffffff84166020820152608060408201526000611e3f6080830185611a48565b8281036060840152611e518185611a48565b979650505050505050565b600060208284031215611e6e57600080fd5b5035919050565b60008060008060008060608789031215611e8e57600080fd5b86356001600160401b0380821115611ea557600080fd5b611eb18a838b0161198c565b90985096506020890135915080821115611eca57600080fd5b818901915089601f830112611ede57600080fd5b813581811115611eed57600080fd5b8a60208260051b8501011115611f0257600080fd5b602083019650809550506040890135915080821115611f2057600080fd5b50611f2d89828a0161198c565b979a9699509497509295939492505050565b6000602080830181845280855180835260408601915060408160051b870101925083870160005b82811015611f9457603f19888603018452611f82858351611a48565b94509285019290850190600101611f66565b5092979650505050505050565b60008060408385031215611fb457600080fd5b611fbd83611cf6565b915060208301356001600160401b03811115611fd857600080fd5b611fe485828601611c51565b9150509250929050565b8183823760009101908152919050565b600181811c9082168061201257607f821691505b60208210810361203257634e487b7160e01b600052602260045260246000fd5b50919050565b634e487b7160e01b600052601160045260246000fd5b8181038181111561080457610804612038565b8082018082111561080457610804612038565b634e487b7160e01b600052603260045260246000fd5b60006001820161209c5761209c612038565b5060010190565b81835281816020850137506000828201602090810191909152601f909101601f19169091010190565b6001600160a01b03851681526060602082018190526000906120f190830185876120a3565b905063ffffffff8316604083015295945050505050565b60006020828403121561211a57600080fd5b81516001600160401b0381111561213057600080fd5b8201601f8101841361214157600080fd5b805161214f611c7082611c2a565b81815285602083850101111561216457600080fd5b612175826020830160208601611a24565b95945050505050565b60008251612190818460208701611a24565b9190910192915050565b601f8211156121e457600081815260208120601f850160051c810160208610156121c15750805b601f850160051c820191505b818110156121e0578281556001016121cd565b5050505b505050565b81516001600160401b0381111561220257612202611be4565b612216816122108454611ffe565b8461219a565b602080601f83116001811461224b57600084156122335750858301515b600019600386901b1c1916600185901b1785556121e0565b600085815260208120601f198616915b8281101561227a5788860151825594840194600190910190840161225b565b50858210156122985787850151600019600388901b60f8161c191681555b5050505050600190811b01905550565b6000602082840312156122ba57600080fd5b5051919050565b8183526000602080850194508260005b858110156122fa5763ffffffff6122e783611cf6565b16875295820195908201906001016122d1565b509495945050505050565b6001600160a01b038816815260806020820181905260009061232a908301888a6120a3565b828103604084015261233d8187896122c1565b905082810360608401526123528185876120a3565b9a9950505050505050505050565b60006001600160401b0380831681810361237c5761237c612038565b6001019392505050565b60408152600061239a6040830186886122c1565b8281036020840152611e518185876120a3565b600081516123bf818560208601611a24565b601f01601f19169290920192915050565b6001600160401b0382511681526000602063ffffffff808286015116828501526124016040850160408701516123ad565b60608601518051908401916000915b8083101561243257835185168252928501926001929092019190850190612410565b506124418160808a01516123ad565b9897505050505050505056fea2646970667358221220d2f7157330a8506b7d527766b1d010de2923cc358a18e3f648f577a804243db964736f6c63430008130033",
        "linkReferences": {}
    },
    "methodIdentifiers": {
        "authHook()": "4fef8d66",
        "getNumWildevents(string)": "c4b926c0",
        "getWildeventSchema(string)": "8debbb45",
        "getWildeventTypes()": "cf31ad0a",
        "getWildevents(string)": "c56e3831",
        "getWildeventsBatch(string,uint256,uint256)": "01ebb5fd",
        "isWildeventAttestor(string,uint32)": "8967933c",
        "isWildeventTypeRegistered(string)": "265247f9",
        "owner()": "8da5cb5b",
        "postWildevent(string,uint32[],bytes)": "c5285bcc",
        "registerWildeventType(address)": "c00c1040",
        "renounceOwnership()": "715018a6",
        "setWildeventAttestor(string,uint32,bool)": "8528a6dc",
        "setWildeventAuthHook(address)": "be3949c8",
        "setWildfile(address)": "31d9340f",
        "transferOwnership(address)": "f2fde38b",
        "wildeventIdCounter()": "078154b8",
        "wildeventTypeToImpl(string)": "3b2f7fd0",
        "wildeventTypeToRegistered(string)": "b34cdd7a",
        "wildeventTypeToRegistrantWildfileId(string)": "4f13cf7a",
        "wildeventTypeToSchema(string)": "8142cd80",
        "wildeventTypeToWildevents(string,uint256)": "8c84e61f",
        "wildeventTypes(uint256)": "b5f41d7c",
        "wildfile()": "b44720b9",
        "wildfileIdToEventTypeToCanAttest(uint32,string)": "d48c5cd2"
    },
    "id": 45
}